:020000041000EA
:1000000000B5324B212058609868022188439860DF
:10001000D860186158612E4B002199600221596106
:100020000121F02299502B49196001219960352056
:1000300000F044F80222904214D00621196600F024
:1000400034F8196E01211966002018661A6600F04E
:100050002CF8196E196E196E052000F02FF8012189
:100060000842F9D1002199601B49196000215960AB
:100070001A491B48016001219960EB211966A021F2
:10008000196600F012F800219960164914480160C1
:100090000121996001BC002800D000471248134993
:1000A000086003C880F30888084703B5996A0420EC
:1000B0000142FBD001200142F8D103BD02B5186610
:1000C0001866FFF7F2FF186E186E02BD00000240BE
:1000D000000000180000070000035F00212200005C
:1000E000F4000018222000A00001001008ED00E03C
:1000F00000000000000000000000000074B24E7A12
:1001000000200420F7010010C3010010C5010010F9
:10011000C1010010C1010010C1010010C101001097
:10012000C1010010C1010010C1010010C701001081
:10013000C1010010C1010010C9010010C917001051
:10014000CD010010CD010010CD010010CD01001037
:10015000CD010010CD010010CD010010CD01001027
:10016000CD010010CD010010CD010010CD01001017
:10017000CD010010CD010010CD010010CD01001007
:10018000CD010010CD010010CD010010CD010010F7
:10019000CD010010CD010010CD010010CD010010E7
:1001A000CD010010CD010010CD010010CD010010D7
:1001B000CD010010CD010010CD010010CD010010C7
:1001C00000BE00BE00BE00BE00BE00BEEFF3058054
:1001D000103800BEF2EB8871389D0010689D001049
:1001E0003402001090A31AE700201F49086006C8D7
:1001F00081F3088810471D48006800282FD10DA4FE
:100200000ECC002902D000F012F8F9E71849194A7B
:10021000002000E001C19142FCD1174988471749ED
:1002200088471749884700BEFDE701C901C29A42C5
:10023000FBD37047689D0010C0000020400C0020D8
:10024000E8A800100000042000000420E8A8001026
:10025000001004200010042000000000704709482E
:1002600004F0AAFD0047000008ED00E0000000D007
:10027000400C002058160020413B0010F9050010EA
:10028000FD3A00105756000006005250ABB36053C1
:100290008098001006005250861C030290980010AF
:1002A000060052505422A29D94980010050052500E
:1002B000DE65F468E8A80010F8B5C04610B5064C35
:1002C0002378002B07D1054B002B02D0044800E017
:1002D00000BF0123237010BD400D0020000000006E
:1002E00098840010044B10B5002B03D00349044838
:1002F00000E000BF10BDC04600000000440D00201B
:100300009884001010B54B1E042B25D8D30911D0AA
:10031000C300134CA44663445960830011498C46C2
:1003200063445A60D02109060B6A0122824093433C
:100330000B6210BDC3000A4CA4466344596083009D
:1003400008498C4663445A60D02109060B6A012291
:10035000824013430B62ECE7034806F03BF8E8E702
:100360000040014000C00140B88500100200012992
:1003700008D0022918D0D0231B065B68C340012097
:1003800018407047D0231B065B68C3401940074BD9
:10039000185C8142F5D0D0231B065B68D340012056
:1003A0001840024B9854ECE70020EAE7E4130020E1
:1003B000002908D1002A07D1D02109060B69013292
:1003C000824013430B617047D02109060B6901225B
:1003D000824093430B61F6E710B580235B0498429B
:1003E0000CD8084B586007221A6007490B6A1B0299
:1003F0001B0AC022120613430B6210BD034805F00E
:10040000E9FFFAE710E000E000ED00E0D885001019
:1004100000B585B00F226A441070002300930133A9
:100420003F21024807F008FF05B000BD180C00206E
:10043000D0B504009626B60000273000390002F03F
:10044000C1FC04202043C0B2FFF7E2FF30003900B6
:1004500002F0B8FC042320009843FFF7D9FF3000D6
:10046000390002F0AFFCD0BD70B50F2305009D43ED
:100470006DB249B20D4308231D43EDB204010C4394
:1004800064B21C43E4B22800FFF7C2FF2800FFF764
:10049000CFFF2000FFF7BCFF2000FFF7C9FF70BDB2
:1004A00010B500210120FFF7DFFF10BD10B50028B7
:1004B00006D180310800C0B20021FFF7D5FF10BD82
:1004C000C0310800F7E710B5040003E00134012152
:1004D000FFF7CAFF20780028F8D110BD10B5002121
:1004E0000320FFF7C1FF00210320FFF7BDFF00211C
:1004F0000320FFF7B9FF00210220FFF7B5FF00211D
:100500000620FFF7B1FF00212820FFF7ADFF0021F3
:100510000C20FFF7A9FFFFF7C3FF10BD70B5154B07
:10052000154A5A6234229A62DA6A65218A43053989
:100530000A43DA62DA6A5D398A43DA62D96A0222E8
:100540009143D962D96A9143D9620C4919630C4B22
:1005500059688026B143596058684025284358603F
:10056000084C62609868B043986099682943996024
:10057000E26070BD004003402D0300000103000055
:1005800000C001400040014000B583B0FFF788FF84
:100590000B4B002018560A2201A907F065FE002126
:1005A0000020FFF783FF0748FFF78DFF0821002099
:1005B000FFF77CFF01A8FFF786FF03B000BDC04630
:1005C000501600200C86001010B50400084B0122C4
:1005D0001A70FFF765FFFFF7D7FF00210120FFF733
:1005E00065FFA400034BE058FFF76DFF10BDC04648
:1005F00054160020D00A0020F0B5DE4657464E467D
:100600004546E0B5C3B00023129314931593169397
:100610000793179307F01CFC05F0E8FE07F046FC73
:10062000F648FFF7D9FEFFF779FFE72205210B20F7
:10063000FFF768FEE72205210A20FFF763FEE722A5
:1006400005210920FFF75EFEE72205210820FFF7BC
:1006500059FEE72205210720FFF754FEE722052176
:100660000620FFF74FFEE72205210520FFF74AFE8F
:10067000E72205210420FFF745FEE722052103209C
:10068000FFF740FEE72205210220FFF73BFE212273
:1006900005210F20FFF736FE212205211620FFF746
:1006A00031FE212205211220FFF72CFE21220521F7
:1006B0001320FFF727FEE72205210E20FFF722FE79
:1006C000E72205210D20FFF71DFEE72205210C2062
:1006D000FFF718FE212205211420FFF713FE212227
:1006E00005211520FFF70EFE212205211C20FFF712
:1006F00009FE35A9C24B0A0013CB13C203CB03C2B8
:100700001B7813701D22002131202EAB9C466044C3
:1007100005F002FD002006F001FBBA4B002B01D0D2
:1007200000E000BFB849B94807F05AFD03211A207C
:1007300001F0FAF903211B2001F0F6F90022012152
:100740001A2001F009FA002201211B2001F004FA0D
:10075000FFF7C4FE30A9AA4B34330A0013CB13C2EF
:1007600003CB03C2FFF710FF01232D930133219325
:1007700000231D930F931F93119325930E9327939B
:1007800023932C931E93109324930D9326931C93E1
:10079000229320930C9302930593049300250193D5
:1007A0009B4699469846002603932B932A932993B8
:1007B00028931B931A931993189306931F00079B72
:1007C0009A4600F061FC924A022311689943116035
:1007D00000F069FC8E4A042311689943116000F00F
:1007E0006CFC8B4A082311689943116000F06EFC81
:1007F000874A102311689943116000F071FC844A04
:10080000202311689943116000F074FC804A402352
:1008100011689943116000F076FC7D4A80231168CD
:100820009943116000F078FC794A7A4B11680B40CB
:10083000136000F07CFC764A774B11680B40136024
:1008400000F080FC724A754B11680B40136000F099
:1008500084FC6F4A724B11680B40136000F088FCF7
:100860006B4A704B11680B40136000F08CFC179BB7
:10087000013BDBB21793664A8023DB0111680B430F
:1008800013600E20FFF7A0FE00F0CAFC189B013B8E
:10089000DBB218935E4A80235B0211680B4313603E
:1008A0001020FFF791FE00F0D0FC199B013BDBB25A
:1008B0001993574A8023DB0211680B4313601220FF
:1008C000FFF782FE00F0D6FC1A9B013BDBB21A93C5
:1008D0004F4A80235B0311680B4313601420FFF71A
:1008E00073FE00F0DCFC1B9B013BDBB21B93484A10
:1008F0008023DB0311680B4313601620FFF764FEAF
:1009000000F0E1FC484AD2680C9600F073FD002329
:10091000209300F081FD444BDB6824930D9700F099
:1009200083FD229B092B01D800F0CFFD1C9B229355
:1009300001230F930023109301331C9300F0C5FD96
:100940003A4B109A9A4201D800F0BFFD1C9B002B35
:1009500001D100F0BAFD229B0A2B2ED0504604F0A4
:1009600063FD12901391269804F05EFD0022304B37
:1009700004F0C6FC02000B001298139904F038FD35
:10098000002801D100F0A1FDD0231B06D9698022E7
:1009900052030A43DA61D969802292030A43DA6179
:1009A000D969802252050A43DA61229B0133DBB206
:1009B00022935346269300F088FD229B092B01D8F1
:1009C00000F083FD00230F9310931C93229300F0FB
:1009D0007CFD154BDB6825930E9400F07DFD239B79
:1009E000092B01D800F0BFFD1D9B239301231D930C
:1009F0000F930023119300F0B6FDC04647E80100B5
:100A00008C86001000000000A0860100180C002059
:100A1000600F0020FFFEFFFFFFFDFFFFFFFBFFFF5A
:100A2000FFF7FFFFFFEFFFFF004005403F4B4C008B
:100A300080842E41D64B119A9A4201D800F093FD42
:100A40001D9B002B01D100F08EFD239B0A2B2DD086
:100A5000200004F0E9FC12901391279804F0E4FCC4
:100A60000022CC4B04F04CFC02000B0012981399AE
:100A700004F0BEFC002801D100F075FDD0231B0658
:100A8000D969802252030A43DA61D969802292032C
:100A90000A43DA61D969802252050A43DA61239B4D
:100AA0000133DBB22393279400F05DFD239B092BD8
:100AB00001D800F058FD00231D930F931193239349
:100AC00000F051FDB44B00221A60052303E035AA63
:100AD0000021D1540133312BF9DD35AB21221A70BD
:100AE00032325A700E329A70DA701A71AB4B1B7830
:100AF0005BB2002B00DA97E035AB363A5A70A74B61
:100B00001B785BB29A460A21180004F081F9303153
:100B100035AC21710A21504604F07AF940B20A211D
:100B200004F076F93031E1706421504604F070F938
:100B30003030A0704346002B7DD1039B002B00D0AA
:100B400083E0002D00D08BE05B46002B00D092E0CC
:100B5000069B002B00D099E0002E00D0A1E0002FD2
:100B600000D0A9E0019B002B00D0B0E04B46002B49
:100B700000D0B7E0049B002B00D0BEE0059B002B0B
:100B800000D0C5E0029B002B00D0CCE0179B002BCF
:100B900000D0D3E0189C289B9C4200D01CE1199BFC
:100BA000299A934200D043E11A9C2A9B9C4200D090
:100BB0005FE11B9C2B9B9C4200D086E10F9B002B8E
:100BC00006D04B46002B03D0219B002B00D1A8E17F
:100BD0000F9B002B06D04B46002B03D0219B002BF4
:100BE00000D1A9E10F9B002B06D04B46002B03D070
:100BF000219B002B00D1AAE10F9B002B06D04B4676
:100C0000002B03D0219B002B00D1ABE135A807F0CE
:100C100071FB35AB9C4660440222614905F082FAC3
:100C200001231E9300F0A7FC35AA2D2151705B42D1
:100C30005A4A137063E7200007F05CFBA446604447
:100C40000422584905F06EFA77E735A807F052FB01
:100C500035AB9C4660440422534905F063FA70E7C3
:100C600035A807F047FB35AB9C46604404224F494A
:100C700005F058FA68E735A807F03CFB35AB9C4611
:100C8000604404224A4905F04DFA61E735A807F0AF
:100C900031FB35AB9C4660440422464905F042FADC
:100CA0005AE735A807F026FB35AB9C466044042282
:100CB000414905F037FA52E735A807F01BFB35AB81
:100CC0009C46604404223D4905F02CFA4AE735A8C9
:100CD00007F010FB35AB9C4660440422384905F010
:100CE00021FA43E735A807F005FB35AB9C46604485
:100CF0000422344905F016FA3CE735A807F0FAFA61
:100D000035AB9C46604405222F4905F00BFA35E7C8
:100D100035A807F0EFFA35AB9C46604405222B4915
:100D200005F000FA2EE735A807F0E4FA35AB9C464B
:100D300060440522264905F0F5F927E735A807F0B4
:100D4000D9FA35AB9C4660440422224905F0EAF901
:100D50000A21179B9A46180004F082F830312FAC14
:100D600021700A21504604F07BF8C0B20A2104F039
:100D700077F8303161706421504604F071F83030FA
:100D8000A0700023E370210035A807F085FA01E781
:100D90003F4B4C0080842E41381600205016002016
:100DA00074860010188600101C8600102086001023
:100DB00024860010288600102C8600103086001033
:100DC00034860010388600103C86001044860010DF
:100DD0004C8600105486001035A807F08BFA35AB0E
:100DE0009C4660440422934905F09CF90A21A246DE
:100DF000200004F035F830312FAC21700A21504624
:100E000004F02EF8C0B20A2104F02AF830316170E3
:100E10006421504604F024F83030A0700023E370C1
:100E2000210035AB180007F037FA54462894B6E68F
:100E30000A219A46180004F013F830312FAC2170C3
:100E40000A21504604F00CF8C0B20A2104F008F858
:100E5000303161706421504604F002F83030A070E7
:100E60000023E370210035A807F016FA53462993B2
:100E70009AE635A807F03EFA35AB9C46604404225A
:100E80006D4905F04FF90A21A246200003F0E8FF62
:100E900030312FAC21700A21504603F0E1FFC0B27F
:100EA0000A2103F0DDFF303161706421504603F008
:100EB000D7FF3030A0700023E370210035AB18005D
:100EC00007F0EAF954462A9473E635A807F012FAB7
:100ED00035AB9C4660440422584905F023F90A21A9
:100EE000A246200003F0BCFF30312FAC21700A2154
:100EF000504603F0B5FFC0B20A2103F0B1FF303114
:100F000061706421504603F0ABFF3030A0700023C5
:100F1000E370210035AB180007F0BEF954462B945E
:100F20004CE635A807F0E6F935AB9C466044042250
:100F3000434905F0F7F84BE635A807F0DBF935AB88
:100F40009C46604404223F4905F0ECF84AE635A887
:100F500007F0D0F935AB9C46604404223A4905F0CD
:100F6000E1F849E635A807F0C5F935AB9C46604481
:100F70000422364905F0D6F848E6354B9B691B0636
:100F800000D4FCE235AB2C98195C314A11600200A8
:100F90001B5C3F2B02D001322C92F0E200232C93F9
:100FA0001E93ECE20120FFF70FFBF0E20220FFF7B7
:100FB0000BFBF4E20320FFF707FBF7E20420FFF747
:100FC00003FBFBE20520FFF7FFFAFFE20620FFF735
:100FD000FBFA02E30720FFF7F7FA05E30820FFF723
:100FE000F3FA09E30920FFF7EFFA0DE30A20FFF710
:100FF000EBFA11E30B20FFF7E7FA15E30C20FFF7FC
:10100000E3FA19E30F9B002B00D02FE3114BDB68B1
:101010001F93FFF7B9FA104B00221A7026E3FFF76F
:101020003FFA00210020FFF741FA0C48FFF74BFA86
:1010300024E3C046588600105C86001060860010CD
:1010400064860010688600106C86001070860010A0
:1010500000400340004005405416002078860010F0
:10106000219B012B00D819E3219CA31EDBB2012B8D
:1010700000D83DE30B9B9A460A9B1693099B159358
:10108000089B1493079B129301200021404206F015
:1010900069F94346002B01D1FFF795FBF24A022381
:1010A00011680B431360039B002B01D1FFF792FBE8
:1010B000ED4A042311680B431360002D01D1FFF7A3
:1010C00090FBE94A082311680B4313605B46002B31
:1010D00001D1FFF78DFBE44A102311680B43136025
:1010E000069B002B01D1FFF78AFBDF4A2023116802
:1010F0000B431360002E01D1FFF788FBDA4A40232F
:1011000011680B431360002F01D1FFF786FBD64A0D
:10111000802311680B431360019B002B01D1FFF763
:1011200083FBD14A80235B0011680B4313604B465D
:10113000002B01D1FFF77FFBCB4A80239B00116876
:101140000B431360049B002B01D1FFF77BFBC64AC6
:101150008023DB0011680B431360059B002B01D13A
:10116000FFF777FBC04A80231B0111680B43136014
:10117000029B002B01D1FFF773FBBB4A80235B016D
:1011800011680B43136001210B20FFF7EFF8C3B286
:10119000079301210A20FFF7E9F8C2B29046012126
:1011A0000920FFF7E3F8C2B2089201210820FFF7F7
:1011B000DDF8C7B201210720FFF7D8F8C2B20992C3
:1011C00001210620FFF7D2F8C6B201210520FFF762
:1011D000CDF8C2B20A9201210420FFF7C7F8C5B2C8
:1011E00001210320FFF7C2F8C2B20B9201210220B5
:1011F000FFF7BCF8C4B2129A079B9A4210D043453D
:1012000001D1FFF734FB179B0133DBB21793964AEA
:1012100080239B0111680B4313600D20FFF7D4F965
:10122000149A089B9A4210D0BB4201D1FFF72EFBC3
:10123000189B0133DBB218938B4A80231B02116881
:101240000B4313600F20FFF7BFF9159A099B9A42D1
:1012500010D0B34201D1FFF728FB199B0133DBB259
:101260001993814A80239B0211680B43136011205C
:10127000FFF7AAF9169A0A9B9A4210D0AB4201D105
:10128000FFF722FB1A9B0133DBB21A93764A8023C5
:101290001B0311680B4313601320FFF795F90B9B99
:1012A0009A4510D0A34201D1FFF71DFB1B9B0133D0
:1012B000DBB21B936C4A80239B0311680B431360C2
:1012C0001520FFF781F9002200211320FFF770F8A5
:1012D000012200210F20FFF76BF801210E20FFF7FC
:1012E00045F85B465A4253410340984601210D2080
:1012F000FFF73CF8019B5A42534103401C00069300
:1013000001210C20FFF732F8029B5A42534103405F
:101310009946002200210F20FFF74AF80122002100
:101320001620FFF745F801210E20FFF71FF842466F
:101330005342534103401D00039301210D20FFF749
:1013400015F866426641064001210C20FFF70EF8B1
:101350004A465342534103401C000493002200219B
:101360001620FFF725F8012200211220FFF720F8B0
:1013700001210E20FEF7FAFF2B005D425D41054082
:1013800001210D20FEF7F2FF77427741074001214E
:101390000C20FEF7EBFF6342634103401C00059302
:1013A000002200211220FFF703F801220021132060
:1013B000FEF7FEFF01210E20FEF7D8FF6B426B41C6
:1013C00003409B4601210D20FEF7D0FF7B427B416D
:1013D0000340019301210C20FEF7C8FF63426341E3
:1013E0000340029333000C9AB24203D0012E01D184
:1013F000FFF788FA0C9A9A4204D0002B02D11B4ABC
:10140000D2680C934346002B06D0209B012B01D1C0
:10141000FFF77DFA012320933C000D9BBB4203D0D4
:10142000012F01D1FFF777FA0D9BA34207D0002CC3
:1014300005D10E4BDB68249A9B1A10930D940B4B2D
:10144000DB689A460A4B109A9A4201D8FFF778FA5D
:101450001C9B002B01D0FFF773FA229B0A2B01D1B2
:10146000FFF75FFA06E0C046600F0020004005402D
:101470003F4B4C00504603F0D7FF12901391269833
:1014800003F0D2FF0022B04B03F03AFF02000B0042
:101490001298139903F0ACFF002816D0D0231B0636
:1014A000D969802252030A43DA61D9698022920302
:1014B0000A43DA61D969802252050A43DA61229B24
:1014C0000133DBB22293534626930E9BA34203D0F3
:1014D000012C01D1FFF77DFA0E9BA34207D0002C0F
:1014E00005D19A4BDB68259A9B1A11930E94974B62
:1014F000DC68974B119A9A4201D8FFF79BFA1D9B23
:10150000002B01D0FFF796FA239B0A2B01D1FFF79E
:1015100066FA200003F088FF12901391279803F0D9
:1015200083FF0022884B03F0EBFE02000B001298B1
:10153000139903F05DFF002815D0D0231B06D9694D
:10154000802252030A43DA61D969802292030A4356
:10155000DA61D969802252050A43DA61239B01339B
:10156000DBB2239327947B4B1A68FA239B009A42A1
:1015700001DBFFF7A7FA1E9B012B00D1FDE44346D8
:10158000002B04D0744B1B78002B00D10AE5039B81
:10159000002B04D0704B1B78002B00D106E5002DEA
:1015A00004D06D4B1B78002B00D103E55B46002B6C
:1015B00004D0694B1B78002B00D1FFE4069B002B65
:1015C00004D0654B1B78002B00D1FBE4002E04D027
:1015D000614B1B78002B00D1F8E4002F04D05E4B48
:1015E0001B78002B00D1F5E4019B002B04D05A4B53
:1015F0001B78002B00D1F1E44B46002B04D0564B56
:101600001B78002B00D1EDE4049B002B04D0524B3F
:101610001B78002B00D1E9E4059B002B04D04E4B36
:101620001B78002B00D1E5E4029B002B04D04A4B31
:101630001B78002B00D1E1E4444BD86803F0F4FEA2
:10164000129013911F9803F0EFFE0022434B03F01A
:1016500057FE02000B001298139903F0D1FE0028E8
:1016600004D03D4B1B78012B00D1CBE40F9B002B0A
:1016700000D1FFE41C9B002B00D0D0E41D9B002B6D
:1016800000D1F7E4179B002B00D1E9E4219B002B4C
:1016900000D1E5E4013BDBB22193E1E42D9B002B7B
:1016A00000D1E1E4FEF7FCFE00210020FEF7FEFE83
:1016B0003098FEF708FF00210120FEF7F7FE319871
:1016C000FEF701FF219C002C08D107210020FEF726
:1016D000EDFE3498FEF7F7FE2D94C5E404210120B9
:1016E000FEF7E4FE3498FEF7EEFE00232D93BBE4F4
:1016F0002D9B002B00D1BDE4FEF7D2FE002100207F
:10170000FEF7D4FE329B12931800FEF7DCFE002198
:101710000120FEF7CBFE3398FEF7D5FE022C09D14F
:101720000B210020FEF7C2FE3498FEF7CCFE00230A
:101730002D939FE406210120FEF7B8FE3498FEF7B2
:10174000C2FE00232D9395E480842E410040054085
:101750003F4B4C00381600205416002080843E4138
:10176000F0B5CE46474680B585B080460F001600DE
:1017700002AC3B222270DDB2124B9946012300934A
:1017800022002900484606F057FD00230093063347
:1017900022002900484606F05BFD22781202637899
:1017A000134342461380A2781202E37813433B802E
:1017B0002279120263791343338005B0C0BCB94665
:1017C000B046F0BD180C002070B584B0284A1368EC
:1017D00001331360274B00201856274B1B680293D8
:1017E0000023019300930022002100F02FF9234AE7
:1017F0001368591C1160642B01DC04B070BD130028
:1018000000221A601E4C1F4E682322001E49300021
:10181000FFF7A6FF0023E05E03F00AFE00221B4B49
:1018200003F095FD04000D000023F05E03F000FEC0
:101830000022164B03F08BFD22002B0003F040FE2C
:10184000134A144B03F083FD03F00AFEC001B421D8
:1018500003F0DEFA074B18700F4B1B78032B03D0F5
:1018600001330D4A1370C8E70B4B00221A70C4E70E
:101870003816002050160020600F0020241600208B
:101880004C160020481600204A1600200000103F89
:10189000F8C1631ADCA54C4053160020004870477D
:1018A0003087001000487047448700100048704798
:1018B0000C870010F0B589B0002814D0032824D07C
:1018C00059D880002D4BC558280006F013FD20285C
:1018D00000D92020002398420DD9EC5C01335A0036
:1018E00027498C52F7E7254B196825480222023018
:1018F00004F018FC01200130400080B2C0239B009E
:1019000003431F48038009B0F0BD1E4B002B0BD0D2
:101910001021684600E000BF84466346102B01D9C1
:1019200010239C46002507E0174B0093174B0193AB
:1019300008239C46F1E70135654519D20022012AAA
:10194000F9D804AC124B2100C1CBC1C11B680B609C
:101950006B46595D930019410F2319406B009B1A88
:101960000133074E5B00645C0236F4520132E6E755
:1019700063465800BFE70020C5E7C0462C0B002097
:10198000780D0020000000000123456789ABCDEFF2
:10199000DC860010F0B589B0070001910292039334
:1019A0000EAB00269E570FAB00255D57002005F0BB
:1019B000BBFE002801D109B0F0BD05AC0B2200210F
:1019C000200004F0A9FB277001996170029AA270AF
:1019D00026716571039BE3700B2204AB9C46624445
:1019E000109B13701B0A5370109B1B0C9370109B61
:1019F0001B0ED3700B2322000421002005F0BCFE37
:101A0000D9E70000024BFA2292001A607047C046E4
:101A10005C0F0020014BFA221A6070475C0F002017
:101A2000014B024A1A6070475C0F0020C409000095
:101A300010B505F03FF9002804D0FA229200024BBD
:101A40001A6010BDFA22FAE75C0F0020F0B589B0E9
:101A50000590069116001C000EAB00255D570FABDC
:101A60000027DF5701F084FA00290CDB11D0FA229D
:101A70009200002303F032FA164B1B68C01A0928A3
:101A80000CD809B0F0BD144B144A3F21144802F0A1
:101A900039F8FA21890003F0E3F9EDE70A330D4A3A
:101AA000136006F0FBF9079005F00CF9002802D04E
:101AB000079B002B0AD1109B0293019500943B00D9
:101AC000320006990598FFF765FFDAE705F002F99D
:101AD000D7E7C0462016002034880010B4880010D4
:101AE00050880010704700207047000010B502A811
:101AF0000088022A00D010BD0129FCD10028FAD0AC
:101B00001B789B0706D5074B00221A60012006F0C0
:101B1000B7F9F0E7002006F0B3F9024BFA22920081
:101B20001A60E8E75C0F002010B58300084A94466D
:101B300063441C6840226240C02414408022520149
:101B400013431C60C000034B9C466044416010BDC1
:101B500004C001400040014080000B4B9C466044A3
:101B600000290DD00823002A0CD004221343026858
:101B700053400C22134080225201104303607047EF
:101B80000023F0E70022F1E704C0014010B5012373
:101B90008340D0221206936293610521FFF7C4FFB0
:101BA00010BD0000034B1B6802201840431E9841E3
:101BB000C0B2704700C00640EFF3108072B6034B0E
:101BC0001B68002BFBD0BFF35F8F70472C0100D048
:101BD000BFF35F8F024B00221A6080F310887047BA
:101BE0002C0100D0F8B506000C001500FFF7E4FF4B
:101BF000E308F718F15C07222240012393400B42CF
:101C000005D1DBB20B433B70FFF7E2FFF8BD2100CB
:101C1000280002F011F8F0B583B00600019114001D
:101C20001F00FFF7C9FF00E00134BC420CD8E308F5
:101C3000F518F35C0721214001228A401A42F3D1B2
:101C4000D2B21A432A7001E001246442FFF7C0FFB8
:101C5000002C02DB200003B0F0BD019B002BF9D06B
:101C6000089801F0E9FF0000002307E0054A9A18F0
:101C70009200BFF35F8F0021116001331F2BF5D954
:101C80007047C04640000034054A1078431CDBB260
:101C90001370172B02D9130010221A707047C04618
:101CA0003C0B002000B583B00100044B00931F23C0
:101CB00018220348FFF7AFFF03B000BDCC88001027
:101CC0006C0F0020074B9B68103080001950BFF349
:101CD0005F8FBFF35F8F044B0021196082F3108880
:101CE0007047C04600ED00E0240100D010B5091A8D
:101CF000081F0A4B9C466144094A914208D8C30711
:101D000006D440104005400D064B184380B210BD6C
:101D1000054B064AA321064801F0F4FEFC0700002B
:101D2000FE0F000000E0FFFFE8880010588B001055
:101D30001889001010B5091A04394C08090B08D18C
:101D40004905490D064A11430180064B2343438050
:101D500010BD054B054AAB21054801F0D3FEC04636
:101D600000F0FFFF00F8FFFF748900102C8B0010BB
:101D70001889001001238340034A10681840431E4D
:101D80009841C0B27047C04600E100E0002904D08D
:101D9000034B1860034B18607047034B1860FBE758
:101DA00080E200E000E100E080E100E010B5012306
:101DB00083401800FFF7EAFF10BD0000024B9B684C
:101DC00010308000C058704700ED00E070B504008E
:101DD0000D00EFF3108672B60C4B1B68002BFBD086
:101DE000BFF35F8F2000FFF7E9FF094B984201D056
:101DF000A84205D1320029002000FFF763FF70BD23
:101E0000044B054A8621054801F07CFE240100D0E0
:101E1000CD010010848900108C8B001018890010EF
:101E2000F0B5DE4657464E464546E0B589B0814698
:101E300001911500EFF3108A72B6744B1B68002BEA
:101E4000FBD0BFF35F8F724B0027DF57002F40DBC3
:101E50007C00E419A4006F4824180622A2566C4B9B
:101E60001A706D4B9A684B4610339B00D3589846B6
:101E70001E001B1A2F2B38D9684B98452FD105AE61
:101E8000674B33807B009B46D8198000614B984696
:101E9000404402306349FFF729FF7080624BB380F2
:101EA000FF23B371F571019B07935F44BF00474463
:101EB0000ECE0EC701231C43A0465246414648465B
:101EC000FFF700FF09B0F0BCBB46B246A946A046EA
:101ED000F0BD564B564AD721564801F013FE564BDB
:101EE000534ADE21534801F00DFEC04340440C210B
:101EF00002F0B6FF002912D101239E43B3463300FE
:101F00000026DA79AA4211D90621595600290CDB9C
:101F10004A00521892001E003E4B9B18F1E7474BB7
:101F2000434AEA21434801F0EDFD1E00002E3AD05D
:101F300005AB434A1A80813A5A800623F35602932E
:101F4000002B17DA3F4805AB9B469880029A9A719E
:101F5000DD71019A0792301D2100FFF7C7FEB080A6
:101F6000B7717B00DB199B002A4FFF185B4607CB3C
:101F700007C7A2E77800C0198000264BC0180430BC
:101F8000321DB388D90A1C2907D15B0559150231C6
:101F900049005118FFF7AAFED5E72B4B2B4AB12178
:101FA000244801F0AFFD05AE1D4B33807B0002934A
:101FB000D8198000174A9046020042440392901CB0
:101FC0001849FFF793FE7080039A101D5946FFF7DA
:101FD0008DFEB0801E4B5A464146521A5241534321
:101FE0001B0DB371F571019A0792029B9C466744E1
:101FF000BF0047440ECE0EC7114B5A461380813B9B
:10200000538001231C43A04657E7C046240100D05B
:1020100052160020400B002000ED00E0CD01001022
:1020200000A1FFFF700B002001BDFFFFBC89001065
:10203000748B001018890010E48900100C8A0010BD
:102040000148000001BD0000808A0010648B001070
:10205000AAAA0000F0B5CE46474680B583B0060078
:102060000D00EFF3108872B6564B1B68002BFBD0A7
:10207000BFF35F8F544B9A6834001034A300D758D5
:10208000524B9F4207D0AF4200D198E00197504B8E
:10209000FB1A2F2B09D9424639003000FFF712FEF8
:1020A00003B0C0BCB946B046F0BD3000FFF762FED9
:1020B000814600213000FFF779FEBFF35F8FEFF319
:1020C0000581002901D08C4211D10123019C9C4340
:1020D0000022A368AB4212D00622A256002A0DDBD2
:1020E00053009B189B002200394CE418F1E736217D
:1020F000384B394AFF31394801F004FD2200AB4228
:1021000056D106256557002D38DB6B005B199A0008
:102110002F4B9B189A68A260DA79E27106229A56D0
:10212000A2719B795BB2002B0FDA2D48A0806B0067
:102130005B199B00264AD3182A4A117899711570A9
:1021400049463000FFF732FEA5E7201D6B005B1902
:102150009B001F4A9B181A1D9B88D90A1C2907D16E
:102160005B055B15023359005118FFF7BFFDDDE732
:102170001D4B1E4AB121194801F0C4FC002912D19F
:10218000002A0ED0FF239371194B9380154A1378C0
:10219000A371184B0E49641A644163431B0D1370FD
:1021A000CEE70A4FF2E7201D1349FFF7C3FDC7E74B
:1021B0006A21124B084AFF31084801F0A3FC034F83
:1021C00069E7C046240100D000ED00E0CD01001019
:1021D000400B0020988A0010448B001018890010D2
:1021E00001BD000052160020808A0010648B001090
:1021F00001BDFFFFAAAA00007A0B0020CC8A0010C4
:1022000070B5012101432E4BCB1A2F2B28D8EFF3A9
:102210000583002B2BD0EFF3108C72B6294A12687D
:10222000002AFBD0BFF35F8F274A0400244D641BB4
:1022300064416243120D54B2244A92689B00D25802
:102240008A421BD00022032A32D853009B189B00DD
:102250001B49CB189B795BB2A3421FD00132F2E736
:10226000C7211B4B1B4A49001B4801F04BFC922124
:102270001A4B184AFF31184801F044FC134A92687F
:102280001749D150174B1A7882711C70BFF35F8FBA
:102290000C4B00221A608CF3108870BD0D005300A7
:1022A000991889006918FF268E710F4A8A80E9E71C
:1022B000D1210E4B074A4900074801F023FCC046D4
:1022C000400B0020240100D0AAAA000000ED00E08D
:1022D000D48A0010108B001018890010FC8A00109E
:1022E000CD0100105216002001BDFFFF088B001029
:1022F0000022044B02E0044902C30132072AFAD942
:102300007047C04600E400E080808080024B9C461D
:1023100061448900016070474000003410B504003A
:10232000FFF7B2FC01002000FFF7F0FFFF2323714D
:10233000BFF35F8F10BD10B50400FFF7A5FC0100CF
:102340002000FFF7E3FFFF23237100236371BFF336
:102350005F8F10BD034B9C46614489000160BFF351
:102360005F8F70474000003410B504000120FFF774
:1023700099FC01002000FFF7EDFF10BD70B50500CE
:102380000C00080000F0F4FE0949200000F034FEC3
:10239000FFF77AFC074B9C466044800068602C7510
:1023A000D0231B061B786B75A400034BE55070BD52
:1023B000C126001040000034081400200A4B1A689F
:1023C000EFF3108172B61368002BFCD0BFF35F8F60
:1023D000054B1B68BFF35F8F00221A6081F31088E2
:1023E00040BF0020002170471C16002010B50029B6
:1023F00022D003681B7B99421ED8174B9C46614430
:10240000090183689C4661440C684968002A19D018
:1024100003681B7B9A4215D883680F488446624440
:1024200012019A1810685368020001208B4201D8EB
:102430000ED00020C0B210BD084B094A3C2109480B
:1024400001F060FB054B064A3C21064801F05AFBAF
:10245000A242EFD8EDE7C046FFFFFF0FF48C00105B
:10246000748F0010A08C001010B500291ED0037BC3
:1024700099421BD84B005B18033B0468A446634495
:10248000002919D0002A1DD0914221D0002A25D040
:10249000047BA24222D80468500080180338201818
:1024A0008170197800291FD11A7010BD104B114A84
:1024B0006821114801F026FB104B114A6F310E487C
:1024C00001F020FB0F4B0E4A70210B4801F01AFB64
:1024D0000D4B0B4A7121084801F014FB044B054ACF
:1024E0006821054801F00EFB41701A70DDE7C04617
:1024F000188D0010E08F0010348D00109C8D00109E
:10250000BC8F0010A88D0010B48D001070B50600AF
:102510000D001400002914D0002A14D080687368BC
:102520009847002806D0220029003000FFF79CFFC2
:10253000280007E02A0021003000FFF795FF200067
:1025400000E0100070BD0800FCE70000F0B583B0AB
:102550000500009201930AAB1C780BAB1F78002C8E
:1025600026D003685A7B944207D10123002B19D14E
:10257000002C3BD1200003B0F0BD002C0CD01A7B06
:10258000944209D81A6863001B19033BD3189B783F
:10259000002BEBD00123E9E73E4B3F4A68213F483F
:1025A00001F0B0FA3E4B3F4A67213F4801F0AAFADA
:1025B00003689C7B002CDBD012D01A7B94420FD88E
:1025C00062001219033A19688C4662445178997373
:1025D000002900D1D9730023937053701370C7E79B
:1025E0002C4B2D4A68212D4801F08CFA002C3AD052
:1025F0002B681B7B9C4236D82C4BE3181B01AA6826
:1026000094466344009A1A60019A5A60089A9A6044
:10261000099ADA602E68002C2BD030D0337B9C4294
:102620002DD863001B19033B326894466344002293
:102630009A705A701A70717B22003000FFF766FFA3
:102640007073844200D095E7287D009A019B00F0CA
:102650001BFD061E01D0002F17D00C9B002B00D1B4
:1026600088E71E7086E7124B124A3C210E4801F0A3
:1026700049FA114B114AA521084801F043FA054BCC
:10268000054A6821054801F03DFA2868210000F05C
:1026900033FFE2E7188D0010E08F0010348D00103A
:1026A000CC8D0010EC8F0010A08C0010FFFFFF0FEE
:1026B000F48C0010748F00109C8C0010D08F0010D0
:1026C000F0B5DE4657464E464546E0B58BB009901C
:1026D000002308938200B54BD658370052E0B44B24
:1026E000B44A3F21B44801F00DFAB44BB44A3C213E
:1026F000B44801F007FA002901D1002869D100216E
:10270000404600F0EFFEA04219D12A686B6806929D
:102710000793AB689846EB689A464346002B14D063
:10272000002C18D03B681B7B9C4214D8631EFA68AF
:10273000D35C08931B0218433861002015E0A24BBC
:10274000A24A8E219F4801F0DDF9A14B9F4A9221B8
:102750009C4801F0D7F9994B9E4A4121994801F0D4
:10276000D1F900239A46984600207B68BFF35F8F1B
:1027700000221A6086F310884346002B32D10028CD
:1027800000D10CE100F0F4FB02000B1EA7DB0020DF
:102790000021069007917868EFF3108672B6016801
:1027A0000029FCD0BFF35F8F396888464C7B002C32
:1027B000D7D09AD0097B8C4297D8874965182D01CC
:1027C000B9688C46654428686968801A994100296F
:1027D00091DD2A686B68099800F056FC00239A4640
:1027E0009846C2E7089B1B022343994651461800AE
:1027F000C04705000E007A68EFF3108B72B61368BD
:1028000059424B41D9B2002BF9D1BFF35F8F002E53
:102810001EDB002E46DD3B69002B47D04B456DD1BA
:1028200000F0A6FB02000B1E6EDB52197341002B59
:1028300070DB002B72DB00210491013103910294C3
:1028400051460191414600913800FFF77FFE4CE070
:102850003B69002BDDD04B4514D1069A079B521BD8
:10286000B341002B14DB002B16DB00210491013156
:102870000391029451460191414600913800FFF7BF
:1028800065FE32E0554B514AA1214E4801F03AF91C
:1028900001225242524BE6E7454B464A3F21464809
:1028A00001F030F9002E01D1002DB4D13B68002C8D
:1028B00050D05A7B944237D1012100294AD1DA7B8A
:1028C000002A4DD19A7B002A03D1DA7B002A5AD103
:1028D0009C73DC73002C5CD03B681B7B9C4258D8FB
:1028E000FA68013C135D0133135500233B617A689C
:1028F000BFF35F8F13608BF3108843E7374B334A86
:10290000A421304801F0FEF8294B2A4A3F212A48E9
:1029100001F0F8F801225242314B8AE7244B254A54
:102920003F21254801F0EEF8002C0DD01A7B94428F
:102930000AD862001219033A1868844662449278F1
:10294000002ABAD00121B8E7264B274A6821274838
:1029500001F0D8F8264B274AF621244801F0D2F896
:10296000002A0AD0197B8A4207D851008A18033AF4
:1029700019688C4662445470A4E71A4B1A4A6821BD
:102980001A4801F0BFF81C4B1A4AFB21174801F006
:10299000B9F80A4B0F4A41210A4801F0B3F80BB0CD
:1029A000F0BCBB46B246A946A046F0BD08140020C4
:1029B00034880010408F001050880010F48C0010F4
:1029C000748F0010A08C0010F48D0010588F001030
:1029D0000C8E0010988F0010FFFFFF0F188E001054
:1029E000FFFFFF7F188D0010E08F0010348D001066
:1029F000548E0010AC8F0010788E001010B50C4B68
:102A00005B68002B04D00A210A48FFF77FFC10BD49
:102A1000074C2300084A1021206800F073FC0320B3
:102A200000F09AFA03212000FFF7A8FCEBE7C0466C
:102A3000880B00201C160020ED23001010B5064B5B
:102A40005B68002B01D0044810BD044B044A5E2192
:102A5000044801F057F8C046880B00208C8E001007
:102A6000808F0010A08C0010F0B5DE4657464E4611
:102A70004546E0B58BB0804616001F00149B9A4671
:102A8000159B994616AB1B789B461F2302AA9446BA
:102A9000634400221A702BE0002809D042461268D5
:102AA000127B904204D8421E4146C9688A5C41E0CC
:102AB000404B414A4121414801F024F807984CE03D
:102AC000361BAF41002F07DB002F11DA3C4B3D4A8C
:102AD0003F213D4801F016F8012676423B4FF3E7CF
:102AE000374B384A3F21384801F00CF8002F4FDBB4
:102AF00043465A68EFF3108472B6136859424B414B
:102B0000D9B20791002BF8D1BFF35F8F1F3302AA10
:102B10009446634404930023039302934B4601932A
:102B20005346009332003B004046FFF70FFD031E63
:102B3000B2D1020041464968BFF35F8F00250D60A6
:102B400084F31088002B29D01F2302A98C466344EC
:102B50001B78002BB2D112021043002B20D05B4611
:102B6000002B1DD04946D04704000D0003000B4345
:102B70001DD00029A4DB00F0FBF906000F1EAFDB1F
:102B800036196F41002FB1DA012676420F4FADE7BB
:102B90000B4B0C4A3F210C4800F0B4FF012040428F
:102BA0000BB0F0BCBB46B246A946A046F0BD0798A4
:102BB000F6E7C046F48C0010988F0010A08C00102F
:102BC00034880010408F001050880010FFFFFF7FF6
:102BD000F8B50400002900D162E04268EFF31085E7
:102BE00072B6136858424341D8B2002BF9D1BFF3F3
:102BF0005F8FCBB22268567BB3421BD101200028E5
:102C000048D0206988422BD0090AC9B2002B2ED0A7
:102C10002068007B83422AD8581EE668305C8842D0
:102C20002BD000206368BFF35F8F00221A6085F30A
:102C30001088F8BD002B0DD0167BB3420AD85E0079
:102C4000F618033E1768BC466644B678002ED6D008
:102C50000120D4E7134B144A6821144800F052FFB6
:102C60002C21134B134AFF31134800F04BFF134B39
:102C7000134A4121104800F045FF1900100000F0F0
:102C80003BFC0028CED199210E4B0A4A49000A4844
:102C900000F038FF23698B42C4D100232361C1E7D0
:102CA0000020C6E7188D0010E08F0010348D001052
:102CB000B08E0010288F0010A08C0010F48C001033
:102CC000988F0010D48E0010F0B587B006000F006A
:102CD000EFF30583002B1FD106246442E517A419E6
:102CE0007D418D4202D803D1844201D900240025C0
:102CF000002D14DB0494059500F03AF902000B1E38
:102D000013DBA41A9D41002D17DC14D030003900CC
:102D100000F03AF907B0F0BD234800F08DFF234BD7
:102D2000234A3F21234800F0EDFE204B204A3F215B
:102D3000204800F0E7FE002CE8D0FFF77FFE0023DC
:102D4000029301931C4B0093049A059BFFF78CFEA2
:102D5000002818DADAE7002300E00023002BD5D1A1
:102D6000164B1A68EFF3108172B61368002BFCD073
:102D7000BFF35F8F114B1B68BFF35F8F00221A6098
:102D800081F3108820BF0499059A0D4B5B6A9A4223
:102D9000E3D80B48806A884203D29A42DBD00123F1
:102DA000DCE70123DAE7C046D88E00103488001033
:102DB000408F001050880010BD2300101C1600200A
:102DC0000040054070B504000D0000F0D1F802008D
:102DD0000B1E0ADB200029008018594100290ADB5C
:102DE00000290CDBFFF770FF70BD084B084A3F213C
:102DF000084800F087FE012040420749F0E7034BF6
:102E0000034A3F21034800F07DFEC046348800108D
:102E1000408F001050880010FFFFFF7F70B584B016
:102E200005000C00EFF30583002B1ED1FFF706FE13
:102E3000002302930193224B00932A002300FFF703
:102E400013FE061E23DD20BFFFF7F8FD3100FFF75C
:102E5000BFFE1C4B5B6A9C422DD81A4A926AAA425A
:102E60002CD29C4225D0012026E0164B5B6A994269
:102E700009D8144A926A824207D2994201D00120AD
:102E80001AE0002018E0002016E0012014E00D4BAD
:102E90005B6A9C4209D80B4A926AAA4207D29C42BA
:102EA00001D0012008E0002006E0002004E001201D
:102EB00002E0002000E0002004B070BD0120FBE72C
:102EC000BD2300100040054070B5EFF305801038B9
:102ED000EFF3108C72B61A4B1B68002BFBD0BFF3BC
:102EE0005F8F01221300834016494B6316490B6024
:102EF000164909780C00C440224214D0114A546A81
:102F00008200134D5259944206D38200114C12593B
:102F100099430E4B197007E00A4A031D9B0099580C
:102F20009950002200E00022BFF35F8F044B002184
:102F300019608CF31088002A00D0904770BDC046FD
:102F4000280100D0004005403C7005405516002087
:102F5000281600204C0F002010B50100024A03483B
:102F6000FEF740FE10BDC046049000105116002030
:102F7000044B5B6A034A906A1900536A9942F9D17B
:102F80007047C04600400540084B5B6A01E0074BB4
:102F90005B6A8B42FBD301E0044B5B6A8B4203D13B
:102FA000024B9B6A8342F7D37047C04600400540FE
:102FB00070B504000D00FFF7DBFF02000B002000DE
:102FC0002900801859418B4202D804D1824202D98B
:102FD00001204042C117002902DBFFF7D5FF70BD79
:102FE000024B034A3F21034800F08CFD3488001057
:102FF000C89000105088001070B504000D00EFF369
:10300000108672B61B4B1B68002BFBD0BFF35F8F83
:10301000002D1CD02000FEF7D1FE174B83420BD0B1
:1030200019002000FEF7D2FE01212000FEF7BEFEAF
:103030000123A340114A1360A400114BE550BFF3D4
:103040005F8F0C4B00221A6086F3108870BDA200BF
:103050000B4B0021D1500122A2400A490B78934327
:103060000B7005492000FEF7F5FF00212000FEF758
:103070009DFEE4E7280100D0C92E0010386005400D
:103080004C0F002055160020F0B5DE4600B584B088
:103090000400150001921E000293FFF769FF0395DB
:1030A0008E4202D84ED185424CD9EFF3108B72B6C6
:1030B000274B1B68002BFBD0BFF35F8F254A177887
:1030C0000125A540EBB23B431370234B5D63221DEA
:1030D00092000199D150A2002049029850501B6AD9
:1030E0002B4212D11C4B1B6C2B4208D00020BFF38B
:1030F0005F8F174B00221A608BF3108823E0184B68
:10310000184AC521184800F0FDFCFFF731FF8E4238
:1031100014D802D1039B834210D80E4B1B78BB42BC
:103120000ED00D4B1D625D631F2004400123A340A0
:103130000E4A1360074B1F701E38D8E70020D6E7F1
:103140000120D4E7012004B080BCBB46F0BDC046DE
:10315000280100D055160020004005402816002008
:1031600028900010AC9000104C90001080E200E01D
:10317000EFF3108C72B60B4B1B68002BFBD0BFF328
:103180005F8F01238340084A136208490A789A43F3
:103190000A70BFF35F8F034B00221A608CF3108814
:1031A0007047C046280100D0004005405516002059
:1031B00010B500291ED0037B99421BD84B005B1829
:1031C000033B0468A4466344002919D0002A1DD09B
:1031D000914221D0002A25D0047BA24222D8046843
:1031E00050008018033820188170197800291FD1E9
:1031F0001A7010BD104B114A6821114800F082FC72
:10320000104B114A6F310E4800F07CFC0F4B0E4AF8
:1032100070210B4800F076FC0D4B0B4A71210848D9
:1032200000F070FC044B054A6821054800F06AFC78
:1032300041701A70DDE7C046188D0010E89100104B
:10324000348D00109C8D0010D4910010A88D0010BA
:10325000B48D001070B506000D001400002914D0C4
:10326000002A14D0806873689847002806D022008E
:1032700029003000FFF79CFF280007E02A0021000A
:103280003000FFF795FF200000E0100070BD08003F
:10329000FCE7000010B50023437301338373037B05
:1032A000C3730123027B9A4214D9002B0CD0027BFA
:1032B000934209D85A00D218033A01688C466244F6
:1032C0000133DBB25370EDE70B4B0C4A68210C481D
:1032D00000F018FC002A09D0924207D80168530078
:1032E0009A18033A8A180023537010BD024B034A00
:1032F0006821034800F006FC188D0010E8910010CA
:10330000348D001010B5017342608360FFF7C2FF77
:1033100010BD000070B50400081E00D170BD00296A
:1033200034D0237B994231D84B005B18033B226891
:10333000944663445A78002AF0D02DD0237B9A42D9
:103340002AD853009B18033B21688C4663445D7860
:1033500000215970002825D0237B984222D84300B1
:103360001B18033B21688C466344002159700100FF
:103370002000FFF76FFF060029002000FFF7CAFFBB
:10338000020031002000FFF765FFC7E7084B094A3C
:103390006821094800F0B6FB054B064A682106483B
:1033A00000F0B0FB024B034A6821034800F0AAFB7F
:1033B000188D0010E8910010348D001070B50500D4
:1033C0000C00160000292FD034D0037B994231D84D
:1033D0004B005B18033B0268944663445A78002A0A
:1033E0002ED19A78002A31D11978FFF793FF030084
:1033F000002E0AD0EA7B002A2ED1AA7B002A03D114
:10340000EA7B002A3BD1AC73EC73002B3DD1002C3E
:103410004FD02B7B9C424CD82B6861000C19033C8D
:103420001C190023637070BD254B264A382126489D
:1034300000F068FB254B264A6821264800F062FB15
:10344000254B204A3A21204800F05CFB234B1D4AC3
:103450003B211D4800F056FB002A0AD0297B8A42F6
:1034600007D851008A18033A29688C466244547080
:10347000C3E7164B164A6821164800F043FB184B69
:10348000104A4221104800F03DFB002B0BD02A7B54
:10349000934208D843001B18033B2A6894466344B0
:1034A00000229A70B3E7094B094A6821094800F0E5
:1034B00029FB064B064A6821064800F023FBC0465C
:1034C000E0900010C0910010E8900010188D0010DE
:1034D000E8910010348D00103C91001064910010B0
:1034E000788E001070B504000A00457B2900FFF7B4
:1034F00065FF6073280070BD70B50400002967D0B7
:10350000437B8B420ED0002911D0037B99420ED809
:103510004B005B18033B0268D0188378002B0CD15A
:10352000002056E00121FFF7DDFF012051E0294B8B
:10353000294A6821294800F0E5FA002B20D0227B97
:1035400093421DD85A00D318033B2268D21825682D
:10355000EB5C8B421AD0002B1BD0227B934218D8F5
:103560005A00D318033B2268D21853788B4216D0E6
:10357000002BF0D11A4B1B4A6B211B4800F0C2FAFA
:10358000144B154A6821154800F0BCFA43781370B3
:1035900007E0104B104A6821104800F0B3FA437856
:1035A000537000238370437001222000FFF706FF51
:1035B0000200617B814205D02000FFF74BFE607363
:1035C000012006E0094B074A7121074800F09AFAEA
:1035D000002070BD188D0010E8910010348D00108F
:1035E000088B0010A8910010E8900010889100103E
:1035F00070B5046BE30701D4200070BD02003032C7
:10360000C0239B0113430A4A1A60456A826AAD01CE
:10361000AD18AD02062000F0BDF9064901F020FC0E
:103620000100280001F01CFC0021FFF7C1FCE3E7CA
:10363000010300004E0E000070B504000E001500DE
:10364000FFF7D6FF22002C32E16A4E40354080233E
:103650005B0113431D60206370BD000070B5050061
:103660000C00062000F096F9C000210001F0F8FBE4
:10367000C60908D00E4B9E4216D87F231840013051
:103680003400460800E001246C62AE620022002192
:103690002800FFF7D1FF062000F07CF98000A1018F
:1036A000891901F0DDFB70BD0026024CECE7C04635
:1036B000FEFF0000FFFF000010B505394901013A87
:1036C000D2001143002B09D002220A43012B07D05C
:1036D000002111436E22FFF7AFFF10BD0022F4E777
:1036E0000421F6E7002909D00A22064B9C466044D3
:1036F000434258414000044BC2527047802252005E
:10370000F3E7C0460080FCBF3C16002070B5050002
:103710000C00062000F03EF9061E27D0164B9D42F5
:1037200026D08022D203154B1A60154B1A60154B18
:103730009B6811009943FAD100212800FFF7D2FFBE
:1037400021002800FFF78AFF06000023012208213C
:103750002800FFF7B1FF2A002C3280239B0113437E
:1037600010221A60084B2B630323AB64300070BD3A
:1037700080221204D7E7C0460080034000E00040EA
:1037800000F0004000C0004001030000F8B5DE4634
:1037900057464E464546E0B505000F0092460A9A48
:1037A000934250D31A0E91461E020A9A002330000B
:1037B000494601F093FB80466C006419A400304B2D
:1037C0009C4664446368834200D260602B1FDBB276
:1037D0009B46012B3DD9C0239B012343802212012C
:1037E0001A60AB00274A9958002907D0506901F0A8
:1037F00037FB431C5800C0180338FDD253465A010A
:1038000023685A40E0231A4080235B0123431A6057
:103810005A46012A28D980239B0123438022120182
:103820001A6043466360424600233000494601F077
:1038300055FBAD00134B58510120F0BCBB46B246BE
:10384000A946A046F8BD104B104A3321104800F09D
:1038500059F9012FBFD1C0239B01234303221A60D2
:10386000A368DB07FCD5C9E72168794003220A4039
:103870001A60A2680123BB401342FAD0CBE7C046CE
:1038800000800040700F0020F4910010689200103A
:103890000892001030B583B00C2000F011F9FEF74B
:1038A00081F900280DD0002304E099002D4A2E480C
:1038B00088500133092BF8D92A4B2C4A5A6203B09D
:1038C00030BD2B4B00229A6700F002F9294B0122F0
:1038D0001A60274B5B6C012BFBD1274B03221A602C
:1038E000234B9B6B012BFBD1013300930433234A01
:1038F0000121234800F054F805230093214A0121B7
:10390000214800F04DF8214B0093002202210420B1
:10391000FFF73CFF1E4D00952B00002201210520E2
:10392000FFF734FF104C00942300002200210720F1
:10393000FFF72CFF00942300002200210820FFF74E
:1039400025FF0A4B00932300002200210920FFF7E6
:103950001DFF00952B00002200210620FFF716FF17
:10396000ADE7C046700F0020006CDC021BB7000002
:10397000008000403CB0004030B00040002F68594B
:1039800000800240008C864700C00240001BB70048
:10399000405973078000014BC0587047700F0020DA
:1039A000F0B5C64600B504000E0017001D003748EC
:1039B00001F056FA8046364BFA18364B9A4239D8FF
:1039C0000100380001F04CFA0200103A98235B0025
:1039D0009A4235D86B1E062B38D8069B013B062B26
:1039E00034D83F09474537D32D04069B1A031543A6
:1039F0002368002B36DB284B9C4244D080225201A6
:103A0000264B1A60264B1A60264B9B68110099437F
:103A1000FAD12660A060231DC02292011A432123FF
:103A200013602368002BFCDAE5600823136080BC78
:103A3000B846F0BD1C4B1D4A11211D4800F062F82C
:103A40001C4B1A4A19211A4800F05CF81A4B174A05
:103A50001C21174800F056F8184B144A232114482B
:103A600000F050F822683F231340B342C3D1A3684B
:103A70001B051B0D8342BED1E368EE22D202134028
:103A8000AB42B8D1D3E780229201B9E7001BB7005F
:103A900080E84BD380F8A93200C0024000E000402B
:103AA00000F0004000C0004078920010B893001071
:103AB000D892001034930010509300109C93001083
:103AC00080239B000343014AD36270470080054076
:103AD000064BAA2212011A602F22DA60044B054A13
:103AE0001A60024B5B68002BFBDA70470040024013
:103AF0000060024000B0FA0000BEFDE710B5FFF71D
:103B0000FBFF000010B582B00C001900002A0CD099
:103B1000084B002A0BD001920093230002000648B4
:103B200002F058FC0120FFF7E7FF044BF1E7034ADE
:103B3000F1E7C046C4930010D4930010D093001056
:103B400070B52B4B2B4A1A602B4B2C4A1A602C4B0E
:103B50009A682A4B9343FAD12A4C01E008CC984743
:103B6000294B9C42FAD3FFF795FE234B274A1A6054
:103B7000234B9B68DB43DB01FAD1254B40229A673C
:103B80005A671A67DA66234C09E0234B234A8721D8
:103B90002348FFF7B7FF2000FEF7C0FB0834214B96
:103BA0009C4209D22368002BF5D0012BEDD12000D7
:103BB000FEF7C1FB0834F2E71B4CA1681B4DC02285
:103BC000280002F0AFFAA560EFF30583002B00D0C8
:103BD00000BEFEF749F8FEF78BFBFEF70FFF144C13
:103BE00001E008CC9847134B9C42FAD370BDC04605
:103BF00000E00040BFCDFBFE00F00040FE7F3C0037
:103C000000C00040280C0020380C0020FFFFFF01FE
:103C100000F00140200C0020049400109894001043
:103C200024940010280C002000ED00E0000000208B
:103C3000380C0020400C00200FB400B583B00848B9
:103C400002F098FB049B002B07D005A901911800F6
:103C500002F0A0FB034802F08DFB0120FFF74CFFB0
:103C60008494001094940010704710B5002802D07E
:103C70000B684968984710BD0100002007E08300E9
:103C80001B185B00501C08601078C01830380A6898
:103C90001378303BDBB2092BF1D97047F0B5DE4623
:103CA00057464E464546E0B583B093461F000C9BF1
:103CB0009A460D9C0E9B99460F9B9B0703D0B846D6
:103CC0000F00060022E00192A34688464E46B94600
:103CD0000700B44207D2551C4B4641462020B84746
:103CE00001342A00F5E73D004F465C46019B9B46A8
:103CF000B1464646B84637002E0007E0013C551C49
:103D00005346185D43463900B0472A00002CF5D1D0
:103D100035003E0047460F9B9B0707D4100003B0B9
:103D2000F0BCBB46B246A946A046F0BDB0464E46E2
:103D3000B9462F005D46531BB342EFD2541C4B468D
:103D400041462020B8472200F5E7F0B5CE46474669
:103D500080B585B0944698460C9D0D9C0EAB1B78A3
:103D60009946109A119B129EB7071CD4002B0CD0B9
:103D7000F7070AD54F46002F02D10C37374204D03F
:103D8000013B02E030272F550134944201D21F2C11
:103D9000F8D9F70707D59C4205D21F2C03D8302746
:103DA0002F550134F5E7F70615D5770505D4002C16
:103DB00003D0944224D09C4222D00F9A102A2BD0B8
:103DC0000F9A102A30D00F9A022A35D01F2C02D811
:103DD00030222A5501341F2C05D84A46002A31D0FA
:103DE0002D222A55013403960293019400954346EF
:103DF0006246FFF753FF05B0C0BCB946B046F0BD00
:103E0000621E012C06D00F9F102F01D01400D4E7A2
:103E1000023CD2E71400D0E7B206D1D41F2CCFD891
:103E200078222A550134D1E7B206CCD51F2CCAD846
:103E300058222A550134C9E71F2CC7D860322A55A9
:103E40000134C3E7720703D52B222A550134CAE790
:103E50003207C8D520222A550134C4E7F0B5DE4622
:103E600057464E464546E0B593B081468A4608928D
:103E700009931CAB10CB1B789B461E9D219B98463B
:103E8000002C03D1102342469A4390468023DB0046
:103E900046461E4042461A4212D0002C22D000262E
:103EA0000EE03033D9B2771C0AAB995529002000B7
:103EB00000F0D6FFAC4216D31F2F14D83E000400EA
:103EC0002900200000F0CCFFCBB2092BE9D94246F3
:103ED000920605D54121C918C9B20A39C9B2E2E72B
:103EE0006121F8E7270043460693209B05931F9B1B
:103EF000049303955B46029301970AAB0093099BD9
:103F0000089A51464846FFF720FF13B0F0BCBB4665
:103F1000B246A946A046F0BDF0B5DE4657464E462D
:103F20004546E0B595B0089009910A920B931E9E04
:103F30001F9C20AB1B789B46229B9946239D269B6A
:103F40009A463300234303D1103352469A43924694
:103F50008023DB0057461F4052461A4219D03300D7
:103F600023432DD0002714E03033DAB27B1C98466F
:103F70000CABDA554A462B003000210000F0AEFFB2
:103F8000A5421FD819D043461F2B1BD84746060011
:103F90000C004A462B003000210000F09FFFD3B2F6
:103FA000092BE1D95246920605D54122D218D2B248
:103FB0000A3AD2B2DAE76122F8E7B145E3D901E083
:103FC0000023984653460693259B0593249B049310
:103FD0004B4603935B460293434601930CAB00931D
:103FE0000B9B0A9A09990898FFF7AFFE15B0F0BC31
:103FF000BB46B246A946A046F0BD0000F0B5DE467D
:1040000057464E464546E0B591B083468A460C92E7
:1040100098461A9C08941B9D099522002B002000AD
:10402000290001F0F2F9002800D0E5E00122524217
:10403000D74B2000290001F0E3F9002800D0DBE095
:1040400001225242D34B2000290001F0C3F900287D
:1040500000D0D1E000220023089E3000099D2900F5
:1040600001F0B8F9002800D0DDE008980999069021
:1040700007918023DB001E9A1A400D921E9A1A4265
:1040800001D106231C930698079904000D000A002D
:104090000600024300D1D1E0080D4005400DBE4CA2
:1040A000A44660440A03120BBC4B13431F0001F0EB
:1040B000BFF9BB4ABB4B01F04AF9BB4ABB4B01F00D
:1040C0001FF904000D000022B94B3000390001F047
:1040D0000EF9B84AB84B01F03AF902000B00200083
:1040E000290001F00DF901F0BBF9814601F0A0F9BA
:1040F00004000D00B14AB24B01F029F90022B14B86
:1041000001F0FEF801F0ACF90600AF4AAF4B200019
:10411000290001F01CF904000D00300001F088F9BD
:10412000AB4AAC4B01F013F902000B002000290050
:1041300001F0DDF804000D0002000B0001F007F9AA
:104140000A900B91A44BF31800261F0522002B00A8
:104150002000290001F0D4F80E900F9122002B00CE
:1041600000208021C90501F0C2F804000D000022E2
:104170009A4B0A980B9901F0CCF80022984B01F069
:10418000BFF802000B000A980B9901F0C2F8002258
:10419000944B01F0B5F802000B000A980B9901F05E
:1041A000B8F802000B002000290001F0A9F8020075
:1041B0000B000E980F9901F0ACF80022774B01F03C
:1041C0009FF832003B0001F0C2F806000F00040027
:1041D0000D00069A079B01F013F9002830D0012347
:1041E0005B429C46E14400227D4B3000390001F0E7
:1041F00090F804000D0023E01E9B04931D9B039385
:104200001C9B0293089A099B0092019343460C9AC7
:104210005146584600F0FCF811B0F0BCBB46B2461F
:10422000A946A046F0BD00230024069307940696F5
:1042300080231B069C46654407951AE70023994690
:104240004B466333C62B1ED804261E9B1B0526D562
:104250002B0023430FD0644A644B0698079901F062
:10426000C7F8002879D00022614B0698079901F021
:10427000B1F8002871D01C9B4B4506DD4A46981AC0
:10428000431E1C9303E00526DFE700231C938023D5
:10429000DB001E9A1A431E920026002399461D9B9E
:1042A0009E4264D29F1B02231E9A1A400A921E9AB3
:1042B000134202D0002E00D000274B46002B07D01F
:1042C00022002B000698079901F023F80690079129
:1042D000002200230898099901F07CF8002848D1B1
:1042E000444B1E9A1340049303971C9B0293069B16
:1042F000079C0093019443460C9A5146584600F09F
:1043000087F8002E00D187E71E9B9B063DD54525EB
:10431000441C4346020051462800D8474B46DA1752
:104320009B18534005220592013E049600220392F9
:104330000A3202924A46D00F01900093434622006F
:1043400051465846FFF78AFD0A9B002B00D163E7D0
:1043500002005F460C9E1D9D54E01C9B002B9ED0CE
:104360000D9B002B9BD01C9B013B1C9397E70027C8
:1043700099E7069C079D22002900802000068446BC
:1043800061440B0006920793AAE76525C0E7C04683
:10439000FFFFEF7FFFFFEFFF01FCFFFF0000F03F9B
:1043A000FB799F501344D33FB3C8608B288AC63F24
:1043B0000000F83F61436F63A787D23F71A379097B
:1043C0004F930A400000E03F1655B5BBB16B024069
:1043D000EF39FAFE422EE63FFF03000000002C40BA
:1043E00000002440000018402D431CEBE2361A3F29
:1043F00080842E41FFF7FFFF541C43465146202086
:10440000B8472200931BAB42F6D3100004E7C04626
:10441000F0B5DE4657464E464546E0B595B00690A7
:10442000079193469946209F1E9A1F9B10001900E2
:1044300000F0EBFF002831D101225242BF4B1E9801
:104440001F9900F0C7FF002837D101225242BC4B10
:104450001E981F9900F0D4FF00283DD10022B94BCF
:104460001E981F9900F0CCFF002850D10022B64BB7
:104470001E981F9900F0AEFF002848D100220023AB
:104480001E981F9900F0A6FF002850D100239846DF
:10449000229B5B0500D4B6E0002458E0229B0393E6
:1044A000219B029303230193A84B00934B465A464A
:1044B00007990698FFF7F2FB0EE1229B0393219BDD
:1044C000029304230193A24B00934B465A4607994B
:1044D0000698FFF7E3FBFFE00423229A1A40229993
:1044E0000B4210D09B4B002A0FD00422229903913B
:1044F00021990291019200934B465A4607990698DA
:10450000FFF7CCFBE8E0944BEDE70322EEE7229BBC
:104510000493219B039302971E9B1F9C009301947D
:104520004B465A4607990698FFF768FDD4E01E9A55
:104530001F9B0020002100F0DAFE1E901F91012336
:104540009846A5E70CAB30221A55013F01341F2CC9
:1045500001D8092FF6D81E981F9900F081FF050099
:1045600000F066FF02000B001E981F9900F0BFFECE
:10457000FA007A4B9B181A685B680A920B9300F05A
:10458000E6FE0890099100F08FFF060000F04CFF56
:1045900002000B000898099900F0A9FE0890099103
:1045A00000226F4B00F02CFF00282ED00136300087
:1045B00000F03AFF02000B000A980B9900F010FF80
:1045C000002801D001350026002F2CD1280000F052
:1045D0002FFF02000B001E981F9900F088FE0600B6
:1045E0000F0000225E4B00F0F5FE002846D10022AD
:1045F0005B4B3000390000F003FF00283ED1EB0791
:104600003CD501353AE0062746E70022544B08988E
:10461000099900F0DFFE0028D6D1002E01D0F30763
:10462000D2D50136D0E7AA461F2C11D8013F0A2166
:10463000300000F015FC651C30310CAB19550A2117
:10464000300000F00DFC092E0ED906002C00EBE71F
:1046500055461F2C0CD87B1E002F09D00CAA3021E8
:1046600011551F000134F4E72B0055461C00F0E7FC
:104670001F2C03D80CAB2E221A5501341F2C10D836
:104680000A21280000F0C4FB661C30310CAB195520
:104690000A21280000F0BCFB051E01D03400EDE724
:1046A00034000323229A1340012B1CD01F2C06D860
:1046B0004346002B32D00CAB2D221A550134229BDD
:1046C0000393219B029301940CAB00934B465A46F3
:1046D00007990698FFF7E2FA15B0F0BCBB46B24660
:1046E000A946A046F0BD219B002B13D04346002BCA
:1046F00002D10C3313420FD0219B013B21931900AF
:1047000003E00CAB30221A5501348C42CED21F2C60
:10471000F7D9CBE72199F8E72199F6E7229B5B07C8
:1047200004D50CAB2B221A550134C8E7229B1B077A
:10473000C5D50CAB20221A550134C0E7FFFFEFFFAF
:10474000FFFFEF7F65CDCD4165CDCDC1B4940010A5
:10475000B8940010AC940010A8940010A09600101B
:104760000000E03FF0B5DE4657464E464546E0B510
:1047700093B082468B4690461193002900D1EBE21C
:1047800000275546119B1878002800D1E7E225281C
:1047900009D07C1C43463A005946A847119B013377
:1047A00011932700EEE7013311930024119A117839
:1047B0000B00203BD8B2102803D88300D048C35840
:1047C0009F460B00303BDBB2092B2CD92A292FD076
:1047D00000230A93119B1A782E2A39D000239A4677
:1047E000119A1378683BD9B2122976D88B00C54943
:1047F000CB589F4601231C4301321192D6E7022376
:104800001C4301321192D1E704231C43013211925F
:10481000CCE708231C4301321192C7E710231C4345
:1048200001321192C2E711A8FFF726FA0A90D1E7E8
:104830001C9B1A1D1C921868002804DB0A90119B0F
:1048400001331193C6E702231C4343420A93F6E760
:104850008022D20014435A1C11925A781300303B24
:10486000DBB2092B04D92A2A07D000239A46B7E7DE
:1048700011A8FFF701FA8246B2E71C9B1A1D1C9291
:104880001868002804DB8246119B01331193A7E7C7
:104890000020F8E780235B002343511C11915278DC
:1048A0006C2A01D01C0018E0C0239B001C4301317E
:1048B000119112E080232343511C11915278682AF0
:1048C00001D01C0009E0C0231C430131119104E018
:1048D00080235B001C4301321192119B1878030066
:1048E000253BDAB2532A00D92CE29300864AD358EA
:1048F0009F4680239B001C4301321192EDE78023E9
:104900005B001C4301321192E7E7782809D0582850
:1049100038D06F2838D0622838D010239C430A261C
:1049200000E01026582833D0692803D0642801D02D
:104930000C229443630501D50122944369282AD0AF
:10494000642828D0A30500D59FE0E30500D5B8E092
:10495000630600D4CAE01C9A111D1C911168FF2245
:104960000A4005940A9B049353460393029600233E
:104970000193009243463A0059462800FFF76EFA29
:10498000070027E01026CDE70826CBE70226C9E777
:1049900020221443C8E7A30520D4E30550D46306BE
:1049A00066D51C9A111D1C911168FF220A40D3176D
:1049B000D118594005940A9B0493534603930296D9
:1049C000D20F0192009143463A0059462800FFF762
:1049D00045FA0700119B01331193D3E61C9BDA1DA6
:1049E00007218A43110008311C91116853689C46C5
:1049F000DB170C930D930C9A0D9B100048400E9002
:104A0000624653400F930E980F990C9A0D9B801A93
:104A100099410E900F9108940A9B07935346069371
:104A20000496002305936346DA0F029200900191E9
:104A300043463A0059462800FFF76EFA0700C9E7D7
:104A40001C9A111D1C911268D317D1185940059456
:104A50000A9B0493534603930296D20F019200914E
:104A600043463A0059462800FFF7F8F90700B1E736
:104A7000230605D51C9A111D1C910023D25E96E7D2
:104A80001C9A111D1C91126891E71C9BDA1D0721CD
:104A90008A43110008311C9108940A9B07935346DE
:104AA00006930496002305930293136854680093B9
:104AB000019443463A0059462800FFF72DFA0700B3
:104AC00088E71C9A111D1C9105940A9B0493534678
:104AD00003930296002301931368009343463A0020
:104AE00059462800FFF7BAF9070073E723060DD5EA
:104AF0001C9A111D1C9112681204120C31E7C04659
:104B0000C094001004950010509500101C9A111DBF
:104B10001C91126825E746281AD01C9B07330722F0
:104B200093431A0008321C9204940A9A0392524644
:104B300002925C681B680093019443463A00594610
:104B40002800FFF765FC0700119B0133119319E65C
:104B500020231C43E1E7672801D0472802D18023A6
:104B60001B011C43452801D0472801D120231C43A9
:104B70001C9B0733072293431A0008321C920494AB
:104B80000A9A0392524602925C681B680093019451
:104B900043463A0059462800FFF730FA0700119BB8
:104BA00001331193EEE502231A002240924623427C
:104BB0001FD001241C9B1A1D1C927A1C9146187848
:104BC00043463A005946A8475346002B16D1119B3D
:104BD000013311934F46D5E5561C434659462020D4
:104BE000B847230032005C1C9D42F5D83D001700F9
:104BF000E0E701233A002F000A9DF4E74A46A94660
:104C00000A9D06E0571C434659462020C8473400F9
:104C10003A00661CA542F5D84D469146D7E71C9B45
:104C20001A1D1C921B6899465346002B00D1013B6C
:104C30004E4601E0013613003278002A02D05A1E97
:104C4000002BF7D14B46F21A10928023DB0026008E
:104C50001E401C4203D0524501D9534610930223F3
:104C60001A0022400B92234205D03A0037004C46EE
:104C7000A946554620E03A00109B5F46B3462E00F9
:104C800006E0551C434639002020B04723002A0087
:104C90005C1C0A999942F4D835005E46BB461094D4
:104CA00037004C46A946554606E01D000134561C07
:104CB00043465946C84732002078002804D0002FC8
:104CC000F4D06B1E002DF0D117004D460B9B002B2E
:104CD00003D1119B0133119354E50A9F109B06E009
:104CE000561C434659462020A847230032005C1C2E
:104CF0009F42F5D81700ECE721231C431C9B1A1D8B
:104D00001C921B6800930594082304935346039355
:104D1000102302930023019343463A00594628008A
:104D2000FFF79CF80700119B013311932AE57C1CC7
:104D300043463A0059462520A847119B0133119359
:104D400027001FE57C1C43463A005946A847119BA3
:104D500001331193270015E50A4B9A4610E5AA4640
:104D6000474502D343465A1E00E03A00434659469F
:104D70000020D047380013B0F0BCBB46B246A9466D
:104D8000A046F0BD693C001000B585B002900391CB
:104D90000121009313004A4202A90248FFF7E2FCF6
:104DA00005B000BD6B3C001001480421014B1847C1
:104DB000B00B0020D94D001010B5010018231B883E
:104DC00014221088984710BD10B5010018231B88C5
:104DD00016221088984710BDF0B5C64600B50700EA
:104DE0000E0000250123984600E00135B5420AD2A5
:104DF000AC003C192068FFF7DFFF20600028F4D1E9
:104E000000239846F1E7404680BCB846F0BD00005C
:104E1000124A936F9B0815D29066D166002905D07F
:104E2000FFE7FFE7FFE7516F106F704704B5802180
:104E30000906C2175140002800D0C84303F0ECFA1D
:104E4000002104BDF0B5146E556E576F166FFFF755
:104E5000E3FF1466556657671667F0BD000000D083
:104E6000114A936F9B0813D210665166002905D032
:104E7000FFE7FFE7FFE7516F106F704704B50028A9
:104E800001D00020C04303F0C7FA002104BDC04692
:104E9000F0B5146E556E576F166FFFF7E5FF146689
:104EA000556657671667F0BD000000D094464A4A21
:104EB000926F9208624601D228E0C046F0B5464E95
:104EC000346E756E776F366F00F020F89446424A64
:104ED00014665566576716676246F0BD94463E4AAB
:104EE000926F9208624601D254E0C046F0B53A4E45
:104EF000346E756E776F366F00F04CF89446364A14
:104F000014665566576716676246F0BD002B24DBB2
:104F100011D000293EDA00B5C943404200D1013129
:104F200000F038F8C943404200D10131DB4352421E
:104F300000D1013300BD002AEBD1002801D10029A6
:104F400005D00020C90FC90701D1C043410800B5F1
:104F500003F04AFA0022002300BD00B500290ADB55
:104F6000DB43524200D1013300F014F8C943404200
:104F700000D1013100BDC943404200D10131DB43C2
:104F8000524200D1013300F005F8DB43524200D118
:104F9000013300BD002923D1002B18D1002A0CD0E9
:104FA000BC460D4F38667A6600210023FFE7FFE715
:104FB000FFE77A6F386F67467047002801D00748CF
:104FC000010000B503F010FA0022002300BD02002A
:104FD0000B00002000217047000000D0FFFFFFFF02
:104FE000002B00D0BFE0130C28D1002AE7D080B4FA
:104FF000114F39667A66FFE7FFE730B4040C7B6F28
:10500000396F1B0423433B667A66FFE7FFE7FFE740
:10501000C04684B27B6F3D6F1B0423433B667A66B8
:10502000FFE7FFE7C04600232C042D0C7A6F386F92
:1050300000196941B0BC7047000000D0F0B594463B
:105040000025140E01D112020835140F01D11201EE
:105050000435940F01D192000235D40F01D15200D2
:105060000135D40B0134254F7C66254C3C660E0C73
:1050700093B2FFE7FFE7FFE73C6F6643360C770329
:10508000BE467343DF0B5B04C01AB941130C734374
:10509000DB18C91ACE086643360CB64493B2734384
:1050A0001F0F1B01C01AB941130C73431F0B1B05C3
:1050B000C01AB941860D8F023E436643360C092D56
:1050C00024DB520A7243801A7703460A6643360C81
:1050D00016235B1BDE40DF40BF1964466643821B1C
:1050E0007046043506330100D940A840C01900D3EA
:1050F0000131A24206D20023F0BD0000000000D022
:10510000FFFFFFFF121B0130F3D3F1E709277F1BDD
:10511000FE406446A2B27243801A00D20139220CCA
:105120007243130C1204821A99410B007046043525
:1051300013370100F940A840801900D30131002B3A
:1051400002D1A2420AD2F0BD013000D30131121BBC
:10515000FAD2013BF8D1A24200D2F0BD013000D317
:105160000131121BF7E7F0B51C0C00D080E00CB445
:1051700000251C0A04D11B02160E33431202083507
:105180001C0B04D11B01160F3343120104359C0B79
:1051900004D19B00960F334392000235DC0B02D101
:1051A00092185B4101351C00971864410134464F49
:1051B0007C66464C3C660E0CFFE7FFE7FFE7C04607
:1051C0003C6F6643360C7703BE4697B27743C01BED
:1051D00000D20139C01B00D201399FB27743C91BED
:1051E000C91B170C77437E04FF0B801BB941CE0807
:1051F0006643360C0C2D33DBB644120B1F053A43C5
:105200001B0B97B27743C01B00D201399FB2774383
:10521000C91B170C77433E043F0C801BB941860D18
:105220008F023E43664329277F1BFE400C3D774695
:10523000AF40BF1930BCA2B2ABB272437343801A05
:105240009941220C7243130C1204801A99410200F6
:105250000B000137001BA941F9D2781E0021F0BDD7
:105260000C277F1BFE4077467F0BAF40FF19E0E71E
:1052700000245D1C07D0144F7D663966FFE7FFE709
:10528000FFE7FFE73C6F95B29EB265436643401B64
:10529000B141150C1E0C6543664336042F0C3E438A
:1052A0002D04401BB141994204D202000B002000A2
:1052B0000021F0BD01D19042F7D3801A9941013409
:1052C0009942F2D3F6E70000000000D0FFFFFFFF95
:1052D00044464D4656465F46F0B47047F0BCA04683
:1052E000A946B246BB46704748404140484018B4C2
:1052F0001B4B5B68FC46019308BD04DFDB550010C7
:1053000018B4174B1B68FC46019308BD00DFE55538
:1053100000109446134A926F920809D2624618B45C
:105320000F4BDB68FC46019308BD0CDF9D58001055
:105330000C4AF0B5146E556E576F166F6246FFF744
:10534000EEFF084A1466556657671667F0BD18B435
:10535000034B9B68FC46019308BD08DF41570010D2
:1053600018140020000000D0FFB5504042405040CB
:1053700059404B40594000E0FFB5154F4C00640DBB
:1053800003D0BC4204D10C0314D80020090D090538
:105390005C00640D03D0BC4204D11C030AD8002277
:1053A0001B0D1B0501264B4009D44B4003D58B42F6
:1053B00000D18242FFBD9942FCD19042FFBD0B4318
:1053C000DB1803431343F5D0C9434918FFBD000060
:1053D000FF07000000B5FFF7CFFF804100BDC046CA
:1053E00000B5FFF7C9FF01D9002000BD012000BDB5
:1053F00000B5FFF7B9FF01D9002000BD012000BDB5
:1054000000B5FFF7B1FF804100BD012040054A0013
:10541000121804D85A00121801D800207047012031
:1054200070470020704700000021002805D1704718
:10543000C1174840401AFAD0C90713B5064B1B687C
:1054400098470CBC441CA2401005120B0349091BD1
:1054500009051943114310BD181500201F04000051
:1054600010B54C00620D8023D218DB00D21A5B0508
:105470007E2A10DD9E3A13DACC1709034908194336
:105480005242D140640001341532202A05DAD0405E
:105490000843604310BD002010BD0846604310BDA6
:1054A000C80FC018013810BD18B4044B5B6AFC4625
:1054B000019308BD24DFD15A001000001814002009
:1054C00018B4044B9B6DFC46019308BD58DF915DF9
:1054D000001000001814002070B513231C78012C54
:1054E00014D0012C14DC022C02DC1F4A1F4B9A64DE
:1054F0001F48FFF761FC1F4B186070BD99001A48E8
:105500001A4A885001331F2BF8D9EAE70023FAE73B
:105510001948FFF759FC05001848FFF755FC0238F9
:1055200003789B007F2B19DD802229000F4800F0B3
:10553000F9FD022CD7D1124B1A88B5231B029A42CF
:1055400009D1104B1A88104B9A4204D10F4B1A887C
:105550000F4B9A42C7D00020FEF76EFB0D4B0E4A50
:1055600032210E48FEF7CEFAA15500101814002083
:105570004C3300001815002053440000534600002F
:1055800054380000D8380000494600009C3800001C
:1055900059460000F0960010A8970010449700109C
:1055A00007B56046002800D100BE01880A0A023013
:1055B000DF2AFAD1C9B2820804D3028840880004E5
:1055C000104300E00068024A5050039007BD0000FD
:1055D000181400200FB403BC0CBCF0B50124E40780
:1055E000634000E0F0B50C0DCF0F661E3605891B39
:1055F000640503D3C943404200D30131640D03D095
:10560000661CF60A07D0E41B00207F00791C89077E
:105610008912803C24031D0DDF0F6E1E36059B1B77
:105620006D0503D3DB43524200D301336D0D03D02C
:105630006E1CF60A07D0ED1B00227F007B1C9B0727
:105640009B12803D2D032F1B661B58D4A446202E91
:1056500046DA20371400BC401D00BD40F240334103
:105660002A4380185941CB0F05D0C943C0430022BB
:1056700064425041514162464D0D28D10D0D07D174
:1056800000281FD0241940414941013A0D0DF9D09D
:10569000640006D3013000D30131002C01D1400851
:1056A0004000013A0BD4941CE40A04D112051144C1
:1056B000DB071944F0BDD907204B194300E0D90797
:1056C0000020F0BD0029DDD1002CDBD1F0BD01327E
:1056D000C6074008CD0728434908002EE1D0D9E786
:1056E0003C2E29DA203E40371400BC4000D0012473
:1056F000F24014431A00BB401C43D317ACE7AC463E
:10570000202F08DA20360400B4400D00B540F840E0
:1057100039412843A5E73C2F0CDA203F40360400EE
:10572000B44000D00124F84004430800B1400C43C9
:10573000C117EAE710001900002494E70000F07F89
:10574000F0B50C0D661E3605891BE60A6405640D6E
:1057500002D0651CED0A04D0002001210905803C1F
:105760002403A4461C0D671E3F05DB1BE70A6405E6
:10577000640D02D0651CED0A04D0002201231B0534
:10578000803C24037740644497B484B296B2744357
:10579000070C7E43150C6F4380B26843361802D362
:1057A000012000043F183004350C00197D41844667
:1057B00088B29AB250430C0C62431F0C7C438EB2E9
:1057C0007E43921902D301263604A4191604170C3D
:1057D0003618674101BC81B29AB25143040C62434E
:1057E0001B0C5C4380B25843121802D30120000402
:1057F00024181004130C401863412D185E4100203A
:10580000474106BC88B293B258430C0C6343120C58
:10581000544389B251435B1802D30121090464182F
:1058200019041A0C091862416D18564100204741AD
:1058300018BCF902720D1143F0026A0D1043ED021B
:105840000A0D03D16D1940414941013B124E9B1B8A
:105850007600B3420ED26D0007D3013000267141AD
:105860006646354301D1400840001B05C918E407CE
:105870002144F0BD0BDA013306D1013004D10131EE
:105880004F0D01D04908F2E7E1070020F0BD0136D5
:1058900031050020EBE70000FF030000F0B51C0D10
:1058A000671E3F05DB1BE70A6405640D02D0661C1A
:1058B000F60A04D0002201231B05803C2403D025D6
:1058C0002D060026F6432E661E096E66CE0FF619CB
:1058D000B44649004F0D02D07E1CF60A03D00020CA
:1058E0000021403F3F033E1BB600B444013F7F050B
:1058F000C91B49082E6F013676089C02950D254379
:105900007543ED137543AD1301356D10F603761B2A
:105910000CB4CC02450D2C43A2B2B3B25A43270CAF
:105920007B43350C6F43A4B26C431B1902D3012493
:1059300024043F191C041D0CA4187D4124196D4139
:10594000009A91B2ACB26143170C7C432B0C5F43BD
:1059500092B25A43A41802D301221204BF1822049F
:10596000230C52187B41019C6C431B19520ED90128
:105970000A434401A01A81B2B2B2514303145A43FC
:10598000360C734387B27743D617D21900277E416E
:1059900036049B191704160C7F185E417316ED1818
:1059A000F301002680337541A90F06D16400690A0E
:1059B000E8055B0A184309D22FE00422944480339F
:1059C0007541A90AA8059B0A184326D340414941BD
:1059D0002404009A019B0D005543641B4343E41AC1
:1059E00095B286B27543170C7E43030C5F4392B2A7
:1059F0005A43B61802D301221204BF183204330CE2
:105A000052197B4152429C41002C02D400220130A9
:105A100051414008CA071043490802B06246D707FF
:105A20009210084BD218084B9A4203D212058918DB
:105A3000C919F0BD0020002A01DC3900F0BD013396
:105A40001905F5E7FD030000FE070000624618CACD
:105A500094465A46002A20DB04E0624618CA94465F
:105A600000291ADAC01861415B463B415C46B440EC
:105A70005246FA40224344464D4662416B419046AD
:105A800099462B46B3403D41FC401C4352465B4681
:105A9000A241AB4192469B467047C01AA1414B467A
:105AA0003B414C46B4404246FA40224354465D4690
:105AB00062416B4192469B462B46B3403D41FC40C0
:105AC0001C4342464B46A241AB4190469946704723
:105AD000002200B5203200F010F8080000BD0022BE
