:020000041000EA
:1000000000B5324B212058609868022188439860DF
:10001000D860186158612E4B002199600221596106
:100020000121F02299502B49196001219960352056
:1000300000F044F80222904214D00621196600F024
:1000400034F8196E01211966002018661A6600F04E
:100050002CF8196E196E196E052000F02FF8012189
:100060000842F9D1002199601B49196000215960AB
:100070001A491B48016001219960EB211966A021F2
:10008000196600F012F800219960164914480160C1
:100090000121996001BC002800D000471248134993
:1000A000086003C880F30888084703B5996A0420EC
:1000B0000142FBD001200142F8D103BD02B5186610
:1000C0001866FFF7F2FF186E186E02BD00000240BE
:1000D000000000180000070000035F00212200005C
:1000E000F4000018222000A00001001008ED00E03C
:1000F00000000000000000000000000074B24E7A12
:1001000000200420F7010010C3010010C5010010F9
:10011000C1010010C1010010C1010010C101001097
:10012000C1010010C1010010C1010010C701001081
:10013000C1010010C1010010C90100100503001029
:10014000CD010010CD010010CD010010CD01001037
:10015000CD010010CD010010CD010010CD01001027
:10016000CD010010CD010010CD010010CD01001017
:10017000CD010010CD010010CD010010CD01001007
:10018000CD010010CD010010CD010010CD010010F7
:10019000CD010010CD010010CD010010CD010010E7
:1001A000CD010010CD010010CD010010CD010010D7
:1001B000CD010010CD010010CD010010CD010010C7
:1001C00000BE00BE00BE00BE00BE00BEEFF3058054
:1001D000103800BEF2EB887148A2001078A200101F
:1001E0003402001090A31AE700201F49086006C8D7
:1001F00081F3088810471D48006800282FD10DA4FE
:100200000ECC002902D000F012F8F9E71849194A7B
:10021000002000E001C19142FCD1174988471749ED
:1002200088471749884700BEFDE701C901C29A42C5
:10023000FBD3704778A20010C0000020900C002073
:1002400048AE0010000004200000042048AE00105A
:10025000001004200010042000000000704709482E
:1002600005F01CF80047000008ED00E0000000D099
:10027000900C00203C17002025400010F5120010C3
:10028000E13F00105756000006005250ABB36053D8
:10029000889D001006005250861C0302989D001095
:1002A000060052505422A29DA49D001005005250F9
:1002B000DE65F46848AE0010F8B5C04610B5064CCF
:1002C0002378002B07D1054B002B02D0044800E017
:1002D00000BF0123237010BD900D0020000000001E
:1002E00078890010044B10B5002B03D00349044853
:1002F00000E000BF10BDC04600000000940D0020CB
:1003000078890010F0B585B0D0221206516980239B
:100310005B020B435361304A1368013313602F4B68
:100320001A782F492F4801F09BFC2F4B18602F4A59
:100330001368591C1160642B03DD2D4B1B78002BB7
:1003400015D12C4B00201856274B1B680293002315
:10035000019300930022002101F0AAFAD022120694
:10036000916980235B020B43936105B0F0BD204E81
:10037000002333701360204C204F68332200204943
:10038000380001F02DFB0023E05E05F0C3FA0022E7
:100390001C4B05F04EFA04000D000023F85E05F03A
:1003A000B9FA0022174B05F044FA22002B0005F0A1
:1003B000F9FA154A154B05F03CFA05F0C3FA40B2BC
:1003C000134B1870C001B42104F094FF094B18605E
:1003D00001233370B5E7C046041700202E17002014
:1003E00068100020D80F00207C100020D8160020B4
:1003F000440B0020B80F002018170020141700200D
:10040000161700200000103FF8C1631ADCA54C400D
:100410001D17002010B584B0784B1B78002B00D03E
:1004200072E0774B1B78002B03D0764B1B78002BA8
:1004300005D1754B1A78754B1B789A423AD001F06A
:100440004BFB0021002001F04DFB714801F057FBF0
:1004500002AA704B03CB03C20821002001F042FB2B
:100460006D4B1B786D4A1278934206D06B4A13701D
:10047000002B59D06A4801F042FB634C2278634B51
:100480001A700021012001F02DFB664801F037FBB6
:1004900020780A2201A908F059F90721012001F06A
:1004A00021FB01A801F02BFB564B00221A705E4B7A
:1004B00001321A705D4B1B78002B23D0514B1B78F7
:1004C000002B1FD05A4B1B785A4A1278934209D0FE
:1004D0009B1A002B2CDD584A1278032A28D00132AF
:1004E000554B1A70544B1B78012B2BD9524B1B7850
:1004F000023BDBB2012B53D9424B00221A704A4B0C
:1005000001321A7004B010BD01F0E6FA002100209B
:1005100001F0E8FA494801F0F2FA3A4B00221A7069
:10052000414B01321A707CE7454801F0E8FAA4E734
:10053000002BD7DA404B1B78002BD3D0013B3E4A2F
:100540001370CFE73F4B1B78002BCFD03D4B0022E1
:100550001A7001F0C1FA0021002001F0C3FA3A4CF0
:10056000206801F0CCFA0021012001F0BBFA60689C
:1005700001F0C5FA304B1B78002B08D10721002071
:1005800001F0B0FA304B186901F0B9FAAEE7042176
:10059000012001F0A7FA2C4B186901F0B0FAA5E789
:1005A000284B1B78002BA7D0264B00221A7001F095
:1005B00093FA0021002001F095FA234CA06801F085
:1005C0009EFA0021012001F08DFAE06801F097FA0F
:1005D000194B1B78022B08D00621012001F082FA6A
:1005E000194B186901F08BFA86E70B21002001F006
:1005F00079FA154B186901F082FA7DE72F17002070
:10060000301700201E170020450B00202D1700205A
:10061000A88A0010588B0010201700202D0B0020F6
:1006200078890010B48A0010440B00203117002094
:1006300028170020221700202E0B0020948A00107B
:10064000808900102C0B0020300B002070B5154B5A
:10065000154A5A6234229A62DA6A65218A43053958
:100660000A43DA62DA6A5D398A43DA62D96A0222B7
:100670009143D962D96A9143D9620C4919630C4BF1
:1006800059688026B143596058684025284358600E
:10069000084C62609868B0439860996829439960F3
:1006A000E26070BD004003402D0300000103000024
:1006B00000C001400040014010B582B02A4B00222A
:1006C0001A700021012001F00DFA284801F017FAF4
:1006D000274C002020560A2201A908F037F80021F3
:1006E000002001F0FFF9234801F009FA0022A25688
:1006F000531EDBB2082B16D9002A1CDB1C4B002230
:100700009A56531EDBB2622B1DD9002A23DB082127
:10071000002001F0E7F901A801F0F1F9124B0122E4
:100720001A7002B010BD0821002001F0DBF9124858
:1007300001F0E5F9E2E70921002001F0D3F90E48C4
:1007400001F0DDF9DAE70921002001F0CBF90A48D0
:1007500001F0D5F9DBE70A21002001F0C3F90648D2
:1007600001F0CDF9D3E7C046440B0020C08A001049
:100770001D170020D08A0010DC8A001070B504001C
:10078000134D00232B70134AD168134A1160134A8A
:1007900013540126124B1E7001F09EF90A2000210D
:1007A00002F082FDFFF788FF0A20002102F07CFDA5
:1007B0000021012001F096F90A20002102F074FDC9
:1007C000A400084BE05801F09AF92E7070BDC046A5
:1007D000440B002000400540A414002068100020B5
:1007E00034170020D00A0020F8B55A4BDB795A4A5A
:1007F00013605A4A1268934201D0012B43D0584AE1
:10080000D468584A1460584A1268A21A57498A4252
:100810004FD95749097800294BD1002B03D15549AD
:100820000978002945D0534B1D780A2D32D020007D
:1008300005F06CF806000F004F4B186805F066F8DD
:1008400000224E4B04F0CEFF02000B0030003900B6
:1008500005F040F8002868D0D0231B06D969802213
:1008600052030A43DA61D969802292030A43DA61AA
:10087000D969802252050A43DA613F4B1C60013579
:100880003C4B1D7051E0354A1360354AD168364AF9
:100890001160B4E7092D48D90123354A1370384A4D
:1008A0001370002230490A6032490A70354A1370C9
:1008B0003BE02E498A4238D92D4A1278002A34D09A
:1008C000002B03D12B4B1B78002B2ED0294B1D78EE
:1008D0000A2D2BD0200005F019F806000F00264B3A
:1008E000186805F013F80022244B04F07BFF020087
:1008F0000B003000390004F0EDFF002815D0D023A4
:100900001B06D969802252030A43DA61D969802221
:1009100092030A43DA61D969802252050A43DA61F7
:10092000154B1C600135134B1D70F8BD092DFCD90A
:1009300000230F4A1370124A13700B4A13600D4ABA
:100940001370114B1A78114B1A700E4B01221A704A
:10095000EBE7C046D80F00209C0F0020BC0F002002
:1009600000400540EC160020C80F00203F4B4C0013
:100970002F17002037170020F816002080842E4102
:100980002E1700201E1700201D17002032170020F0
:10099000F8B5644B9B791A0063490B606349096899
:1009A0008B4201D0012B4CD08A4206D0002A04D1C0
:1009B0005E4A13605E4A002111605E4AD4685E4A56
:1009C00014605B4A1268A21A5C498A424FD95C499A
:1009D000097800294BD1002B03D15A490978002905
:1009E00045D0584B1D780A2D32D0200004F08EFFE0
:1009F00006000F00544B186804F088FF0022534B88
:100A000004F0F0FE02000B003000390004F062FF39
:100A1000002868D0D0231B06D969802252030A43DC
:100A2000DA61D969802292030A43DA61D9698022A6
:100A300052050A43DA61444B1C600135414B1D707D
:100A400051E03A4A13603B4AD168394A1160B4E731
:100A5000092D48D901233A4A13703D4A13700022E8
:100A600033490A6037490A703A4A13703BE0334908
:100A70008A4243D9324A1278002A3FD0002B03D150
:100A8000304B1B78002B39D02E4B1D780A2D36D0D9
:100A9000200004F03BFF06000F002B4B186804F009
:100AA00035FF0022294B04F09DFE02000B003000B0
:100AB000390004F00FFF002815D0D0231B06D96998
:100AC000802252030A43DA61D969802292030A43E1
:100AD000DA61D969802252050A43DA611A4B1C6037
:100AE0000135184B1D700F4B5B78002B06D01A4B4D
:100AF0001B78012B12D0184B01221A70F8BD092D5A
:100B0000F1D900230E4A1370114A1370084A13607A
:100B10000C4A13700F4B01221A70E4E70E4B0022AF
:100B20001A70EBE7D80F0020A00F0020C00F0020A4
:100B3000CC0F002000400540F01600203F4B4C0039
:100B40003017002038170020FC16002080842E412A
:100B50002E1700201E1700201A170020F0B583B0B2
:100B6000CF4B5A7ACF4B1A60CF4B1B689A4202D0B8
:100B7000012A00D12CE1CD4BDC68CD4B1C60CD4B64
:100B80001B68E31ACC498B4200D838E1CB4909787D
:100B9000002900D033E1002A04D1C949097800298D
:100BA00000D12CE1C64B1D780A2D00D117E12000A1
:100BB00004F0ACFE06000F00C24B186804F0A6FE5D
:100BC0000022C14B04F00EFE02000B003000390081
:100BD00004F080FE002815D0D0231B06D96980229E
:100BE00052030A43DA61D969802292030A43DA6127
:100BF000D969802252050A43DA61B24B1C60013583
:100C0000AF4B1D70B14B1A68FA239B009A4200DA71
:100C1000D7E0AE4B00221A60AD4B21321A7032324F
:100C20005A700E329A70DA701A71AA4B1B785BB246
:100C3000002B00DA6EE1A64B363A5A70A54B002520
:100C40005D570A21280004F055FB3031A04C21717A
:100C50000A21280004F04EFB40B20A2104F04AFBAE
:100C60003031E1706421280004F044FB3030A07082
:100C70008B4B5B78002B00D053E1894B9B78002B8A
:100C800000D057E1864BDB78002B00D05CE1844B31
:100C90001B79002B00D061E1814B5B79002B00D0E8
:100CA00066E17F4B9B79002B00D06BE17C4BDB79BD
:100CB000002B00D070E17A4B1B7A002B00D075E13D
:100CC000774B5B7A002B00D07AE1754B9B7A002B37
:100CD00000D07FE1724BDB7A002B00D084E1704BB7
:100CE0001B7B002B00D089E16D4B5B7B002B00D080
:100CF0008EE16B4B9B7B002B00D093E1764B1A78F7
:100D0000764B1B789A4200D096E1754B1A78754B5A
:100D10001B789A4200D0BAE1734B1B78734A14785F
:100D2000A34200D0DEE1724B1A78724B1B789A42D4
:100D300000D0F7E1704B1A78704B1B789A4200D0C4
:100D40001BE26F4B1B78002B08D0554B5B7A002BB6
:100D500004D06C4B1B78002B00D139E2684B1B7818
:100D6000002B08D04E4B5B7A002B04D0654B1B78D0
:100D7000002B00D136E2624B1B78002B08D0484B89
:100D80005B7A002B04D05F4B1B78002B00D133E241
:100D90005B4B1B78002B08D0414B5B7A002B04D0B7
:100DA000584B1B78002B00D133E2494C200007F050
:100DB00013FD20180222544905F026FC534B012252
:100DC0001A60524B1B68012B00D12FE203B0F0BD1B
:100DD000354B1A60354BD968364B1960CBE6092D77
:100DE00000D80FE70123354A1370454A13700022DB
:100DF00030490A6032490A70454A137002E72E49A9
:100E00008B4200D8FEE62D4B1B78002B00D1F9E673
:100E1000002A04D12A4B1B78002B00D1F2E6284B84
:100E20001D780A2D2CD0200004F070FD06000F0064
:100E3000244B186804F06AFD0022234B04F0D2FC16
:100E400002000B003000390004F044FD002800D1FE
:100E5000D8E6D0231B06D969802252030A43DA61FF
:100E6000D969802292030A43DA61D9698022520546
:100E70000A43DA61134B1C600135114B1D70C1E64A
:100E8000092D00D8BEE600230C4A13701C4A1370CB
:100E9000084A13600A4A13701D4B01221A70B1E60A
:100EA000D80F0020A40F0020C40F002000400540F0
:100EB000F4160020D00F00203F4B4C0031170020CB
:100EC000391700200017002080842E4104170020CD
:100ED000480B00201D170020281700202217002093
:100EE00029170020231700202A170020241700208C
:100EF0002B170020251700202C1700202617002074
:100F00002E1700202E0B0020548B0010AC14002054
:100F10001E170020D24A2D2151705B42D14A137016
:100F20008CE6200007F058FC20180422CE4905F07A
:100F30006BFBA2E6CA4C200007F04EFC20180422EE
:100F4000CA4905F061FB9DE6C54C200007F044FC52
:100F500020180422C64905F057FB98E6C04C200033
:100F600007F03AFC20180422C24905F04DFB93E635
:100F7000BB4C200007F030FC20180422BE4905F0CD
:100F800043FB8EE6B64C200007F026FC2018042216
:100F9000BA4905F039FB89E6B14C200007F01CFC8A
:100FA00020180422B64905F02FFB84E6AC4C200043
:100FB00007F012FC20180422B24905F025FB7FE659
:100FC000A74C200007F008FC20180422AE4905F0C9
:100FD0001BFB7AE6A24C200007F0FEFB201805223E
:100FE000AA4905F011FB75E69D4C200007F0F4FBC3
:100FF00020180522A64905F007FB70E6984C200052
:1010000007F0EAFB20180522A24905F0FDFA6BE67D
:10101000934C200007F0E0FB201805229E4905F0C4
:10102000F3FA66E68E4C200007F0D6FB2018052266
:101030009A4905F0E9FA61E6994A1370884D28004B
:1010400007F0CAFB28180422964905F0DDFA964BF2
:101050001E780A21300004F075F9303101AC21709E
:101060000A21300004F06EF9C0B20A2104F06AF9D6
:10107000303161706421300004F064F93030A070C8
:101080000023E3702100280007F078FB3DE6874A43
:101090001370734D280007F09FFB28180422844921
:1010A00005F0B2FA834B1E780A21300004F04AF9A9
:1010B000303101AC21700A21300004F043F9C0B294
:1010C0000A2104F03FF9303161706421300004F0EE
:1010D00039F93030A0700023E3702100280007F0B8
:1010E0004DFB19E6744B1C700A21200004F02AF90C
:1010F000303101AD29700A21200004F023F9C0B27B
:101100000A2104F01FF9303169706421200004F0D5
:1011100019F93030A8700023EB702900504807F00F
:101120002DFB00E6654A13704D4D280007F054FB77
:1011300028180422624905F067FA624B1E780A21DA
:10114000300004F0FFF8303101AC21700A2130008A
:1011500004F0F8F8C0B20A2104F0F4F830316170FC
:101160006421300004F0EEF83030A0700023E3700A
:101170002100280007F002FBDCE5534A1370384DCC
:10118000280007F029FB28180422504905F03CFAF2
:101190004F4B1E780A21300004F0D4F8303101ACF6
:1011A00021700A21300004F0CDF8C0B20A2104F009
:1011B000C9F8303161706421300004F0C3F8303078
:1011C000A0700023E3702100280007F0D7FAB8E5EB
:1011D000234C200007F000FB201804223D4905F0B5
:1011E00013FABBE51E4C200007F0F6FA2018042283
:1011F000394905F009FABEE5194C200007F0ECFA70
:1012000020180422354905F0FFF9354B01221A70E8
:10121000BEE5134C200007F0DFFA20180422314904
:1012200005F0F2F92E4B00221A70BEE52E4B9B6999
:101230001B0600D4CAE50A4A2C4B1968505C2A499F
:1012400008601B68D25C3F2A03D00133274A136031
:10125000BCE50023254A1360254A1360B6E5C04665
:10126000480B00201D170020E88A0010EC8A0010AF
:10127000F08A0010F48A0010F88A0010FC8A00102E
:10128000008B0010048B0010088B00100C8B0010DA
:10129000148B00101C8B0010248B00102C8B001062
:1012A00028170020348B0010221700202917002057
:1012B000388B0010231700202A1700202B1700203E
:1012C0003C8B0010251700202C170020408B0010AD
:1012D00026170020448B0010488B00104C8B001008
:1012E00033170020508B001000400340B41400203E
:1012F000AC14002070B505F0EBFA07F049F807F0E0
:1013000019F86D4800F090FCFFF7A0F9E7220521DD
:101310000B2000F01FFCE72205210A2000F01AFC38
:10132000E7220521092000F015FCE722052108200D
:1013300000F010FCE7220521072000F00BFCE7225B
:101340000521062000F006FCE7220521052000F01B
:1013500001FCE7220521042000F0FCFBE722052127
:10136000032000F0F7FBE7220521022000F0F2FB4A
:10137000212205210F2000F0EDFB2122052116205E
:1013800000F0E8FB21220521102000F0E3FB2122E0
:101390000521122000F0DEFB21220521132000F0A0
:1013A000D9FBE72205210E2000F0D4FBE72205211E
:1013B0000D2000F0CFFBE72205210C2000F0CAFB36
:1013C00021220521142000F0C5FB21220521152032
:1013D00000F0C0FB212205211C2000F0BBFB0020F7
:1013E00005F00EFF354B002B01D000E000BF344963
:1013F000344807F067F903211A2000F007FE0321A3
:101400001B2000F003FE002201211A2000F016FE2E
:10141000002201211B2000F011FE00F07BFB682060
:1014200000F0B4FAFFF748F95FE00120FFF7A6F9F2
:101430007AE00220FFF7A2F97FE00320FFF79EF990
:1014400084E00420FFF79AF989E00520FFF796F978
:101450008EE00620FFF792F997E00720FFF78EF95C
:10146000A0E00820FFF78AF9A5E00920FFF786F938
:10147000AEE00A20FFF782F9B3E00B20FFF77EF918
:10148000B8E00C20FFF77AF9BDE00F4B1B78002B7A
:1014900000D0DCE000240D4B1C70FFF70DF90C4B65
:1014A0001C70D4E0094B00221A700A4BDA680A4B10
:1014B0001A60FFF701F9EDE047E8010000000000C5
:1014C000A0860100680C00202E170020440B00208D
:1014D0003417002000400540A81400205A42534110
:1014E0007A4A1278134200D0E4E001200021404201
:1014F00006F0AAF9764B1B68764A1268934206D02A
:10150000002B02D0744A01211170724A1360734B90
:101510005B78002B08D0724B1B78002B04D16E4BEC
:101520001B78002B00D080E76C4B9B78002B04D0FD
:10153000694B1B78002B00D07BE7684BDB78002BD6
:1015400004D0654B1B78002B00D076E7634B1B79EA
:10155000002B04D0604B1B78002B00D071E75F4B51
:101560005B79002B04D05C4B1B78002B00D06CE720
:101570005A4B9B79002B08D0594B1B78002B04D178
:10158000554B1B78002B00D063E7544BDB79002BC5
:1015900008D0534B1B78002B04D14F4B1B78002BEA
:1015A00000D05AE74D4B1B7A002B04D04A4B1B78D6
:1015B000002B00D055E7494B5B7A002B08D0484BF5
:1015C0001B78002B04D1444B1B78002B00D04CE738
:1015D000424B9B7A002B04D03F4B1B78002B00D052
:1015E00047E73E4BDB7A002B04D03B4B1B78002BAC
:1015F00000D042E7394B1B7B002B04D0364B1B78C5
:10160000002B00D03DE7344B00221A70FFF7C0F9E1
:10161000FFF7EAF8FFF7A2FA324BD86804F076F940
:1016200004000D00304B186804F070F900222F4BB5
:1016300004F0D8F802000B002000290004F052F951
:10164000002804D02A4B1B78012B00D11DE7254B25
:10165000D86804F05BF904000D00264B186804F00C
:1016600055F90022244B04F0BDF802000B002000C5
:10167000290004F037F900280CD0194B1B78002BF7
:1016800008D11B4B1B78002B04D11C4B1B78002B63
:1016900000D007E7124B1B78002B00D11EE70B4A46
:1016A0001278002A00D119E7144B00221A70FEF7B5
:1016B000B1FE1AE70024114B1C700A4BDA680D4B7F
:1016C0001A60FEF7F9FF014B1C700EE71E17002091
:1016D0007C100020A014002021170020D80F00202B
:1016E0002E17002000400540A414002080843E41B5
:1016F00034170020A814002080841E41440B0020D1
:1017000000487047BC8B001000487047D08B001019
:1017100000487047988B0010F0B589B0002814D0AD
:10172000032824D059D880002D4BC558280007F035
:1017300053F8202800D92020002398420DD9EC5CD2
:1017400001335A0027498C52F7E7254B1968254881
:101750000222023004F058FF01200130400080B224
:10176000C0239B0003431F48038009B0F0BD1E4BFC
:10177000002B0BD01021684600E000BF8446634672
:10178000102B01D910239C46002507E0174B00932E
:10179000174B019308239C46F1E70135654519D2A3
:1017A0000022012AF9D804AC124B2100C1CBC1C1DF
:1017B0001B680B606B46595D930019410F2319405C
:1017C0006B009B1A0133074E5B00645C0236F452D7
:1017D0000132E6E763465800BFE70020C5E7C04690
:1017E0007C0B0020C80D002000000000012345678D
:1017F00089ABCDEF688B0010F0B589B0070001917F
:10180000029203930EAB00269E570FAB00255D5747
:10181000002006F0FBF9002801D109B0F0BD05ACAD
:101820000B220021200004F0E9FE2770019961706D
:10183000029AA27026716571039BE3700B2204ABC0
:101840009C466244109B13701B0A5370109B1B0C28
:101850009370109B1B0ED3700B23220004210020D9
:1018600006F0FCF9D9E70000024BFA2292001A6058
:101870007047C046D40F0020014BFA221A6070470F
:10188000D40F0020014B024A1A607047D40F002089
:10189000C409000010B505F07FFC002804D0FA222E
:1018A0009200024B1A6010BDFA22FAE7D40F002012
:1018B000F0B589B00590069116001C000EAB00250E
:1018C0005D570FAB0027DF5701F0C4FD00290CDB8B
:1018D00011D0FA229200002303F072FD164B1B6810
:1018E000C01A09280CD809B0F0BD144B144A3F2186
:1018F000144802F079FBFA21890003F023FDEDE79B
:101900000A330D4A136006F03BFD079005F04CFCCE
:10191000002802D0079B002B0AD1109B029301954F
:1019200000943B00320006990598FFF765FFDAE75F
:1019300005F042FCD7E7C046D4160020C08C00104A
:10194000408D0010DC8C00107047002070470000B4
:1019500010B502A80088022A00D010BD0129FCD1D0
:101960000028FAD01B789B0706D5074B00221A6087
:10197000012006F0F7FCF0E7002006F0F3FC024B34
:10198000FA2292001A60E8E7D40F002070B584B004
:101990006B236A46137300255573C4B20F4E00952E
:1019A000022303AA2100300006F0B8FE1C236A4679
:1019B000D3721B3B00930B226A442100300006F0D7
:1019C000ADFE6B46DD72009501230B226A442100B7
:1019D000300006F0A3FE04B070BDC046680C0020C5
:1019E000F0B5CE46474680B585B080460F0016005C
:1019F00002AC3B222270DDB2124B994601230093C8
:101A000022002900484606F089FE00230093063391
:101A100022002900484606F08DFE227812026378E3
:101A2000134342461380A2781202E37813433B80AB
:101A30002279120263791343338005B0C0BCB946E2
:101A4000B046F0BD680C002000B585B00F226A4496
:101A500010700023009301333F21024806F05EFE20
:101A600005B000BD680C0020D0B504009626B60075
:101A700000273000390001F017FC04202043C0B2D9
:101A8000FFF7E2FF3000390001F00EFC04232000D4
:101A90009843FFF7D9FF3000390001F005FCD0BDB5
:101AA00070B50F2305009D436DB249B20D43082365
:101AB0001D43EDB204010C4364B21C43E4B22800A0
:101AC000FFF7C2FF2800FFF7CFFF2000FFF7BCFFA2
:101AD0002000FFF7C9FF70BD10B500210120FFF7FE
:101AE000DFFF10BD10B5002806D180310800C0B25C
:101AF0000021FFF7D5FF10BDC0310800F7E710B592
:101B0000040003E001340121FFF7CAFF2078002818
:101B1000F8D110BD10B500210320FFF7C1FF00214F
:101B20000320FFF7BDFF00210320FFF7B9FF0021CD
:101B30000220FFF7B5FF00210620FFF7B1FF0021CB
:101B40002820FFF7ADFF00210C20FFF7A9FFFFF7CA
:101B5000C3FF10BD10B54B1E042B25D8D30911D0DF
:101B6000C300134CA44663445960830011498C465A
:101B700063445A60D02109060B6A012282409343D4
:101B80000B6210BDC3000A4CA44663445960830035
:101B900008498C4663445A60D02109060B6A012229
:101BA000824013430B62ECE7034804F085FEE8E74C
:101BB0000040014000C00140588D00100200012982
:101BC00008D0022918D0D0231B065B68C34001202F
:101BD00018407047D0231B065B68C3401940074B71
:101BE000185C8142F5D0D0231B065B68D3400120EE
:101BF0001840024B9854ECE70020EAE780140020DC
:101C0000002908D1002A07D0D02109060B6901223A
:101C1000824013430B617047D02109060B690122F2
:101C2000824093430B61F6E710B580235B04984232
:101C30000CD8084B586007221A6007490B6A1B0230
:101C40001B0AC022120613430B6210BD034804F0A6
:101C500033FEFAE710E000E000ED00E0788D0010C0
:101C600070B504001500DB4B1A78082A1AD89300C7
:101C7000D94AD3589F46012200210F20FFF7C0FF09
:101C8000002200211620FFF7BBFF002200211220B6
:101C9000FFF7B6FF002200211320FFF7B1FFCD4B65
:101CA00001221A70CD4B1B68002B73D06378002B78
:101CB00000D14CE1CA4A022311680B431360A37898
:101CC000002B00D149E1C64A042311680B4313607D
:101CD000E378002B00D146E1C14A082311680B4389
:101CE00013602379002B00D143E1BD4A1023116812
:101CF0000B4313606379002B00D140E1B84A2023E5
:101D000011680B431360A379002B00D13DE1B44A65
:101D1000402311680B431360E379002B00D13AE1B3
:101D2000AF4A802311680B431360237A002B00D144
:101D300037E1AB4A80235B0011680B431360637A81
:101D4000002B00D133E1A64A80239B0011680B438E
:101D50001360A37A002B00D12FE1A14A8023DB007E
:101D600011680B431360E37A002B00D12BE19C4AEE
:101D700080231B0111680B431360237B002B00D1D0
:101D80003AE1974A80235B0111680B431360934B40
:101D900000221A60924B186870BD924B1B78042B7E
:101DA00003D001338F4A13707CE78A4B02221A70EA
:101DB0008C4B00221A7075E700210E20FFF7FEFE03
:101DC000607000210D20FFF7F9FE6B425D41054078
:101DD000657100210C20FFF7F1FE607200220021E6
:101DE0000F20FFF70DFF012200211620FFF708FF4B
:101DF000002200211220FFF703FF00220021132000
:101E0000FFF7FEFE734B03221A704BE7754B1B78EE
:101E1000042B03D00133734A137043E76D4B042244
:101E20001A70704B00221A703CE700210E20FFF759
:101E3000C5FE6B425D416EB20540A57000210D20CC
:101E4000FFF7BCFEA07100210C20FFF7B7FE304069
:101E5000A072002200210F20FFF7D2FE00220021F5
:101E60001620FFF7CDFE012200211220FFF7C8FE49
:101E7000002200211320FFF7C3FE564B05221A70E3
:101E800010E7584B1B78042B03D00133554A1370CD
:101E900008E7504B06221A70524B00221A7001E7D5
:101EA00000210E20FFF78AFE6B425D416EB20540B5
:101EB000E57000210D20FFF781FEE07100210C206C
:101EC000FFF77CFE3040E072002200210F20FFF778
:101ED00097FE002200211620FFF792FE002200212B
:101EE0001220FFF78DFE012200211320FFF788FE4C
:101EF000384B07221A70D5E63A4B1B78042B03D0D7
:101F00000133384A1370CDE6324B08221A70354B34
:101F100000221A70C6E600210E20FFF74FFE6B422A
:101F20005D416EB20540257100210D20FFF746FE90
:101F30003040207200210C20FFF740FE304020731B
:101F4000244B00221A70254B01321A60AAE6244A5B
:101F50000223116899431160B1E6214A04231168F4
:101F600099431160B4E61E4A082311689943116031
:101F7000B7E61B4A1023116899431160BAE6184A64
:101F80002023116899431160BDE6154A402311686A
:101F900099431160C0E6124A802311689943116089
:101FA000C3E60F4A104B11680B401360C7E60C4A9A
:101FB0000E4B11680B401360CBE6094A0C4B1168BD
:101FC0000B401360CFE6064A0A4B11680B401360C2
:101FD000D3E6C04635170020AC8D00105C10002001
:101FE000C81400203A170020FFFEFFFFFFFDFFFF8F
:101FF000FFFBFFFFFFF7FFFF024A034B11680B4097
:102000001360C4E6C8140020FFEFFFFF10B5830083
:10201000084A944663441C6840226240C02414402D
:102020008022520113431C60C000034B9C46604455
:10203000416010BD04C001400040014080000B4BD6
:102040009C46604400290DD00823002A0CD00422AD
:102050001343026853400C22134080225201104364
:10206000036070470023F0E70022F1E704C001405D
:1020700010B501238340D02212069362936105219B
:10208000FFF7C4FF10BD0000034B1B68022018407F
:10209000431E9841C0B2704700C00640EFF3108065
:1020A00072B6034B1B68002BFBD0BFF35F8F7047EA
:1020B0002C0100D0BFF35F8F024B00221A6080F327
:1020C000108870472C0100D0F8B506000C001500F0
:1020D000FFF7E4FFE308F718F15C07222240012331
:1020E00093400B4205D1DBB20B433B70FFF7E2FF9D
:1020F000F8BD2100280002F011F8F0B583B0060009
:10210000019114001F00FFF7C9FF00E00134BC4239
:102110000CD8E308F518F35C0721214001228A401E
:102120001A42F3D1D2B21A432A7001E00124644268
:10213000FFF7C0FF002C02DB200003B0F0BD019BC5
:10214000002BF9D0089801F0E9FF0000002307E018
:10215000054A9A189200BFF35F8F00211160013386
:102160001F2BF5D97047C04640000034054A10784F
:10217000431CDBB21370172B02D9130010221A7004
:102180007047C0468C0B002000B583B00100044BA3
:1021900000931F2318220348FFF7AFFF03B000BDD1
:1021A000D08D0010F00F0020074B9B68103080008E
:1021B0001950BFF35F8FBFF35F8F044B002119608D
:1021C00082F310887047C04600ED00E0240100D083
:1021D00010B5091A081F0A4B9C466144094A9142EE
:1021E00008D8C30706D440104005400D064B1843DD
:1021F00080B210BD054B064AA321064801F0F4FE4B
:10220000FC070000FE0F000000E0FFFFEC8D001057
:102210005C9000101C8E001010B5091A04394C088F
:10222000090B08D14905490D064A11430180064BA7
:102230002343438010BD054B054AAB21054801F0FF
:10224000D3FEC04600F0FFFF00F8FFFF788E0010BD
:10225000309000101C8E001001238340034A106848
:102260001840431E9841C0B27047C04600E100E0EC
:10227000002904D0034B1860034B18607047034BD0
:102280001860FBE780E200E000E100E080E100E0B0
:1022900010B5012383401800FFF7EAFF10BD0000CE
:1022A000024B9B6810308000C058704700ED00E082
:1022B00070B504000D00EFF3108672B60C4B1B686E
:1022C000002BFBD0BFF35F8F2000FFF7E9FF094B26
:1022D000984201D0A84205D1320029002000FFF722
:1022E00063FF70BD044B054A8621054801F07CFE62
:1022F000240100D0CD010010888E001090900010B5
:102300001C8E0010F0B5DE4657464E464546E0B5F9
:1023100089B0814601911500EFF3108A72B6744BB3
:102320001B68002BFBD0BFF35F8F724B0027DF577A
:10233000002F40DB7C00E419A4006F48241806221B
:10234000A2566C4B1A706D4B9A684B4610339B002B
:10235000D35898461E001B1A2F2B38D9684B984526
:102360002FD105AE674B33807B009B46D819800088
:10237000614B9846404402306349FFF729FF708063
:10238000624BB380FF23B371F571019B07935F44E8
:10239000BF0047440ECE0EC701231C43A046524641
:1023A00041464846FFF700FF09B0F0BCBB46B246C5
:1023B000A946A046F0BD564B564AD721564801F0D3
:1023C00013FE564B534ADE21534801F00DFEC04325
:1023D00040440C2102F0B6FF002912D101239E4394
:1023E000B34633000026DA79AA4211D9062159569C
:1023F00000290CDB4A00521892001E003E4B9B182D
:10240000F1E7474B434AEA21434801F0EDFD1E0046
:10241000002E3AD005AB434A1A80813A5A800623EF
:10242000F3560293002B17DA3F4805AB9B46988082
:10243000029A9A71DD71019A0792301D2100FFF70F
:10244000C7FEB080B7717B00DB199B002A4FFF18D5
:102450005B4607CB07C7A2E77800C0198000264B70
:10246000C0180430321DB388D90A1C2907D15B0576
:102470005915023149005118FFF7AAFED5E72B4B39
:102480002B4AB121244801F0AFFD05AE1D4B33802E
:102490007B000293D8198000174A904602004244FC
:1024A0000392901C1849FFF793FE7080039A101D49
:1024B0005946FFF78DFEB0801E4B5A464146521AD0
:1024C000524153431B0DB371F571019A0792029B60
:1024D0009C466744BF0047440ECE0EC7114B5A4678
:1024E0001380813B538001231C43A04657E7C0461D
:1024F000240100D027170020900B002000ED00E001
:10250000CD01001000A1FFFFC00B002001BDFFFFA7
:10251000C08E0010789000101C8E0010E88E001005
:10252000108F00100148000001BD0000848F0010D2
:1025300068900010AAAA0000F0B5CE46474680B5C4
:1025400083B006000D00EFF3108872B6564B1B687F
:10255000002BFBD0BFF35F8F544B9A6834001034CC
:10256000A300D758524B9F4207D0AF4200D198E00A
:102570000197504BFB1A2F2B09D9424639003000E6
:10258000FFF712FE03B0C0BCB946B046F0BD300044
:10259000FFF762FE814600213000FFF779FEBFF3AE
:1025A0005F8FEFF30581002901D08C4211D1012307
:1025B000019C9C430022A368AB4212D00622A25683
:1025C000002A0DDB53009B189B002200394CE418B5
:1025D000F1E73621384B394AFF31394801F004FD23
:1025E0002200AB4256D106256557002D38DB6B0023
:1025F0005B199A002F4B9B189A68A260DA79E271F6
:1026000006229A56A2719B795BB2002B0FDA2D48F5
:10261000A0806B005B199B00264AD3182A4A1178C8
:102620009971157049463000FFF732FEA5E7201D6D
:102630006B005B199B001F4A9B181A1D9B88D90AC7
:102640001C2907D15B055B15023359005118FFF7B0
:10265000BFFDDDE71D4B1E4AB121194801F0C4FC46
:10266000002912D1002A0ED0FF239371194B9380B9
:10267000154A1378A371184B0E49641A64416343D9
:102680001B0D1370CEE70A4FF2E7201D1349FFF729
:10269000C3FDC7E76A21124B084AFF31084801F021
:1026A000A3FC034F69E7C046240100D000ED00E021
:1026B000CD010010900B00209C8F0010489000105E
:1026C0001C8E001001BD000027170020848F001011
:1026D0006890001001BDFFFFAAAA0000CA0B0020ED
:1026E000D08F001070B5012101432E4BCB1A2F2B38
:1026F00028D8EFF30583002B2BD0EFF3108C72B6A4
:10270000294A1268002AFBD0BFF35F8F274A0400D2
:10271000244D641B64416243120D54B2244A9268F2
:102720009B00D2588A421BD00022032A32D8530081
:102730009B189B001B49CB189B795BB2A3421FD00F
:102740000132F2E7C7211B4B1B4A49001B4801F02D
:102750004BFC92211A4B184AFF31184801F044FCF7
:10276000134A92681749D150174B1A7882711C701E
:10277000BFF35F8F0C4B00221A608CF3108870BD82
:102780000D005300991889006918FF268E710F4AB1
:102790008A80E9E7D1210E4B074A4900074801F03A
:1027A00023FCC046900B0020240100D0AAAA000000
:1027B00000ED00E0D88F0010149000101C8E001067
:1027C00000900010CD0100102717002001BDFFFF71
:1027D0000C9000100022044B02E0044902C30132B5
:1027E000072AFAD97047C04600E400E08080808064
:1027F000024B9C46614489000160704740000034F0
:1028000010B50400FFF7B2FC01002000FFF7F0FF55
:10281000FF232371BFF35F8F10BD10B50400FFF7D6
:10282000A5FC01002000FFF7E3FFFF232371002335
:102830006371BFF35F8F10BD034B9C4661448900F9
:102840000160BFF35F8F70474000003410B5040093
:102850000120FFF799FC01002000FFF7EDFF10BDFC
:1028600070B505000C00080000F0F4FE09492000D6
:1028700000F034FEFFF77AFC074B9C466044800072
:1028800068602C75D0231B061B786B75A400034B66
:10289000E55070BDA52B001040000034B814002096
:1028A0000A4B1A68EFF3108172B61368002BFCD044
:1028B000BFF35F8F054B1B68BFF35F8F00221A6069
:1028C00081F3108840BF002000217047D0160020FF
:1028D00010B5002922D003681B7B99421ED8174BE4
:1028E0009C466144090183689C4661440C684968C0
:1028F000002A19D003681B7B9A4215D883680F48B9
:102900008446624412019A1810685368020001203C
:102910008B4201D80ED00020C0B210BD084B094A2E
:102920003C21094801F060FB054B064A3C21064862
:1029300001F05AFBA242EFD8EDE7C046FFFFFF0FC0
:10294000F891001078940010A491001010B500299F
:102950001ED0037B99421BD84B005B18033B0468D5
:10296000A4466344002919D0002A1DD0914221D0E9
:10297000002A25D0047BA24222D804685000801887
:10298000033820188170197800291FD11A7010BDE2
:10299000104B114A6821114801F026FB104B114AD7
:1029A0006F310E4801F020FB0F4B0E4A70210B488F
:1029B00001F01AFB0D4B0B4A7121084801F014FB82
:1029C000044B054A6821054801F00EFB41701A705E
:1029D000DDE7C0461C920010E4940010389200100D
:1029E000A0920010C0940010AC920010B892001099
:1029F00070B506000D001400002914D0002A14D070
:102A0000806873689847002806D0220029003000AB
:102A1000FFF79CFF280007E02A0021003000FFF7A5
:102A200095FF200000E0100070BD0800FCE70000EA
:102A3000F0B583B00500009201930AAB1C780BAB94
:102A40001F78002C26D003685A7B944207D10123BB
:102A5000002B19D1002C3BD1200003B0F0BD002C7D
:102A60000CD01A7B944209D81A6863001B19033BE7
:102A7000D3189B78002BEBD00123E9E73E4B3F4A6C
:102A800068213F4801F0B0FA3E4B3F4A67213F487A
:102A900001F0AAFA03689C7B002CDBD012D01A7BD1
:102AA00094420FD862001219033A19688C466244A6
:102AB00051789973002900D1D97300239370537012
:102AC0001370C7E72C4B2D4A68212D4801F08CFA72
:102AD000002C3AD02B681B7B9C4236D82C4BE31839
:102AE0001B01AA6894466344009A1A60019A5A60CE
:102AF000089A9A60099ADA602E68002C2BD030D0A0
:102B0000337B9C422DD863001B19033B32689446EB
:102B1000634400229A705A701A70717B2200300050
:102B2000FFF766FF7073844200D095E7287D009A16
:102B3000019B00F01BFD061E01D0002F17D00C9B3F
:102B4000002B00D188E71E7086E7124B124A3C2109
:102B50000E4801F049FA114B114AA521084801F02D
:102B600043FA054B054A6821054801F03DFA2868FB
:102B7000210000F033FFE2E71C920010E494001003
:102B800038920010D0920010F0940010A491001020
:102B9000FFFFFF0FF891001078940010A091001033
:102BA000D4940010F0B5DE4657464E464546E0B593
:102BB0008BB00990002308938200B54BD65837009C
:102BC00052E0B44BB44A3F21B44801F00DFAB44B83
:102BD000B44A3C21B44801F007FA002901D1002889
:102BE00069D10021404600F0EFFEA04219D12A68C9
:102BF0006B6806920793AB689846EB689A46434623
:102C0000002B14D0002C18D03B681B7B9C4214D89E
:102C1000631EFA68D35C08931B02184338610020D6
:102C200015E0A24BA24A8E219F4801F0DDF9A14B8D
:102C30009F4A92219C4801F0D7F9994B9E4A412125
:102C4000994801F0D1F900239A46984600207B6804
:102C5000BFF35F8F00221A6086F310884346002B73
:102C600032D1002800D10CE100F0F4FB02000B1E71
:102C7000A7DB00200021069007917868EFF310860B
:102C800072B601680029FCD0BFF35F8F39688846AF
:102C90004C7B002CD7D09AD0097B8C4297D887499F
:102CA00065182D01B9688C46654428686968801AE2
:102CB0009941002991DD2A686B68099800F056FC5B
:102CC00000239A469846C2E7089B1B022343994675
:102CD00051461800C04705000E007A68EFF3108BCC
:102CE00072B6136859424B41D9B2002BF9D1BFF3E8
:102CF0005F8F002E1EDB002E46DD3B69002B47D088
:102D00004B456DD100F0A6FB02000B1E6EDB521985
:102D10007341002B70DB002B72DB00210491013129
:102D20000391029451460191414600913800FFF70A
:102D30007FFE4CE03B69002BDDD04B4514D1069A59
:102D4000079B521BB341002B14DB002B16DB002129
:102D50000491013103910294514601914146009141
:102D60003800FFF765FE32E0554B514AA1214E482D
:102D700001F03AF901225242524BE6E7454B464AEE
:102D80003F21464801F030F9002E01D1002DB4D189
:102D90003B68002C50D05A7B944237D10121002946
:102DA0004AD1DA7B002A4DD19A7B002A03D1DA7B03
:102DB000002A5AD19C73DC73002C5CD03B681B7BCF
:102DC0009C4258D8FA68013C135D01331355002327
:102DD0003B617A68BFF35F8F13608BF3108843E722
:102DE000374B334AA421304801F0FEF8294B2A4AD8
:102DF0003F212A4801F0F8F801225242314B8AE77C
:102E0000244B254A3F21254801F0EEF8002C0DD037
:102E10001A7B94420AD862001219033A1868844651
:102E200062449278002ABAD00121B8E7264B274A9B
:102E30006821274801F0D8F8264B274AF621244874
:102E400001F0D2F8002A0AD0197B8A4207D8510033
:102E50008A18033A19688C4662445470A4E71A4BE6
:102E60001A4A68211A4801F0BFF81C4B1A4AFB2184
:102E7000174801F0B9F80A4B0F4A41210A4801F0FE
:102E8000B3F80BB0F0BCBB46B246A946A046F0BDB5
:102E9000B8140020C08C001044940010DC8C00108A
:102EA000F891001078940010A4910010F89200108E
:102EB0005C940010109300109C940010FFFFFF0F13
:102EC0001C930010FFFFFF7F1C920010E494001081
:102ED0003892001058930010B09400107C930010AA
:102EE00010B50C4B5B68002B04D00A210A48FFF791
:102EF0007FFC10BD074C2300084A1021206800F019
:102F000073FC032000F09AFA03212000FFF7A8FCCD
:102F1000EBE7C046D80B0020D0160020D1280010C7
:102F200010B5064B5B68002B01D0044810BD044B64
:102F3000044A5E21044801F057F8C046D80B00202F
:102F40009093001084940010A4910010F0B5DE4618
:102F500057464E464546E0B58BB0804616001F00EA
:102F6000149B9A46159B994616AB1B789B461F23CC
:102F700002AA9446634400221A702BE0002809D06C
:102F800042461268127B904204D8421E4146C968EC
:102F90008A5C41E0404B414A4121414801F024F81C
:102FA00007984CE0361BAF41002F07DB002F11DAEA
:102FB0003C4B3D4A3F213D4801F016F80126764240
:102FC0003B4FF3E7374B384A3F21384801F00CF8C4
:102FD000002F4FDB43465A68EFF3108472B6136834
:102FE00059424B41D9B20791002BF8D1BFF35F8F03
:102FF0001F3302AA9446634404930023039302936D
:103000004B4601935346009332003B004046FFF786
:103010000FFD031EB2D1020041464968BFF35F8F26
:1030200000250D6084F31088002B29D01F2302A9EE
:103030008C4663441B78002BB2D112021043002B44
:1030400020D05B46002B1DD04946D04704000D0020
:1030500003000B431DD00029A4DB00F0FBF90600A0
:103060000F1EAFDB36196F41002FB1DA0126764211
:103070000F4FADE70B4B0C4A3F210C4800F0B4FF5B
:10308000012040420BB0F0BCBB46B246A946A04668
:10309000F0BD0798F6E7C046F89100109C94001028
:1030A000A4910010C08C001044940010DC8C00101F
:1030B000FFFFFF7FF8B50400002900D162E04268FD
:1030C000EFF3108572B6136858424341D8B2002B13
:1030D000F9D1BFF35F8FCBB22268567BB3421BD1CD
:1030E0000120002848D0206988422BD0090AC9B2A3
:1030F000002B2ED02068007B83422AD8581EE66819
:10310000305C88422BD000206368BFF35F8F0022C1
:103110001A6085F31088F8BD002B0DD0167BB342E2
:103120000AD85E00F618033E1768BC466644B678B7
:10313000002ED6D00120D4E7134B144A682114483E
:1031400000F052FF2C21134B134AFF31134800F0BB
:103150004BFF134B134A4121104800F045FF190063
:10316000100000F03BFC0028CED199210E4B0A4AFA
:1031700049000A4800F038FF23698B42C4D100237C
:103180002361C1E70020C6E71C920010E494001000
:1031900038920010B49300102C940010A4910010E9
:1031A000F89100109C940010D8930010F0B587B0EF
:1031B00006000F00EFF30583002B1FD106246442A5
:1031C000E517A4197D418D4202D803D1844201D96B
:1031D00000240025002D14DB0494059500F03AF935
:1031E00002000B1E13DBA41A9D41002D17DC14D026
:1031F0003000390000F03AF907B0F0BD234800F084
:103200008DFF234B234A3F21234800F0EDFE204B46
:10321000204A3F21204800F0E7FE002CE8D0FFF7CD
:103220007FFE0023029301931C4B0093049A059B9D
:10323000FFF78CFE002818DADAE7002300E000230D
:10324000002BD5D1164B1A68EFF3108172B61368B4
:10325000002BFCD0BFF35F8F114B1B68BFF35F8F58
:1032600000221A6081F3108820BF0499059A0D4B43
:103270005B6A9A42E3D80B48806A884203D29A423A
:10328000DBD00123DCE70123DAE7C046DC93001042
:10329000C08C001044940010DC8C0010A128001099
:1032A000D01600200040054070B504000D0000F06D
:1032B000D1F802000B1E0ADB2000290080185941BA
:1032C00000290ADB00290CDBFFF770FF70BD084BFB
:1032D000084A3F21084800F087FE01204042074984
:1032E000F0E7034B034A3F21034800F07DFEC04650
:1032F000C08C001044940010DC8C0010FFFFFF7F96
:1033000070B584B005000C00EFF30583002B1ED1CF
:10331000FFF706FE002302930193224B00932A003D
:103320002300FFF713FE061E23DD20BFFFF7F8FD85
:103330003100FFF7BFFE1C4B5B6A9C422DD81A4A36
:10334000926AAA422CD29C4225D0012026E0164B3C
:103350005B6A994209D8144A926A824207D299421A
:1033600001D001201AE0002018E0002016E0012022
:1033700014E00D4B5B6A9C4209D80B4A926AAA4240
:1033800007D29C4201D0012008E0002006E0002086
:1033900004E0012002E0002000E0002004B070BD45
:1033A0000120FBE7A12800100040054070B5EFF3B5
:1033B00005801038EFF3108C72B61A4B1B68002B87
:1033C000FBD0BFF35F8F01221300834016494B638C
:1033D00016490B60164909780C00C440224214D0EB
:1033E000114A546A8200134D5259944206D3820006
:1033F000114C125999430E4B197007E00A4A031DEC
:103400009B0099589950002200E00022BFF35F8F83
:10341000044B002119608CF31088002A00D09047DB
:1034200070BDC046280100D0004005403C700540FA
:1034300036170020DC160020A80F002010B5010070
:10344000024A0348FEF740FE10BDC0460895001032
:103450001F170020044B5B6A034A906A1900536AE5
:103460009942F9D17047C04600400540084B5B6A5D
:1034700001E0074B5B6A8B42FBD301E0044B5B6AC4
:103480008B4203D1024B9B6A8342F7D37047C046FD
:103490000040054070B504000D00FFF7DBFF02009F
:1034A0000B0020002900801859418B4202D804D11A
:1034B000824202D901204042C117002902DBFFF7F6
:1034C000D5FF70BD024B034A3F21034800F08CFD3D
:1034D000C08C0010CC950010DC8C001070B504007E
:1034E0000D00EFF3108672B61B4B1B68002BFBD050
:1034F000BFF35F8F002D1CD02000FEF7D1FE174BCD
:1035000083420BD019002000FEF7D2FE01212000DB
:10351000FEF7BEFE0123A340114A1360A400114B25
:10352000E550BFF35F8F0C4B00221A6086F31088C2
:1035300070BDA2000B4B0021D1500122A2400A49CC
:103540000B7893430B7005492000FEF7F5FF00212F
:103550002000FEF79DFEE4E7280100D0AD33001007
:1035600038600540A80F002036170020F0B5DE4671
:1035700000B584B00400150001921E000293FFF70D
:1035800069FF03958E4202D84ED185424CD9EFF3A4
:10359000108B72B6274B1B68002BFBD0BFF35F8FDD
:1035A000254A17780125A540EBB23B431370234B06
:1035B0005D63221D92000199D150A200204902981A
:1035C00050501B6A2B4212D11C4B1B6C2B4208D053
:1035D0000020BFF35F8F174B00221A608BF3108817
:1035E00023E0184B184AC521184800F0FDFCFFF7EE
:1035F00031FF8E4214D802D1039B834210D80E4B68
:103600001B78BB420ED00D4B1D625D631F20044032
:103610000123A3400E4A1360074B1F701E38D8E7E2
:103620000020D6E70120D4E7012004B080BCBB46CF
:10363000F0BDC046280100D03617002000400540EC
:10364000DC1600202C950010B0950010509500104D
:1036500080E200E0EFF3108C72B60B4B1B68002B7E
:10366000FBD0BFF35F8F01238340084A13620849F0
:103670000A789A430A70BFF35F8F034B00221A60E7
:103680008CF310887047C046280100D000400540E8
:103690003617002010B500291ED0037B99421BD895
:1036A0004B005B18033B0468A4466344002919D00F
:1036B000002A1DD0914221D0002A25D0047BA242AD
:1036C00022D80468500080180338201881701978B7
:1036D00000291FD11A7010BD104B114A68211148E2
:1036E00000F082FC104B114A6F310E4800F07CFC58
:1036F0000F4B0E4A70210B4800F076FC0D4B0B4A25
:103700007121084800F070FC044B054A6821054807
:1037100000F06AFC41701A70DDE7C0461C92001090
:10372000EC96001038920010A0920010D89600106D
:10373000AC920010B892001070B506000D00140095
:10374000002914D0002A14D0806873689847002894
:1037500006D0220029003000FFF79CFF280007E078
:103760002A0021003000FFF795FF200000E0100044
:1037700070BD0800FCE7000010B50023437301335F
:103780008373037BC3730123027B9A4214D9002BFA
:103790000CD0027B934209D85A00D218033A016830
:1037A0008C4662440133DBB25370EDE70B4B0C4A9D
:1037B00068210C4800F018FC002A09D0924207D872
:1037C000016853009A18033A8A180023537010BDF9
:1037D000024B034A6821034800F006FC1C920010CB
:1037E000EC9600103892001010B5017342608360AF
:1037F000FFF7C2FF10BD000070B50400081E00D125
:1038000070BD002934D0237B994231D84B005B181E
:10381000033B2268944663445A78002AF0D02DD0A6
:10382000237B9A422AD853009B18033B21688C467D
:1038300063445D7800215970002825D0237B98428D
:1038400022D843001B18033B21688C4663440021A7
:10385000597001002000FFF76FFF060029002000CB
:10386000FFF7CAFF020031002000FFF765FFC7E73E
:10387000084B094A6821094800F0B6FB054B064A87
:103880006821064800F0B0FB024B034A6821034858
:1038900000F0AAFB1C920010EC9600103892001069
:1038A00070B505000C00160000292FD034D0037B22
:1038B000994231D84B005B18033B0268944663443D
:1038C0005A78002A2ED19A78002A31D11978FFF738
:1038D00093FF0300002E0AD0EA7B002A2ED1AA7B98
:1038E000002A03D1EA7B002A3BD1AC73EC73002B96
:1038F0003DD1002C4FD02B7B9C424CD82B686100D3
:103900000C19033C1C190023637070BD254B264A1B
:103910003821264800F068FB254B264A68212648B6
:1039200000F062FB254B204A3A21204800F05CFB66
:10393000234B1D4A3B211D4800F056FB002A0AD0AC
:10394000297B8A4207D851008A18033A29688C4695
:1039500062445470C3E7164B164A6821164800F0BB
:1039600043FB184B104A4221104800F03DFB002B4E
:103970000BD02A7B934208D843001B18033B2A68CC
:103980009446634400229A70B3E7094B094A6821C0
:10399000094800F029FB064B064A6821064800F05A
:1039A00023FBC046E4950010C4960010EC9500106F
:1039B0001C920010EC9600103892001040960010F7
:1039C000689600107C93001070B504000A00457BD7
:1039D0002900FFF765FF6073280070BD70B5040013
:1039E000002967D0437B8B420ED0002911D0037B86
:1039F00099420ED84B005B18033B0268D0188378BD
:103A0000002B0CD1002056E00121FFF7DDFF012043
:103A100051E0294B294A6821294800F0E5FA002B9A
:103A200020D0227B93421DD85A00D318033B226832
:103A3000D2182568EB5C8B421AD0002B1BD0227B5E
:103A4000934218D85A00D318033B2268D2185378EF
:103A50008B4216D0002BF0D11A4B1B4A6B211B480E
:103A600000F0C2FA144B154A6821154800F0BCFA60
:103A70004378137007E0104B104A6821104800F09B
:103A8000B3FA4378537000238370437001222000FF
:103A9000FFF706FF0200617B814205D02000FFF79F
:103AA0004BFE6073012006E0094B074A712107486D
:103AB00000F09AFA002070BD1C920010EC960010E5
:103AC000389200100C900010AC960010EC9500108D
:103AD0008C96001070B5046BE30701D4200070BD14
:103AE00002003032C0239B0113430A4A1A60456A20
:103AF000826AAD01AD18AD02062000F0BDF906499D
:103B000001F020FC0100280001F01CFC0021FFF75F
:103B1000C1FCE3E7010300004E0E000070B5040095
:103B20000E001500FFF7D6FF22002C32E16A4E404E
:103B3000354080235B0113431D60206370BD00008E
:103B400070B505000C00062000F096F9C0002100B9
:103B500001F0F8FBC60908D00E4B9E4216D87F2311
:103B6000184001303400460800E001246C62AE6267
:103B7000002200212800FFF7D1FF062000F07CF989
:103B80008000A101891901F0DDFB70BD0026024C07
:103B9000ECE7C046FEFF0000FFFF000010B505394E
:103BA0004901013AD2001143002B09D002220A43F5
:103BB000012B07D0002111436E22FFF7AFFF10BD8C
:103BC0000022F4E70421F6E7002909D00A22064B77
:103BD0009C466044434258414000044BC2527047E7
:103BE00080225200F3E7C0460080FCBF0817002087
:103BF00070B505000C00062000F03EF9061E27D027
:103C0000164B9D4226D08022D203154B1A60154BCD
:103C10001A60154B9B6811009943FAD100212800C6
:103C2000FFF7D2FF21002800FFF78AFF06000023DC
:103C3000012208212800FFF7B1FF2A002C3280233F
:103C40009B01134310221A60084B2B630323AB64C0
:103C5000300070BD80221204D7E7C04600800340C8
:103C600000E0004000F0004000C000400103000000
:103C7000F8B5DE4657464E464546E0B505000F000E
:103C800092460A9A934250D31A0E91461E020A9AFD
:103C900000233000494601F093FB80466C00641914
:103CA000A400304B9C4664446368834200D2606049
:103CB0002B1FDBB29B46012B3DD9C0239B01234325
:103CC000802212011A60AB00274A9958002907D0B8
:103CD000506901F037FB431C5800C0180338FDD26F
:103CE00053465A0123685A40E0231A4080235B015F
:103CF00023431A605A46012A28D980239B01234373
:103D0000802212011A60434663604246002330005D
:103D1000494601F055FBAD00134B58510120F0BC52
:103D2000BB46B246A946A046F8BD104B104A332107
:103D3000104800F059F9012FBFD1C0239B01234344
:103D400003221A60A368DB07FCD5C9E72168794024
:103D500003220A401A60A2680123BB401342FAD032
:103D6000CBE7C04600800040F40F0020F89600101A
:103D70006C9700100C97001030B583B00C2000F049
:103D800011F9FEF781F900280DD0002304E0990015
:103D90002D4A2E4888500133092BF8D92A4B2C4A3A
:103DA0005A6203B030BD2B4B00229A6700F002F933
:103DB000294B01221A60274B5B6C012BFBD1274B4F
:103DC00003221A60234B9B6B012BFBD10133009321
:103DD0000433234A0121234800F054F805230093BB
:103DE000214A0121214800F04DF8214B0093002287
:103DF00002210420FFF73CFF1E4D00952B000022FE
:103E000001210520FFF734FF104C0094230000220D
:103E100000210720FFF72CFF00942300002200213F
:103E20000820FFF725FF0A4B009323000022002102
:103E30000920FFF71DFF00952B000022002106201E
:103E4000FFF716FFADE7C046F40F0020006CDC0260
:103E50001BB70000008000403CB0004030B0004084
:103E6000002F685900800240008C864700C0024045
:103E7000001BB700405973078000014BC0587047C2
:103E8000F40F0020F0B5C64600B504000E00170080
:103E90001D00374801F056FA8046364BFA18364B6B
:103EA0009A4239D80100380001F04CFA0200103A69
:103EB00098235B009A4235D86B1E062B38D8069B98
:103EC000013B062B34D83F09474537D32D04069BC9
:103ED0001A0315432368002B36DB284B9C4244D041
:103EE00080225201264B1A60264B1A60264B9B6893
:103EF00011009943FAD12660A060231DC0229201CF
:103F00001A43212313602368002BFCDAE5600823A1
:103F1000136080BCB846F0BD1C4B1D4A11211D48E2
:103F200000F062F81C4B1A4A19211A4800F05CF89C
:103F30001A4B174A1C21174800F056F8184B144A20
:103F40002321144800F050F822683F231340B34265
:103F5000C3D1A3681B051B0D8342BED1E368EE22CB
:103F6000D2021340AB42B8D1D3E780229201B9E725
:103F7000001BB70080E84BD380F8A93200C0024094
:103F800000E0004000F0004000C000407C970010BE
:103F9000BC980010DC97001038980010549800105E
:103FA000A098001080239B000343014AD36270470E
:103FB00000800540064BAA2212011A602F22DA6007
:103FC000044B054A1A60024B5B68002BFBDA704712
:103FD000004002400060024000B0FA0000BEFDE771
:103FE00010B5FFF7FBFF000010B582B00C00190000
:103FF000002A0CD0084B002A0BD00192009323001A
:104000000200064802F058FC0120FFF7E7FF044BCE
:10401000F1E7034AF1E7C046C8980010D8980010AD
:10402000B08A001070B52B4B2B4A1A602B4B2C4AD0
:104030001A602C4B9A682A4B9343FAD12A4C01E020
:1040400008CC9847294B9C42FAD3FFF795FE234BA7
:10405000274A1A60234B9B68DB43DB01FAD1254BCF
:1040600040229A675A671A67DA66234C09E0234BA5
:10407000234A87212348FFF7B7FF2000FEF7C0FB44
:104080000834214B9C4209D22368002BF5D0012B28
:10409000EDD12000FEF7C1FB0834F2E71B4CA1680C
:1040A0001B4DC022280002F0AFFAA560EFF3058394
:1040B000002B00D000BEFEF749F8FEF78BFBFEF7A1
:1040C0000FFF144C01E008CC9847134B9C42FAD3E5
:1040D00070BDC04600E00040BFCDFBFE00F00040D8
:1040E000FE7F3C0000C00040780C0020880C0020BF
:1040F000FFFFFF0100F00140700C00200899001044
:104100009C99001028990010780C002000ED00E028
:1041100000000020880C0020900C00200FB400B597
:1041200083B0084802F098FB049B002B07D005A938
:104130000191180002F0A0FB034802F08DFB012062
:10414000FFF74CFF8899001098990010704710B540
:10415000002802D00B684968984710BD0100002074
:1041600007E083001B185B00501C08601078C01823
:1041700030380A681378303BDBB2092BF1D970472D
:10418000F0B5DE4657464E464546E0B583B0934609
:104190001F000C9B9A460D9C0E9B99460F9B9B07FC
:1041A00003D0B8460F00060022E00192A3468846DD
:1041B0004E46B9460700B44207D2551C4B4641460D
:1041C0002020B84701342A00F5E73D004F465C4601
:1041D000019B9B46B1464646B84637002E0007E095
:1041E000013C551C5346185D43463900B0472A0030
:1041F000002CF5D135003E0047460F9B9B0707D4A6
:10420000100003B0F0BCBB46B246A946A046F0BDC4
:10421000B0464E46B9462F005D46531BB342EFD21F
:10422000541C4B4641462020B8472200F5E7F0B524
:10423000CE46474680B585B0944698460C9D0D9C69
:104240000EAB1B789946109A119B129EB7071CD48F
:10425000002B0CD0F7070AD54F46002F02D10C37A0
:10426000374204D0013B02E030272F5501349442FD
:1042700001D21F2CF8D9F70707D59C4205D21F2C75
:1042800003D830272F550134F5E7F70615D5770504
:1042900005D4002C03D0944224D09C4222D00F9A03
:1042A000102A2BD00F9A102A30D00F9A022A35D01C
:1042B0001F2C02D830222A5501341F2C05D84A461B
:1042C000002A31D02D222A550134039602930194FD
:1042D000009543466246FFF753FF05B0C0BCB946A0
:1042E000B046F0BD621E012C06D00F9F102F01D0EA
:1042F0001400D4E7023CD2E71400D0E7B206D1D4D0
:104300001F2CCFD878222A550134D1E7B206CCD55C
:104310001F2CCAD858222A550134C9E71F2CC7D8E8
:1043200060322A550134C3E7720703D52B222A5580
:104330000134CAE73207C8D520222A550134C4E720
:10434000F0B5DE4657464E464546E0B593B0814649
:104350008A46089209931CAB10CB1B789B461E9D86
:10436000219B9846002C03D1102342469A43904645
:104370008023DB0046461E4042461A4212D0002CE3
:1043800022D000260EE03033D9B2771C0AAB995503
:104390002900200000F0D6FFAC4216D31F2F14D8FE
:1043A0003E0004002900200000F0CCFFCBB2092B16
:1043B000E9D94246920605D54121C918C9B20A3940
:1043C000C9B2E2E76121F8E7270043460693209B44
:1043D00005931F9B049303955B46029301970AABD9
:1043E0000093099B089A51464846FFF720FF13B0F7
:1043F000F0BCBB46B246A946A046F0BDF0B5DE46CD
:1044000057464E464546E0B595B0089009910A9248
:104410000B931E9E1F9C20AB1B789B46229B9946AC
:10442000239D269B9A463300234303D110335246E3
:104430009A4392468023DB0057461F4052461A4259
:1044400019D0330023432DD0002714E03033DAB2E3
:104450007B1C98460CABDA554A462B0030002100F5
:1044600000F0AEFFA5421FD819D043461F2B1BD822
:10447000474606000C004A462B003000210000F0A1
:104480009FFFD3B2092BE1D95246920605D54122AE
:10449000D218D2B20A3AD2B2DAE76122F8E7B145CD
:1044A000E3D901E00023984653460693259B0593E4
:1044B000249B04934B4603935B460293434601932C
:1044C0000CAB00930B9B0A9A09990898FFF7AFFE73
:1044D00015B0F0BCBB46B246A946A046F0BD0000F0
:1044E000F0B5DE4657464E464546E0B591B08346A8
:1044F0008A460C9298461A9C08941B9D09952200A6
:104500002B002000290001F0F2F9002800D0E5E09E
:1045100001225242D74B2000290001F0E3F9002884
:1045200000D0DBE001225242D34B2000290001F0F1
:10453000C3F9002800D0D1E000220023089E3000FB
:10454000099D290001F0B8F9002800D0DDE00898A5
:104550000999069007918023DB001E9A1A400D925C
:104560001E9A1A4201D106231C930698079904004B
:104570000D000A000600024300D1D1E0080D4005FD
:10458000400DBE4CA44660440A03120BBC4B1343BF
:104590001F0001F0BFF9BB4ABB4B01F04AF9BB4A0F
:1045A000BB4B01F01FF904000D000022B94B300095
:1045B000390001F00EF9B84AB84B01F03AF902009F
:1045C0000B002000290001F00DF901F0BBF9814634
:1045D00001F0A0F904000D00B14AB24B01F029F935
:1045E0000022B14B01F0FEF801F0ACF90600AF4A31
:1045F000AF4B2000290001F01CF904000D00300031
:1046000001F088F9AB4AAC4B01F013F902000B0042
:104610002000290001F0DDF804000D0002000B006D
:1046200001F007F90A900B91A44BF31800261F051F
:1046300022002B002000290001F0D4F80E900F91E9
:1046400022002B0000208021C90501F0C2F80400DF
:104650000D0000229A4B0A980B9901F0CCF8002229
:10466000984B01F0BFF802000B000A980B9901F07B
:10467000C2F80022944B01F0B5F802000B000A9832
:104680000B9901F0B8F802000B002000290001F09E
:10469000A9F802000B000E980F9901F0ACF8002267
:1046A000774B01F09FF832003B0001F0C2F80600A2
:1046B0000F0004000D00069A079B01F013F9002873
:1046C00030D001235B429C46E14400227D4B300008
:1046D000390001F090F804000D0023E01E9B0493C4
:1046E0001D9B03931C9B0293089A099B00920193C4
:1046F00043460C9A5146584600F0FCF811B0F0BC05
:10470000BB46B246A946A046F0BD0023002406934E
:104710000794069680231B069C46654407951AE776
:10472000002399464B466333C62B1ED804261E9B96
:104730001B0526D52B0023430FD0644A644B0698F3
:10474000079901F0C7F8002879D00022614B06983C
:10475000079901F0B1F8002871D01C9B4B4506DD8C
:104760004A46981A431E1C9303E00526DFE7002300
:104770001C938023DB001E9A1A431E9200260023FE
:1047800099461D9B9E4264D29F1B02231E9A1A408B
:104790000A921E9A134202D0002E00D000274B46E8
:1047A000002B07D022002B000698079901F023F870
:1047B00006900791002200230898099901F07CF8DF
:1047C000002848D1444B1E9A1340049303971C9B26
:1047D0000293069B079C0093019443460C9A514612
:1047E000584600F087F8002E00D187E71E9B9B06F5
:1047F0003DD54525441C4346020051462800D84774
:104800004B46DA179B18534005220592013E049649
:10481000002203920A3202924A46D00F019000937E
:104820004346220051465846FFF78AFD0A9B002B5B
:1048300000D163E702005F460C9E1D9D54E01C9B67
:10484000002B9ED00D9B002B9BD01C9B013B1C93EF
:1048500097E7002799E7069C079D22002900802002
:104860000006844661440B0006920793AAE765257B
:10487000C0E7C046FFFFEF7FFFFFEFFF01FCFFFF38
:104880000000F03FFB799F501344D33FB3C8608BC7
:10489000288AC63F0000F83F61436F63A787D23F75
:1048A00071A379094F930A400000E03F1655B5BB4C
:1048B000B16B0240EF39FAFE422EE63FFF030000E3
:1048C00000002C4000002440000018402D431CEB49
:1048D000E2361A3F80842E41FFF7FFFF541C434607
:1048E00051462020B8472200931BAB42F6D310005C
:1048F00004E7C046F0B5DE4657464E464546E0B5AD
:1049000095B00690079193469946209F1E9A1F9B4B
:104910001000190000F0EBFF002831D101225242B3
:10492000BF4B1E981F9900F0C7FF002837D1012206
:104930005242BC4B1E981F9900F0D4FF00283DD175
:104940000022B94B1E981F9900F0CCFF002850D1CF
:104950000022B64B1E981F9900F0AEFF002848D1E8
:10496000002200231E981F9900F0A6FF002850D1B6
:1049700000239846229B5B0500D4B6E0002458E053
:10498000229B0393219B029303230193A84B009343
:104990004B465A4607990698FFF7F2FB0EE1229B19
:1049A0000393219B029304230193A24B00934B4654
:1049B0005A4607990698FFF7E3FBFFE00423229A83
:1049C0001A4022990B4210D09B4B002A0FD0042290
:1049D0002299039121990291019200934B465A46E4
:1049E00007990698FFF7CCFBE8E0944BEDE703222C
:1049F000EEE7229B0493219B039302971E9B1F9C2F
:104A0000009301944B465A4607990698FFF768FDB4
:104A1000D4E01E9A1F9B0020002100F0DAFE1E90B9
:104A20001F9101239846A5E70CAB30221A55013F90
:104A300001341F2C01D8092FF6D81E981F9900F0B9
:104A400081FF050000F066FF02000B001E981F9911
:104A500000F0BFFEFA007A4B9B181A685B680A9256
:104A60000B9300F0E6FE0890099100F08FFF06001E
:104A700000F04CFF02000B000898099900F0A9FE15
:104A80000890099100226F4B00F02CFF00282ED0D7
:104A90000136300000F03AFF02000B000A980B9933
:104AA00000F010FF002801D001350026002F2CD186
:104AB000280000F02FFF02000B001E981F9900F045
:104AC00088FE06000F0000225E4B00F0F5FE002875
:104AD00046D100225B4B3000390000F003FF002874
:104AE0003ED1EB073CD501353AE0062746E70022E8
:104AF000544B0898099900F0DFFE0028D6D1002E0B
:104B000001D0F307D2D50136D0E7AA461F2C11D821
:104B1000013F0A21300000F015FC651C30310CAB60
:104B200019550A21300000F00DFC092E0ED906009F
:104B30002C00EBE755461F2C0CD87B1E002F09D00C
:104B40000CAA302111551F000134F4E72B00554603
:104B50001C00F0E71F2C03D80CAB2E221A55013491
:104B60001F2C10D80A21280000F0C4FB661C30312D
:104B70000CAB19550A21280000F0BCFB051E01D022
:104B80003400EDE734000323229A1340012B1CD09C
:104B90001F2C06D84346002B32D00CAB2D221A55C1
:104BA0000134229B0393219B029301940CAB00934D
:104BB0004B465A4607990698FFF7E2FA15B0F0BC43
:104BC000BB46B246A946A046F0BD219B002B13D0A0
:104BD0004346002B02D10C3313420FD0219B013BE3
:104BE0002193190003E00CAB30221A5501348C429A
:104BF000CED21F2CF7D9CBE72199F8E72199F6E718
:104C0000229B5B0704D50CAB2B221A550134C8E755
:104C1000229B1B07C5D50CAB20221A550134C0E7D7
:104C2000FFFFEFFFFFFFEF7F65CDCD4165CDCDC12C
:104C3000B8990010BC990010B0990010AC99001000
:104C4000A89B00100000E03FF0B5DE4657464E46F8
:104C50004546E0B593B082468B46904611930029B5
:104C600000D1EBE200275546119B1878002800D1AF
:104C7000E7E2252809D07C1C43463A005946A8475C
:104C8000119B013311932700EEE7013311930024A8
:104C9000119A11780B00203BD8B2102803D883005A
:104CA000D048C3589F460B00303BDBB2092B2CD9B0
:104CB0002A292FD000230A93119B1A782E2A39D043
:104CC00000239A46119A1378683BD9B2122976D8F4
:104CD0008B00C549CB589F4601231C4301321192DA
:104CE000D6E702231C4301321192D1E704231C436F
:104CF00001321192CCE708231C4301321192C7E71D
:104D000010231C4301321192C2E711A8FFF726FAC3
:104D10000A90D1E71C9B1A1D1C921868002804DB1E
:104D20000A90119B01331193C6E702231C434342AF
:104D30000A93F6E78022D20014435A1C11925A7843
:104D40001300303BDBB2092B04D92A2A07D00023F9
:104D50009A46B7E711A8FFF701FA8246B2E71C9B13
:104D60001A1D1C921868002804DB8246119B01332F
:104D70001193A7E70020F8E780235B002343511C31
:104D8000119152786C2A01D01C0018E0C0239B00BE
:104D90001C430131119112E080232343511C1191D6
:104DA0005278682A01D01C0009E0C0231C4301315D
:104DB000119104E080235B001C4301321192119B8E
:104DC00018780300253BDAB2532A00D92CE293006D
:104DD000864AD3589F4680239B001C430132119280
:104DE000EDE780235B001C4301321192E7E778284E
:104DF00009D0582838D06F2838D0622838D01023EE
:104E00009C430A2600E01026582833D0692803D096
:104E1000642801D00C229443630501D501229443F8
:104E200069282AD0642828D0A30500D59FE0E3058F
:104E300000D5B8E0630600D4CAE01C9A111D1C918D
:104E40001168FF220A4005940A9B0493534603937A
:104E5000029600230193009243463A0059462800E7
:104E6000FFF76EFA070027E01026CDE70826CBE70C
:104E70000226C9E720221443C8E7A30520D4E3058E
:104E800050D4630666D51C9A111D1C911168FF222F
:104E90000A40D317D118594005940A9B04935346EE
:104EA00003930296D20F0192009143463A0059466D
:104EB0002800FFF745FA0700119B01331193D3E651
:104EC0001C9BDA1D07218A43110008311C911168CF
:104ED00053689C46DB170C930D930C9A0D9B1000A6
:104EE00048400E90624653400F930E980F990C9ACB
:104EF0000D9B801A99410E900F9108940A9B07937D
:104F0000534606930496002305936346DA0F0292F4
:104F10000090019143463A0059462800FFF76EFA87
:104F20000700C9E71C9A111D1C911268D317D118EC
:104F3000594005940A9B0493534603930296D20F5B
:104F40000192009143463A0059462800FFF7F8F9CC
:104F50000700B1E7230605D51C9A111D1C910023FB
:104F6000D25E96E71C9A111D1C91126891E71C9B5A
:104F7000DA1D07218A43110008311C9108940A9B0D
:104F800007935346069304960023059302931368F0
:104F900054680093019443463A0059462800FFF7AD
:104FA0002DFA070088E71C9A111D1C9105940A9B95
:104FB00004935346039302960023019313680093CE
:104FC00043463A0059462800FFF7BAF9070073E74D
:104FD00023060DD51C9A111D1C9112681204120C87
:104FE00031E7C046C4990010089A0010549A001086
:104FF0001C9A111D1C91126825E746281AD01C9B8B
:105000000733072293431A0008321C9204940A9A29
:105010000392524602925C681B68009301944346D7
:105020003A0059462800FFF765FC0700119B013341
:10503000119319E620231C43E1E7672801D0472894
:1050400002D180231B011C43452801D0472801D1F0
:1050500020231C431C9B0733072293431A0008326A
:105060001C9204940A9A0392524602925C681B684E
:105070000093019443463A0059462800FFF730FA5E
:105080000700119B01331193EEE502231A00224021
:10509000924623421FD001241C9B1A1D1C927A1C8D
:1050A0009146187843463A005946A8475346002B84
:1050B00016D1119B013311934F46D5E5561C43463B
:1050C00059462020B847230032005C1C9D42F5D889
:1050D0003D001700E0E701233A002F000A9DF4E7A6
:1050E0004A46A9460A9D06E0571C434659462020D9
:1050F000C84734003A00661CA542F5D84D46914693
:10510000D7E71C9B1A1D1C921B6899465346002B1F
:1051100000D1013B4E4601E0013613003278002AEF
:1051200002D05A1E002BF7D14B46F21A1092802360
:10513000DB0026001E401C4203D0524501D95346D5
:10514000109302231A0022400B92234205D03A000A
:1051500037004C46A946554620E03A00109B5F4672
:10516000B3462E0006E0551C434639002020B047C8
:1051700023002A005C1C0A999942F4D835005E4647
:10518000BB46109437004C46A946554606E01D0024
:105190000134561C43465946C8473200207800283F
:1051A00004D0002FF4D06B1E002DF0D117004D4617
:1051B0000B9B002B03D1119B0133119354E50A9FE4
:1051C000109B06E0561C434659462020A847230062
:1051D00032005C1C9F42F5D81700ECE721231C43EA
:1051E0001C9B1A1D1C921B680093059408230493B2
:1051F00053460393102302930023019343463A003E
:1052000059462800FFF79CF80700119B01331193C2
:105210002AE57C1C43463A0059462520A847119BA5
:105220000133119327001FE57C1C43463A00594681
:10523000A847119B01331193270015E50A4B9A46A5
:1052400010E5AA46474502D343465A1E00E03A00FD
:10525000434659460020D047380013B0F0BCBB4647
:10526000B246A946A046F0BD4D41001000B585B03C
:10527000029003910121009313004A4202A90248BF
:10528000FFF7E2FC05B000BD4F41001001480421CA
:10529000014B1847000C0020BD52001010B5010052
:1052A00018231B8814221088984710BD10B50100E0
:1052B00018231B8816221088984710BDF0B5C646E3
:1052C00000B507000E0000250123984600E00135D7
:1052D000B5420AD2AC003C192068FFF7DFFF20601E
:1052E0000028F4D100239846F1E7404680BCB84638
:1052F000F0BD0000124A936F9B0815D29066D166EC
:10530000002905D0FFE7FFE7FFE7516F106F7047F7
:1053100004B580210906C2175140002800D0C843B7
:1053200003F0E2FA002104BDF0B5146E556E576F1C
:10533000166FFFF7E3FF1466556657671667F0BDF3
:10534000000000D0114A936F9B0813D2106651667B
:10535000002905D0FFE7FFE7FFE7516F106F7047A7
:1053600004B5002801D00020C04303F0BDFA00219D
:1053700004BDC046F0B5146E556E576F166FFFF73B
:10538000E5FF1466556657671667F0BD000000D04C
:1053900094464A4A926F9208624601D228E0C0467B
:1053A000F0B5464E346E756E776F366F00F020F8AC
:1053B0009446424A14665566576716676246F0BDC2
:1053C00094463E4A926F9208624601D254E0C0462B
:1053D000F0B53A4E346E756E776F366F00F04CF85C
:1053E0009446364A14665566576716676246F0BD9E
:1053F000002B24DB11D000293EDA00B5C94340421E
:1054000000D1013100F038F8C943404200D10131E8
:10541000DB43524200D1013300BD002AEBD100280A
:1054200001D1002905D00020C90FC90701D1C0430F
:10543000410800B503F048FA0022002300BD00B582
:1054400000290ADBDB43524200D1013300F014F89B
:10545000C943404200D1013100BDC943404200D19F
:105460000131DB43524200D1013300F005F8DB4348
:10547000524200D1013300BD002923D1002B18D1A5
:10548000002A0CD0BC460D4F38667A6600210023F6
:10549000FFE7FFE7FFE77A6F386F6746704700283E
:1054A00001D00748010000B503F00EFA00220023E6
:1054B00000BD02000B00002000217047000000D05A
:1054C000FFFFFFFF002B00D0BFE0130C28D1002A04
:1054D000E7D080B4114F39667A66FFE7FFE730B452
:1054E000040C7B6F396F1B0423433B667A66FFE72E
:1054F000FFE7FFE7C04684B27B6F3D6F1B04234389
:105500003B667A66FFE7FFE7C04600232C042D0CBC
:105510007A6F386F00196941B0BC7047000000D045
:10552000F0B594460025140E01D112020835140F6F
:1055300001D112010435940F01D192000235D40F2C
:1055400001D152000135D40B0134254F7C66254C26
:105550003C660E0C93B2FFE7FFE7FFE73C6F664344
:10556000360C7703BE467343DF0B5B04C01AB941A8
:10557000130C7343DB18C91ACE086643360CB644C5
:1055800093B273431F0F1B01C01AB941130C73432D
:105590001F0B1B05C01AB941860D8F023E4366439F
:1055A000360C092D24DB520A7243801A7703460A0F
:1055B0006643360C16235B1BDE40DF40BF19644692
:1055C0006643821B7046043506330100D940A8406B
:1055D000C01900D30131A24206D20023F0BD000061
:1055E000000000D0FFFFFFFF121B0130F3D3F1E7F3
:1055F00009277F1BFE406446A2B27243801A00D284
:105600000139220C7243130C1204821A99410B00C7
:105610007046043513370100F940A840801900D3C3
:105620000131002B02D1A2420AD2F0BD013000D3D9
:105630000131121BFAD2013BF8D1A24200D2F0BDD7
:10564000013000D30131121BF7E7F0B51C0C00D07C
:1056500080E00CB400251C0A04D11B02160E334353
:10566000120208351C0B04D11B01160F3343120123
:1056700004359C0B04D19B00960F334392000235F6
:10568000DC0B02D192185B4101351C009718644174
:105690000134464F7C66464C3C660E0CFFE7FFE744
:1056A000FFE7C0463C6F6643360C7703BE4697B2B1
:1056B0007743C01B00D20139C01B00D201399FB211
:1056C0007743C91BC91B170C77437E04FF0B801B54
:1056D000B941CE086643360C0C2D33DBB644120BB1
:1056E0001F053A431B0B97B27743C01B00D2013909
:1056F0009FB27743C91B170C77433E043F0C801BB6
:10570000B941860D8F023E43664329277F1BFE4029
:105710000C3D7746AF40BF1930BCA2B2ABB272436A
:105720007343801A9941220C7243130C1204801A9D
:10573000994102000B000137001BA941F9D2781EE4
:105740000021F0BD0C277F1BFE4077467F0BAF404A
:10575000FF19E0E700245D1C07D0144F7D66396611
:10576000FFE7FFE7FFE7FFE73C6F95B29EB26543B7
:105770006643401BB141150C1E0C6543664336045D
:105780002F0C3E432D04401BB141994204D202002C
:105790000B0020000021F0BD01D19042F7D3801A08
:1057A000994101349942F2D3F6E70000000000D09D
:1057B000FFFFFFFF44464D4656465F46F0B4704734
:1057C000F0BCA046A946B246BB467047484041409F
:1057D000484018B41B4B5B68FC46019308BD04DFCE
:1057E000BF5A001018B4174B1B68FC46019308BD44
:1057F00000DFC95A00109446134A926F920809D2EA
:10580000624618B40F4BDB68FC46019308BD0CDF01
:10581000815D00100C4AF0B5146E556E576F166F0F
:105820006246FFF7EEFF084A14665566576716672B
:10583000F0BD18B4034B9B68FC46019308BD08DF1C
:10584000255C0010CC140020000000D0FFB55040B3
:105850004240504059404B40594000E0FFB5154F81
:105860004C00640D03D0BC4204D10C0314D80020BA
:10587000090D09055C00640D03D0BC4204D11C0372
:105880000AD800221B0D1B0501264B4009D44B40B2
:1058900003D58B4200D18242FFBD9942FCD1904298
:1058A000FFBD0B43DB1803431343F5D0C94349182D
:1058B000FFBD0000FF07000000B5FFF7CFFF8041EC
:1058C00000BDC04600B5FFF7C9FF01D9002000BDEB
:1058D000012000BD00B5FFF7B9FF01D9002000BDD0
:1058E000012000BD00B5FFF7B1FF804100BD0120E0
:1058F00040054A00121804D85A00121801D8002096
:1059000070470120704700207047000000210028E8
:1059100005D17047C1174840401AFAD0C90713B5DE
:10592000064B1B6898470CBC441CA2401005120B88
:105930000349091B09051943114310BDCC1500206B
:105940001F04000010B54C00620D8023D218DB004C
:10595000D21A5B057E2A10DD9E3A13DACC170903B2
:10596000490819435242D140640001341532202ABB
:1059700005DAD0400843604310BD002010BD084642
:10598000604310BDC80FC018013810BD18B4044BD7
:105990005B6AFC46019308BD24DFB55F0010000080
:1059A000CC14002018B4044B9B6DFC46019308BD39
:1059B00058DF756200100000CC14002070B513236E
:1059C0001C78012C14D0012C14DC022C02DC1F4AA0
:1059D0001F4B9A641F48FFF761FC1F4B186070BD96
:1059E00099001A481A4A885001331F2BF8D9EAE760
:1059F0000023FAE71948FFF759FC05001848FFF79C
:105A000055FC023803789B007F2B19DD802229008A
:105A10000F4800F0F9FD022CD7D1124B1A88B5239C
:105A20001B029A4209D1104B1A88104B9A4204D19A
:105A30000F4B1A880F4B9A42C7D00020FEF76EFB1F
:105A40000D4B0E4A32210E48FEF7CEFA855A001051
:105A5000CC1400204C330000CC150020534400002F
:105A60005346000054380000D83800004946000072
:105A70009C38000059460000F89B0010B09C0010B4
:105A80004C9C001007B56046002800D100BE01887C
:105A90000A0A0230DF2AFAD1C9B2820804D3028886
:105AA00040880004104300E00068024A5050039010
:105AB00007BD0000CC1400200FB403BC0CBCF0B533
:105AC0000124E407634000E0F0B50C0DCF0F661E23
:105AD0003605891B640503D3C943404200D3013115
