:020000041000EA
:1000000000B5324B212058609868022188439860DF
:10001000D860186158612E4B002199600221596106
:100020000121F02299502B49196001219960352056
:1000300000F044F80222904214D00621196600F024
:1000400034F8196E01211966002018661A6600F04E
:100050002CF8196E196E196E052000F02FF8012189
:100060000842F9D1002199601B49196000215960AB
:100070001A491B48016001219960EB211966A021F2
:10008000196600F012F800219960164914480160C1
:100090000121996001BC002800D000471248134993
:1000A000086003C880F30888084703B5996A0420EC
:1000B0000142FBD001200142F8D103BD02B5186610
:1000C0001866FFF7F2FF186E186E02BD00000240BE
:1000D000000000180000070000035F00212200005C
:1000E000F4000018222000A00001001008ED00E03C
:1000F00000000000000000000000000074B24E7A12
:1001000000200420F7010010C3010010C5010010F9
:10011000C1010010C1010010C1010010C101001097
:10012000C1010010C1010010C1010010C701001081
:10013000C1010010C1010010C90100100503001029
:10014000CD010010CD010010CD010010CD01001037
:10015000CD010010CD010010CD010010CD01001027
:10016000CD010010CD010010CD010010CD01001017
:10017000CD010010CD010010CD010010CD01001007
:10018000CD010010CD010010CD010010CD010010F7
:10019000CD010010CD010010CD010010CD010010E7
:1001A000CD010010CD010010CD010010CD010010D7
:1001B000CD010010CD010010CD010010CD010010C7
:1001C00000BE00BE00BE00BE00BE00BEEFF3058054
:1001D000103800BEF2EB8871B0A70010E0A7001045
:1001E0003402001090A31AE700201F49086006C8D7
:1001F00081F3088810471D48006800282FD10DA4FE
:100200000ECC002902D000F012F8F9E71849194A7B
:10021000002000E001C19142FCD1174988471749ED
:1002200088471749884700BEFDE701C901C29A42C5
:10023000FBD37047E0A70010C0000020A00C0020F6
:10024000C0B300100000042000000420C0B3001060
:10025000001004200010042000000000704709482E
:1002600005F054FA0047000008ED00E0000000D05F
:10027000A00C0020141800209544001075130010E5
:10028000514400105756000006005250ABB3605363
:10029000F0A2001006005250861C030200A30010BA
:1002A000060052505422A29D0CA30010050052508B
:1002B000DE65F468C0B30010F8B5C04610B5064C52
:1002C0002378002B07D1054B002B02D0044800E017
:1002D00000BF0123237010BDD80D002000000000D6
:1002E000408E0010044B10B5002B03D00349044886
:1002F00000E000BF10BDC04600000000DC0D002083
:10030000408E001070B584B0864A136801331360C4
:10031000854B1B68854A12689B18854AD2689342B0
:1003200071D3844C200001F0A5FEE37B002B05D0A7
:10033000814A80231B0211680B4313607D4B1B7C99
:10034000002B05D07C4A80235B0211680B431360AD
:10035000784B5B7C002B05D0774A80239B02116889
:100360000B431360734B9B7C002B05D0724A802398
:10037000DB0211680B4313606E4BDB7C002B05D056
:100380006D4A80231B0311680B431360694B1B7D6F
:10039000002B05D0684A80235B0311680B43136070
:1003A000644B5B7D002B05D0634A80239B0311685F
:1003B0000B4313605F4B9B7D002B05D05E4A80236F
:1003C000DB0311680B4313605A4BDB7D002B05D018
:1003D000594A80231B0411680B431360554B1B7E45
:1003E000002B05D0544A80235B0411680B43136033
:1003F000524A1368591C1160092B13DD13000022A7
:100400001A600F230CE04E4B1A784E49494801F010
:10041000D7FB494B186084E7464A0021D154013389
:10042000182BF9DD484A1368591C1160642B03DD51
:10043000464B1B78002B02D1002300204DE0002307
:10044000424A1370404A1360414C424E68332200C6
:100450004149300001F06EFA0023E05E05F092FCA5
:1004600000223E4B05F01DFC04000D000023F05E51
:1004700005F088FC0022394B05F013FC22002B000C
:1004800005F0F4FC364A374B05F00BFC04000D0078
:10049000354B186805F076FC02000B00200029009F
:1004A00005F0CFFB314A13785C1CE4B21470DB001A
:1004B0002F4DED1805F0AEFC28606960062C03D0C6
:1004C000224B01221A70B7E7284B00221A70F7E777
:1004D000DA0027498A5880180133062BF8DD0621F7
:1004E00005F040F90200C417230022490A604B605E
:1004F000450EE1012943C001801A9941B4225242BC
:10050000D31705F07DF91C4B186040B20A4B1B68ED
:1005100002930023019300930022002101F072F95D
:1005200004B070BDC4170020D0170020300B00208D
:100530000040054014100020C8100020C410002006
:1005400001180020B0100020A01700204C0B002044
:10055000E4170020E0170020E21700200000103F01
:10056000F8C1631ADCA54C4004150020F4170020E4
:10057000A00C0020D00D0020FC0F002010B584B08E
:100580007D4B1B78002B3BD17C4B1B78002B03D081
:100590007B4A1278002A43D17A4A11787A4A127833
:1005A000914201D0002B3BD1784B1B78002B74D0AB
:1005B000734B1B78002B70D0754B1B78754A1278E3
:1005C00093420AD09B1A002B00DC6CE0724A12782E
:1005D000032A68D00132704B1A706F4B1B78012BC5
:1005E00000D86BE06C4B1B78023BDBB2012B00D8D0
:1005F00093E0634B00221A70684B01321A704CE092
:1006000001F010FA0021002001F012FA644801F014
:100610001CFA5B4B00221A70604B01321A70B3E770
:1006200001F000FA0021002001F002FA5D4801F01B
:100630000CFA02AA5C4B03CB03C20821002001F094
:10064000F7F95A4B1B785A4A13705A4A1278934258
:1006500006D0584A1370002B21D0574801F0F5F905
:10066000484C2278484B1A700021012001F0E0F933
:10067000524801F0EAF920780A2201A908F0CAFAE2
:100680000721012001F0D4F901A801F0DEF93C4B6B
:1006900000221A70414B01321A7004B010BD484854
:1006A00001F0D3F9DCE7002B97DA3B4B1B78002BEA
:1006B00000D192E7013B384A13708EE7414B1B781B
:1006C000002B00D18EE73F4B00221A7001F0AAF9EF
:1006D0000021002001F0ACF93B4C206801F0B5F995
:1006E0000021012001F0A4F9606801F0AEF92A4B65
:1006F0001B78002B08D10721002001F099F9324B1B
:10070000186901F0A2F96DE70421012001F090F9C8
:100710002D4B186901F099F964E72A4B1B78002BDF
:1007200000D166E7274B00221A7001F07BF9002107
:10073000002001F07DF9244CA06801F086F9002129
:10074000012001F075F9E06801F07FF9124B1B7888
:10075000022B08D00621012001F06AF91A4B186912
:1007600001F073F945E70B21002001F061F9164B08
:10077000186901F06AF93CE702180020031800200C
:10078000EB1700204D0B0020FD170020041800205F
:10079000F8170020EF170020001800204C0B002055
:1007A000808F0010948F001038900010E617002002
:1007B000ED170020340B0020408E0010A08F001099
:1007C000488E00102C0B0020380B0020F8B51A4B77
:1007D00043225A620E3A9A62DA6A65218A430539DF
:1007E0000A43DA62DA6A5D398A43DA62DA6A01391F
:1007F0008A43DA62DA6A8A43DA62104A1A63104A72
:1008000050688027B8435060546840263443546091
:100810000C4D69609468BC4394609068304390606C
:10082000E96010229A630849142001F079FF012140
:10083000142001F065FFF8BD0040034001030000F3
:1008400000C00140004001409509001010B582B081
:10085000304B00221A700021012001F0E9F82E48E7
:1008600001F0F3F82D4C0A2201A9206808F0D2F912
:100870000021002001F0DCF8294801F0E6F82068AA
:10088000616801225242D31712184B41002B19D034
:10089000002923DB214B1868596801225242D317E3
:1008A00012184B41002B21D000292BDB08210020FE
:1008B00001F0BEF801A801F0C8F8164B01221A7029
:1008C00002B010BD002B01D1082AE1D80821002078
:1008D00001F0AEF8134801F0B8F8DBE70921002079
:1008E00001F0A6F80F4801F0B0F8D3E7002B01D1D2
:1008F000622AD9D80921002001F09AF8094801F0AC
:10090000A4F8D3E70A21002001F092F8054801F08D
:100910009CF8CBE74C0B0020AC8F0010D00D0020D2
:10092000BC8F0010C88F001070B50400134D002359
:100930002B70134AD168134A1160134A13540126CD
:10094000124B1E7001F06EF80A20002102F0E4FE46
:10095000FFF77CFF0A20002102F0DEFE00210120CB
:1009600001F066F80A20002102F0D6FEA400084B30
:10097000E05801F06AF82E7070BDC0464C0B0020A4
:1009800000400540F0140020B010002006180020A0
:10099000D00A002010B52D4BDB6BDB0612D52B4B9C
:1009A0001A682B4B1A702B4B1A78212A0FD02A4920
:1009B0000B78581C08702949CA54244A536C1021DA
:1009C0000B435364234B1B783F2B04D010BD224BA9
:1009D00000211970EBE7224B1B78002BF6D1214B3D
:1009E0001B78042B1BD8204881780B00303B9A00E1
:1009F000D2185300C278100030381B181B4801244D
:100A0000C4541B4B1B78002BE0D08B00C918480046
:100A10001018C0B21038C0B2FFF786FFD6E7124AEE
:100A20009378303B9900C9184B00D17830395B1866
:100A30000E480124C4549379303B9900C9184B00E7
:100A4000D279303A9B18C454C0E7C04600400340F6
:100A5000E9170020EA170020F6170020581500209B
:100A600005180020F5170020241500201410002080
:100A7000EE170020F8B55C4BDB795C4A13605C4AEA
:100A80001268934201D0012B4DD0594A126893420B
:100A90000CD0002B0AD1574AD26857490A605449F2
:100AA0000B60564B1B68D21A554B1A60514BDC68D1
:100AB000544B1C60524B1B68534A934249D9534ACA
:100AC0001278002A45D1524B1D780A2D32D02000D1
:100AD00005F054F906000F004E4B186805F04EF96A
:100AE00000224D4B05F0B6F802000B003000390033
:100AF00005F028F9002862D0D0231B06D96980228E
:100B000052030A43DA61D969802292030A43DA6107
:100B1000D969802252050A43DA613E4B1C600135D7
:100B20003B4B1D704BE0324A1360324AD168334A66
:100B30001160AAE7092D42D90123344A137000221B
:100B40002F490A6032490A70344A1370344A1370CC
:100B500035E02D4A934232D92C4B1B78002B2ED0F6
:100B60002B4B1D780A2D2BD0200005F007F906002D
:100B70000F00284B186805F001F90022264B05F0FC
:100B800069F802000B003000390005F0DBF800289E
:100B900015D0D0231B06D969802252030A43DA619B
:100BA000D969802292030A43DA61D9698022520509
:100BB0000A43DA61174B1C600135154B1D70F8BDF7
:100BC000092DFCD90023114A13700D4A1360104AF5
:100BD0001370144A1168144A1160104A1370104BB4
:100BE00001221A70EBE7C04614100020E40F002029
:100BF0000010002000400540981700200810002039
:100C0000C8170020B41700203F4B4C0002180020EA
:100C100010180020BC17002080842E4101180020ED
:100C2000EB170020D00D002004150020F8B5664B0E
:100C30009B79664A1360664A1268934201D0012B81
:100C40005ED0634A126893420CD0002B0AD1614AED
:100C5000D26861490A605E490B60604B1B68D21A1A
:100C60005F4B1A605B4BDC685E4B1C605C4B1B6827
:100C70005D4A93425AD95D4A1278002A56D15C4B9C
:100C80001D78052D43D0200005F078F806000F00F0
:100C9000584B186805F072F80022574B04F0DAFF41
:100CA00002000B003000390005F04CF8002815D088
:100CB000D0231B06D969802252030A43DA61D9691D
:100CC000802292030A43DA61D969802252050A43DD
:100CD000DA61484B1C600135454B1D703A4B5B781F
:100CE000002B0CD0454B1B78002B08D0444B1B78B5
:100CF000012B61D00123424A1370424A1370F8BDA0
:100D0000334A1360334AD168344A116099E7042D9D
:100D1000E4D90123354A1370002231490A6034496D
:100D20000A70384A1370384A1370E8E72E4A934223
:100D3000D4D92E4B1B78002BD0D02D4B1D78052DF0
:100D40002BD0200005F01AF806000F00294B186878
:100D500005F014F80022284B04F07CFF02000B0081
:100D60003000390004F0EEFF0028B7D0D0231B0676
:100D7000D969802252030A43DA61D9698022920339
:100D80000A43DA61D969802252050A43DA61194BB4
:100D90001C600135164B1D70A0E7042D9ED9002361
:100DA000124A13700E4A1360114A1370154A01213A
:100DB0001170154A1370A2E7114B00221A70114BE3
:100DC00001321A709BE7C04614100020E80F002083
:100DD00004100020004005409C1700200C1000204B
:100DE000CC170020B81700203F4B4C000318002000
:100DF00011180020C017002080842E41EE1700201B
:100E0000E6170020EB17002001180020D0B582B0B3
:100E1000D64B1B68FA229200934200DA68E2D44A69
:100E20001268002A00D063E2D04B1A60D14B213205
:100E30001A7032325A700E329A70DA701A71CE4BC2
:100E40001A685B68002B00DAA5E0CA4B2B225A70A7
:100E5000C94B1E685F680A2200233000390004F085
:100E6000CFFC3032C34C22710A22002330003900FB
:100E700004F0C6FC0A22002304F0C2FC3032E27007
:100E8000642200233000390004F0BAFC3030A07036
:100E900000236371B94B5B78002B00D085E0B74B22
:100EA0009B78002B00D089E0B44BDB78002B00D07E
:100EB0008EE0B24B1B79002B00D093E0AF4B5B79F7
:100EC000002B00D098E0AD4B9B79002B00D09DE02B
:100ED000AA4BDB79002B00D0A2E0A84B1B7A002B99
:100EE00000D0A7E0A54B5B7A002B00D0ACE0A34B71
:100EF0009B7A002B00D0B1E0A04BDB7A002B00D016
:100F0000B6E09E4B1B7B002B00D0BBE09B4B5B7B7A
:100F1000002B00D0C0E0994B9B7B002B00D0C5E09C
:100F2000974B1A78974B1B789A4200D0C8E0964BA3
:100F30001A78964B1B789A4200D0ECE0944B1B78C1
:100F4000944A1478A34200D052E1934B1A78934B01
:100F50001B789A4200D06BE1914B1A78914B1B7829
:100F60009A4200D08FE1904B1B78002B00D0B5E166
:100F7000804C200007F094FE201802228B4905F0D7
:100F8000A7FD7B4B01221A60794B1B68012B00D116
:100F9000BCE102B0D0BD77492D20487000215042FD
:100FA0009941754B1860596052E7200007F078FEB0
:100FB000201804227E4905F08BFD70E76D4C20005F
:100FC00007F06EFE201804227A4905F081FD6BE7D8
:100FD000684C200007F064FE20180422764905F0D2
:100FE00077FD66E7634C200007F05AFE20180422C4
:100FF000724905F06DFD61E75E4C200007F050FE80
:10100000201804226E4905F063FD5CE7594C20006E
:1010100007F046FE201804226A4905F059FD57E7FB
:10102000544C200007F03CFE20180422664905F0CD
:101030004FFD52E74F4C200007F032FE20180422EB
:10104000624905F045FD4DE74A4C200007F028FEB7
:10105000201804225E4905F03BFD48E7454C20007E
:1010600007F01EFE201805225A4905F031FD43E71E
:10107000404C200007F014FE20180522564905F0C8
:1010800027FD3EE73B4C200007F00AFE2018052212
:10109000524905F01DFD39E7364C200007F000FEEF
:1010A000201805224E4905F013FD34E7314C20008D
:1010B00007F0F6FD201805224A4905F009FD2FE743
:1010C0002F4A13702B4E300007F0EAFD301804222F
:1010D000454905F0FDFC2B4B1F780A21380004F030
:1010E00069FB303101AC21700A21380004F062FB49
:1010F000C0B20A2104F05EFB303161706421380017
:1011000004F058FB3030A0700023E3702100300061
:1011100007F098FD0BE71C4A1370164E300007F0DD
:10112000BFFD30180422314905F0D2FC174B1F785F
:101130000A21380004F03EFB303101AC21700A2155
:10114000380004F037FBC0B20A2104F033FB303121
:1011500061706421380004F02DFB3030A070002352
:10116000E3702100300007F06DFDE7E6C4170020B2
:10117000F8140020500B0020D00D00201410002087
:10118000F8170020EF170020F9170020F0170020B3
:10119000FA170020F1170020FB170020F21700209B
:1011A000FC170020F31700200318002034900010D3
:1011B000D48F0010D88F0010DC8F0010E08F00104B
:1011C000E48F0010E88F0010EC8F0010F08F0010FB
:1011D000F48F0010F88F001000900010089000109D
:1011E0001090001018900010209000102490001013
:1011F000534B1C700A21200004F0DCFA303101AEA0
:1012000031700A21200004F0D5FAC0B20A2104F09E
:10121000D1FA303171706421200004F0CBFA303003
:10122000B0700023F3703100464807F00BFD8CE6E8
:10123000454A1370434E300007F032FD3018042247
:10124000424905F045FC424B1F780A21380004F062
:10125000B1FA303101AC21700A21380004F0AAFA49
:10126000C0B20A2104F0A6FA30316170642138005E
:1012700004F0A0FA3030A0700023E37021003000A9
:1012800007F0E0FC68E6334A13702E4E300007F09A
:1012900007FD30180422304905F01AFC2F4B1F7847
:1012A0000A21380004F086FA303101AC21700A219D
:1012B000380004F07FFAC0B20A2104F07BFA303122
:1012C00061706421380004F075FA3030A07000239A
:1012D000E3702100300007F0B5FC44E6194C200013
:1012E00007F0DEFC201803221D4905F0F1FB3FE664
:1012F000FA229200934200DA46E61A4B1B68002B52
:1013000000D141E6184B00221A603DE6174B9B695D
:101310001B0600D43DE60B4A154B1968505C134977
:1013200008601B68D25C3F2A03D00133104A136067
:101330002FE600230E4A13600A4A136029E6C046CE
:10134000FA170020500B0020FB17002028900010F7
:10135000F2170020FC1700202C900010F31700203B
:1013600030900010F8140020C41700200040034003
:101370000015002070B505F00FFD07F06DFA07F0BD
:101380003DFA9F4800F0F6FBFFF720FAE72205211F
:101390000B2000F085FBE72205210A2000F080FBEE
:1013A000E7220521092000F07BFBE7220521082028
:1013B00000F076FBE7220521072000F071FBE72211
:1013C0000521062000F06CFBE7220521052000F036
:1013D00067FBE7220521042000F062FBE7220521DC
:1013E000032000F05DFBE7220521022000F058FBFE
:1013F000212205210F2000F053FB21220521162078
:1014000000F04EFB21220521122000F049FB212291
:101410000521132000F044FBE72205210E2000F0F7
:101420003FFBE72205210D2000F03AFBE7220521D2
:101430000C2000F035FB21220521142000F030FBA8
:1014400021220521152000F02BFB212205211C2043
:1014500000F026FBE7220521102000F021FBE72207
:101460000521112000F01CFB002006F02DF9654B32
:10147000002B01D000E000BF6349644807F086FB01
:1014800003211A2000F0FAFF03211B2000F0F6FFD1
:10149000002201211A2001F009F8002201211B205D
:1014A00001F004F800F0DCFA682000F019FAFFF708
:1014B000CDF927E0564B00221A7039E0554B1B78C6
:1014C000002B55D10024544B1C70FFF7BFF9534B30
:1014D0001C704DE0504B00221A70514BDA68514B92
:1014E0001A60FFF7B3F965E04B4B00221A70FFF763
:1014F00045F867E0474B1B785A4253414A4A1278F5
:10150000134271D101200021404206F001FC474BFB
:101510001B68474A12689342CCD0002B06D03C4A45
:10152000012111703E4AD168424A1160404A13605D
:10153000FFF77CFBFFF79EFAFFF768FC384BD86893
:1015400004F01CFC04000D003B4B186804F016FC72
:1015500000223A4B04F07EFB02000B002000290021
:1015600004F0F8FB002803D02C4B1B78012BA5D0EE
:101570002B4BD86804F002FC04000D00294B1868BE
:1015800004F0FCFB00222E4B04F064FB02000B0075
:101590002000290004F0DEFB00280BD01D4B1B7837
:1015A000002B07D11D4B1B78002B03D11A4B1B7846
:1015B000002B8FD1174B1B78002B03D01A4B1B78B5
:1015C000002B91D11F4B1B78002B93D01E4B1B7807
:1015D0001E4A13701E4A1278934293D0124A012178
:1015E00011701B4A13708DE700240B4B1C700C4BC1
:1015F000DA680C4B1A60FFF729F90B4B1C7081E776
:1016000047E8010000000000A0860100780C0020DF
:10161000EE170020011800204C0B002006180020B7
:1016200000400540F4140020EB170020C8100020F3
:10163000EC140020D0170020F014002080843E41DC
:1016400080841E4103180020F01700204D0B00205D
:10165000FD170020004870479C900010004870471C
:10166000B09000100048704778900010F0B589B035
:10167000002814D0032824D059D880002D4BC558F9
:10168000280007F00DFB202800D9202000239842D5
:101690000DD9EC5C01335A0027498C52F7E7254BF2
:1016A000196825480222023005F012FA01200130A3
:1016B000400080B2C0239B0003431F48038009B051
:1016C000F0BD1E4B002B0BD01021684600E000BF80
:1016D00084466346102B01D910239C46002507E061
:1016E000174B0093174B019308239C46F1E70135F4
:1016F000654519D20022012AF9D804AC124B210009
:10170000C1CBC1C11B680B606B46595D9300194189
:101710000F2319406B009B1A0133074E5B00645C7A
:101720000236F4520132E6E763465800BFE7002074
:10173000C5E7C046840B0020100E0020000000000A
:101740000123456789ABCDEF48900010F0B589B013
:1017500007000191029203930EAB00269E570FAB38
:1017600000255D57002006F0B5FC002801D109B026
:10177000F0BD05AC0B220021200005F0A3F9277075
:1017800001996170029AA27026716571039BE370E2
:101790000B2204AB9C466244109B13701B0A5370CF
:1017A000109B1B0C9370109B1B0ED3700B232200FD
:1017B0000421002006F0B6FCD9E70000024BFA2213
:1017C00092001A607047C04610100020014BFA22A8
:1017D0001A60704710100020014B024A1A607047CF
:1017E00010100020C409000010B505F039FF0028D2
:1017F00004D0FA229200024B1A6010BDFA22FAE7D6
:1018000010100020F0B589B00590069116001C005C
:101810000EAB00255D570FAB0027DF5702F052F8E3
:1018200000290CDB11D0FA229200002304F000F80A
:10183000164B1B68C01A09280CD809B0F0BD144B10
:10184000144A3F21144802F007FEFA21890003F0F0
:10185000B1FFEDE70A330D4A136006F0F5FF07907C
:1018600005F006FF002802D0079B002B0AD1109B31
:101870000293019500943B00320006990598FFF70A
:1018800065FFDAE705F0FCFED7E7C04694170020B5
:10189000A091001020920010BC9100107047002011
:1018A0007047000010B502A80088022A00D010BDC1
:1018B0000129FCD10028FAD01B789B0706D5074BDD
:1018C00000221A60012006F0B1FFF0E7002006F0C8
:1018D000ADFF024BFA2292001A60E8E710100020D8
:1018E00070B584B06B236A46137300255573C4B278
:1018F0000F4E0095022303AA2100300007F072F971
:101900001C236A46D3721B3B00930B226A442100BE
:10191000300007F067F96B46DD72009501230B225A
:101920006A442100300007F05DF904B070BDC04684
:10193000780C0020F0B5CE46474680B585B080468D
:101940000F00160002AC3B222270DDB2124B99460A
:101950000123009322002900484607F043F90023A1
:101960000093063322002900484607F047F9227801
:1019700012026378134342461380A2781202E3787E
:1019800013433B802279120263791343338005B0FD
:10199000C0BCB946B046F0BD780C002000B585B09B
:1019A0000F226A4410700023009301333F21024844
:1019B00007F018F905B000BD780C002070B50400E0
:1019C0009625AD00280000F0F1F804202043C0B2B5
:1019D000FFF7E4FF280000F0E9F804232000984313
:1019E000FFF7DCFF280000F0E1F870BD70B50F23B1
:1019F00005009D436DB249B20D4308231D43EDB26E
:101A000004010C4364B21C43E4B22800FFF7C6FF94
:101A10002800FFF7D3FF2000FFF7C0FF2000FFF7EB
:101A2000CDFF70BD10B500210120FFF7DFFF10BD15
:101A300010B5002806D180310800C0B20021FFF7A0
:101A4000D5FF10BDC0310800F7E710B5040003E072
:101A500001340121FFF7CAFF20780028F8D110BD1A
:101A600010B500210320FFF7C1FF00210320FFF77D
:101A7000BDFF00210320FFF7B9FF00210220FFF77F
:101A8000B5FF00210620FFF7B1FF00212820FFF756
:101A9000ADFF00210C20FFF7A9FFFFF7C3FF10BD2A
:101AA00010B54B1E042B25D8D30911D0C300134CFD
:101AB000A44663445960830011498C4663445A60CC
:101AC000D02109060B6A0122824093430B6210BDAC
:101AD000C3000A4CA44663445960830008498C46FD
:101AE00063445A60D02109060B6A012282401343E5
:101AF0000B62ECE7034805F043F9E8E700400140DA
:101B000000C00140389200100200012908D00229CB
:101B100018D0D0231B065B68C340012018407047D3
:101B2000D0231B065B68C3401940074B185C8142F9
:101B3000F5D0D0231B065B68D34001201840024B30
:101B40009854ECE70020EAE7CC140020002908D1E3
:101B5000002A07D0D02109060B69012282401343D5
:101B60000B617047D02109060B6901228240934323
:101B70000B61F6E710B580235B0498420CD8084B44
:101B8000586007221A6007490B6A1B021B0AC02211
:101B9000120613430B6210BD034805F0F1F8FAE793
:101BA00010E000E000ED00E058920010034BD9680F
:101BB0000B18024AD2689342FAD870470040054099
:101BC000F8B504001500DC4B1A78082A1AD89300DF
:101BD000DA4AD3589F46012200210F20FFF7B6FFB3
:101BE000002200211620FFF7B1FF00220021122061
:101BF000FFF7ACFF002200211320FFF7A7FFCE4B19
:101C000001221A70CE4B1B68002B73D06378002B17
:101C100000D1C7E1CB4A022311680B431360A378BC
:101C2000002B00D1C4E1C74A042311680B431360A1
:101C3000E378002B00D1C1E1C24A082311680B43AD
:101C400013602379002B00D1BEE1BE4A1023116836
:101C50000B4313606379002B00D1BBE1B94A202309
:101C600011680B431360A379002B00D1B8E1B54A8A
:101C7000402311680B431360E379002B00D1B5E1D9
:101C8000B04A802311680B431360237A002B00D1E4
:101C9000B2E1AC4A80235B0011680B431360637AA6
:101CA000002B00D1AEE1A74A80239B0011680B43B3
:101CB0001360A37A002B00D1AAE1A24A8023DB00A3
:101CC00011680B431360E37A002B00D1A6E19D4A13
:101CD00080231B0111680B431360237B002B00D171
:101CE000A2E1984A80235B0111680B431360944B77
:101CF00000221A6000211020FFF706FF924D287085
:101D000000211120FFF700FFC4B2904B1C702D780A
:101D10008F4B1B789D4224D08E4B186804F02EF810
:101D200000228D4B03F096FF06000F008B4BD86806
:101D300004F024F802000B003000390003F0F4FF37
:101D400000280ED0854BDA68824B1A60804B1D70DC
:101D5000002D00D16EE17B4A80239B0111680B436B
:101D600013607F4B1B789C4224D07E4B186804F094
:101D700005F80022784B03F06DFF06000F00774B4B
:101D8000D86803F0FBFF02000B003000390003F0BD
:101D9000CBFF00280ED0714BDA68724B1A60704B83
:101DA0001C70002C00D14BE1664A8023DB011168D6
:101DB0000B431360634B1868F8BD6B4B1B78042B07
:101DC00003D00133684A13701CE75B4B02221A7080
:101DD000654B00221A7015E700210E20FFF794FED4
:101DE000607000210D20FFF78FFE6B425D410540C2
:101DF000657100210C20FFF787FE60720022002130
:101E00000F20FFF7A3FE012200211620FFF79EFE00
:101E1000002200211220FFF799FE0022002113204A
:101E2000FFF794FE444B03221A70EBE64E4B1B78EF
:101E3000042B03D001334C4A1370E3E63E4B0422DB
:101E40001A70494B00221A70DCE600210E20FFF7C1
:101E50005BFE6B425D416EB20540A57000210D2016
:101E6000FFF752FEA07100210C20FFF74DFE30401D
:101E7000A072002200210F20FFF768FE002200213F
:101E80001620FFF763FE012200211220FFF75EFEFD
:101E9000002200211320FFF759FE274B05221A705C
:101EA000B0E6314B1B78042B03D001332E4A13705C
:101EB000A8E6214B06221A702B4B00221A70A1E6CD
:101EC00000210E20FFF720FE6B425D416EB20540FF
:101ED000E57000210D20FFF717FEE07100210C20B6
:101EE000FFF712FE3040E072002200210F20FFF7C2
:101EF0002DFE002200211620FFF728FE00220021DF
:101F00001220FFF723FE012200211320FFF71EFEFF
:101F1000094B07221A7075E6134B1B78042B03D06C
:101F20000133114A13706DE6034B08221A700E4BF1
:101F300000221A7066E6C046091800208C92001034
:101F4000A4100020201500200718002008180020E9
:101F5000FE170020181500200088C34000400540EF
:101F6000FF1700201C1500201218002000210E2051
:101F7000FFF7CAFD6B425D416EB20540257100213D
:101F80000D20FFF7C1FD3040207200210C20FFF72B
:101F9000BBFD304020732D4B00221A702C4B0132B8
:101FA0001A602FE62B4A022311689943116036E626
:101FB000284A042311689943116039E6254A082309
:101FC0001168994311603CE6224A10231168994335
:101FD00011603FE61F4A202311689943116042E6D1
:101FE0001C4A402311689943116045E6194A802331
:101FF00011689943116048E6164A174B11680B4067
:1020000013604CE6134A154B11680B40136050E601
:10201000104A134B11680B40136054E60D4A114BE4
:1020200011680B40136058E60A4A0F4B11680B40C9
:1020300013605CE6074A0D4B11680B40136090E695
:10204000044A0B4B11680B401360B3E609180020DB
:10205000A410002020150020FFFEFFFFFFFDFFFF62
:10206000FFFBFFFFFFF7FFFFFFEFFFFFFFDFFFFFBC
:10207000FFBFFFFFF0B5DE4657464E464546E0B58A
:1020800083B0019000210B20FFF73EFDC3B29946BB
:1020900000210A20FFF738FDC3B29B46002109202A
:1020A000FFF732FDC3B2984600210820FFF72CFD50
:1020B000C3B29A4600210720FFF726FDC6B20021D1
:1020C0000620FFF721FDC3B2009300210520FFF792
:1020D0001BFDC5B200210420FFF716FDC7B2002189
:1020E0000320FFF711FDC4B200210220FFF70CFD11
:1020F000C0B2B14B1A78062A09D89300AF4AD35818
:102100009F464B46002B0AD1AB4B01221A70AC4BB9
:102110001A78062A54D89300AA4AD3589F465B4699
:10212000002BF4D1A44B04221A70F0E75B46002B7D
:10213000EDD1A14B02221A70E9E74B46002BE6D005
:102140009D4B03221A70E2E74B46002BDFD05B4623
:10215000002BDCD0984B00221A709B4B1B78632B12
:1021600002D80133984A13700123019AD373CEE742
:102170004B46002BCBD1904B05221A70C7E75B462C
:10218000002BC4D08C4B06221A70C0E74B46002BA4
:10219000BDD05B46002BBAD0874B00221A708A4B09
:1021A0001B78002B02D0013B874A13700123019A50
:1021B0001374ACE74346002B0AD1814B01221A70FD
:1021C000824B1A78062A53D89300814AD3589F46E7
:1021D0005346002BF4D17A4B04221A70F0E7534691
:1021E000002BEDD1764B02221A70E9E74346002B13
:1021F000E6D0734B03221A70E2E74346002BDFD090
:102200005346002BDCD06E4B00221A70714B1B78AA
:10221000632B02D801336F4A13700123019A537460
:10222000CEE74346002BCBD1654B05221A70C7E79A
:102230005346002BC4D0624B06221A70C0E74346B7
:10224000002BBDD05346002BBAD05D4B00221A7034
:10225000604B1B78002B02D0013B5E4A13700123B8
:10226000019A9374ACE7002E0AD1584B01221A70E0
:10227000594B1A78062A49D89300584AD3589F4692
:10228000009B002BF4D1514B04221A70F0E7009B05
:10229000002BEDD14D4B02221A70E9E7002EE7D05A
:1022A0004A4B03221A70E3E7002EE1D0009B002B7B
:1022B000DED0464B00221A70494B1B78632BD7D8CF
:1022C0000133474A1370D3E7002ED1D13F4B05228B
:1022D0001A70CDE7009B002BCAD03C4B06221A7027
:1022E000C6E7002EC4D0009B002BC1D0374B002284
:1022F0001A703B4B1B78002BBAD0013B384A137045
:10230000B6E7002D0AD1344B01221A70354B1A78EA
:10231000062A4AD89300344AD3589F46002FF5D155
:102320002D4B04221A70F1E7002FEFD12A4B022225
:102330001A70EBE7002DE9D0274B03221A70E5E76E
:10234000002DE3D0002FE1D0234B00221A70274B41
:102350001B78632B02D80133244A13700123019A9E
:102360005375D3E7002DD1D11B4B05221A70CDE751
:10237000002FCBD0184B06221A70C7E7002DC5D00E
:10238000002FC3D0144B00221A70184B1B78002B5F
:1023900002D0013B154A13700123019A9375B5E7EA
:1023A000002C25D10F4B01221A7003B0F0BCBB46A4
:1023B000B246A946A046F0BD0A180020B09200100F
:1023C0000B180020CC920010EF1700200C180020F2
:1023D000E8920010F01700200D1800200493001060
:1023E000F11700200E18002020930010F217002093
:1023F0000028DAD11F4B04221A70D6E70028D4D166
:102400001C4B02221A70D0E7002CCED0194B0322AD
:102410001A70CAE7002CC8D00028C6D0154B00227D
:102420001A70154B1B78632B02D80133124A1370B4
:102430000123019AD375B8E7002CB6D10D4B0522C4
:102440001A70B2E70028B0D00A4B06221A70ACE727
:10245000002CAAD00028A8D0064B00221A70064BE8
:102460001B78002B02D0013B034A13700123019A11
:10247000D3759AE70E180020F317002010B58300DB
:10248000084A944663441C6840226240C0241440B9
:102490008022520113431C60C000034B9C466044E1
:1024A000416010BD04C001400040014080000B4B62
:1024B0009C46604400290DD00823002A0CD0042239
:1024C0001343026853400C221340802252011043F0
:1024D000036070470023F0E70022F1E704C00140E9
:1024E00010B501238340D022120693629361052127
:1024F000FFF7C4FF10BD0000034B1B68022018400B
:10250000431E9841C0B2704700C00640EFF31080F0
:1025100072B6034B1B68002BFBD0BFF35F8F704775
:102520002C0100D0BFF35F8F024B00221A6080F3B2
:10253000108870472C0100D0F8B506000C0015007B
:10254000FFF7E4FFE308F718F15C072222400123BC
:1025500093400B4205D1DBB20B433B70FFF7E2FF28
:10256000F8BD2100280002F011F8F0B583B0060094
:10257000019114001F00FFF7C9FF00E00134BC42C5
:102580000CD8E308F518F35C0721214001228A40AA
:102590001A42F3D1D2B21A432A7001E001246442F4
:1025A000FFF7C0FF002C02DB200003B0F0BD019B51
:1025B000002BF9D0089801F0E9FF0000002307E0A4
:1025C000054A9A189200BFF35F8F00211160013312
:1025D0001F2BF5D97047C04640000034054A1078DB
:1025E000431CDBB21370172B02D9130010221A7090
:1025F0007047C046940B002000B583B00100044B27
:1026000000931F2318220348FFF7AFFF03B000BD5C
:102610003C93001038100020074B9B68103080005E
:102620001950BFF35F8FBFF35F8F044B0021196018
:1026300082F310887047C04600ED00E0240100D00E
:1026400010B5091A081F0A4B9C466144094A914279
:1026500008D8C30706D440104005400D064B184368
:1026600080B210BD054B064AA321064801F0F4FED6
:10267000FC070000FE0F000000E0FFFF5893001071
:10268000C89500108893001010B5091A04394C0839
:10269000090B08D14905490D064A11430180064B33
:1026A0002343438010BD054B054AAB21054801F08B
:1026B000D3FEC04600F0FFFF00F8FFFFE4930010D8
:1026C0009C9500108893001001238340034A1068F2
:1026D0001840431E9841C0B27047C04600E100E078
:1026E000002904D0034B1860034B18607047034B5C
:1026F0001860FBE780E200E000E100E080E100E03C
:1027000010B5012383401800FFF7EAFF10BD000059
:10271000024B9B6810308000C058704700ED00E00D
:1027200070B504000D00EFF3108672B60C4B1B68F9
:10273000002BFBD0BFF35F8F2000FFF7E9FF094BB1
:10274000984201D0A84205D1320029002000FFF7AD
:1027500063FF70BD044B054A8621054801F07CFEED
:10276000240100D0CD010010F4930010FC9500105E
:1027700088930010F0B5DE4657464E464546E0B514
:1027800089B0814601911500EFF3108A72B6744B3F
:102790001B68002BFBD0BFF35F8F724B0027DF5706
:1027A000002F40DB7C00E419A4006F4824180622A7
:1027B000A2566C4B1A706D4B9A684B4610339B00B7
:1027C000D35898461E001B1A2F2B38D9684B9845B2
:1027D0002FD105AE674B33807B009B46D819800014
:1027E000614B9846404402306349FFF729FF7080EF
:1027F000624BB380FF23B371F571019B07935F4474
:10280000BF0047440ECE0EC701231C43A0465246CC
:1028100041464846FFF700FF09B0F0BCBB46B24650
:10282000A946A046F0BD564B564AD721564801F05E
:1028300013FE564B534ADE21534801F00DFEC043B0
:1028400040440C2102F0B6FF002912D101239E431F
:10285000B34633000026DA79AA4211D90621595627
:1028600000290CDB4A00521892001E003E4B9B18B8
:10287000F1E7474B434AEA21434801F0EDFD1E00D2
:10288000002E3AD005AB434A1A80813A5A8006237B
:10289000F3560293002B17DA3F4805AB9B4698800E
:1028A000029A9A71DD71019A0792301D2100FFF79B
:1028B000C7FEB080B7717B00DB199B002A4FFF1861
:1028C0005B4607CB07C7A2E77800C0198000264BFC
:1028D000C0180430321DB388D90A1C2907D15B0502
:1028E0005915023149005118FFF7AAFED5E72B4BC5
:1028F0002B4AB121244801F0AFFD05AE1D4B3380BA
:102900007B000293D8198000174A90460200424487
:102910000392901C1849FFF793FE7080039A101DD4
:102920005946FFF78DFEB0801E4B5A464146521A5B
:10293000524153431B0DB371F571019A0792029BEB
:102940009C466744BF0047440ECE0EC7114B5A4603
:102950001380813B538001231C43A04657E7C046A8
:10296000240100D0F7170020980B002000ED00E0B4
:10297000CD01001000A1FFFFC80B002001BDFFFF2B
:102980002C940010E49500108893001054940010CB
:102990007C9400100148000001BD0000F09400107C
:1029A000D4950010AAAA0000F0B5CE46474680B5DF
:1029B00083B006000D00EFF3108872B6564B1B680B
:1029C000002BFBD0BFF35F8F544B9A683400103458
:1029D000A300D758524B9F4207D0AF4200D198E096
:1029E0000197504BFB1A2F2B09D942463900300072
:1029F000FFF712FE03B0C0BCB946B046F0BD3000D0
:102A0000FFF762FE814600213000FFF779FEBFF339
:102A10005F8FEFF30581002901D08C4211D1012392
:102A2000019C9C430022A368AB4212D00622A2560E
:102A3000002A0DDB53009B189B002200394CE41840
:102A4000F1E73621384B394AFF31394801F004FDAE
:102A50002200AB4256D106256557002D38DB6B00AE
:102A60005B199A002F4B9B189A68A260DA79E27181
:102A700006229A56A2719B795BB2002B0FDA2D4881
:102A8000A0806B005B199B00264AD3182A4A117854
:102A90009971157049463000FFF732FEA5E7201DF9
:102AA0006B005B199B001F4A9B181A1D9B88D90A53
:102AB0001C2907D15B055B15023359005118FFF73C
:102AC000BFFDDDE71D4B1E4AB121194801F0C4FCD2
:102AD000002912D1002A0ED0FF239371194B938045
:102AE000154A1378A371184B0E49641A6441634365
:102AF0001B0D1370CEE70A4FF2E7201D1349FFF7B5
:102B0000C3FDC7E76A21124B084AFF31084801F0AC
:102B1000A3FC034F69E7C046240100D000ED00E0AC
:102B2000CD010010980B002008950010B4950010FE
:102B30008893001001BD0000F7170020F0940010EA
:102B4000D495001001BDFFFFAAAA0000D20B0020FF
:102B50003C95001070B5012101432E4BCB1A2F2B51
:102B600028D8EFF30583002B2BD0EFF3108C72B62F
:102B7000294A1268002AFBD0BFF35F8F274A04005E
:102B8000244D641B64416243120D54B2244A92687E
:102B90009B00D2588A421BD00022032A32D853000D
:102BA0009B189B001B49CB189B795BB2A3421FD09B
:102BB0000132F2E7C7211B4B1B4A49001B4801F0B9
:102BC0004BFC92211A4B184AFF31184801F044FC83
:102BD000134A92681749D150174B1A7882711C70AA
:102BE000BFF35F8F0C4B00221A608CF3108870BD0E
:102BF0000D005300991889006918FF268E710F4A3D
:102C00008A80E9E7D1210E4B074A4900074801F0C5
:102C100023FCC046980B0020240100D0AAAA000083
:102C200000ED00E04495001080950010889300109E
:102C30006C950010CD010010F717002001BDFFFFBB
:102C4000789500100022044B02E0044902C30132CF
:102C5000072AFAD97047C04600E400E080808080EF
:102C6000024B9C466144890001607047400000347B
:102C700010B50400FFF7B2FC01002000FFF7F0FFE1
:102C8000FF232371BFF35F8F10BD10B50400FFF762
:102C9000A5FC01002000FFF7E3FFFF2323710023C1
:102CA0006371BFF35F8F10BD034B9C466144890085
:102CB0000160BFF35F8F70474000003410B504001F
:102CC0000120FFF799FC01002000FFF7EDFF10BD88
:102CD00070B505000C00080000F0F4FE0949200062
:102CE00000F034FEFFF77AFC074B9C4660448000FE
:102CF00068602C75D0231B061B786B75A400034BF2
:102D0000E55070BD1530001040000034081500205B
:102D10000A4B1A68EFF3108172B61368002BFCD0CF
:102D2000BFF35F8F054B1B68BFF35F8F00221A60F4
:102D300081F3108840BF00200021704790170020C9
:102D400010B5002922D003681B7B99421ED8174B6F
:102D50009C466144090183689C4661440C6849684B
:102D6000002A19D003681B7B9A4215D883680F4844
:102D70008446624412019A181068536802000120C8
:102D80008B4201D80ED00020C0B210BD084B094ABA
:102D90003C21094801F060FB054B064A3C210648EE
:102DA00001F05AFBA242EFD8EDE7C046FFFFFF0F4C
:102DB00064970010E49900101097001010B50029D6
:102DC0001ED0037B99421BD84B005B18033B046861
:102DD000A4466344002919D0002A1DD0914221D075
:102DE000002A25D0047BA24222D804685000801813
:102DF000033820188170197800291FD11A7010BD6E
:102E0000104B114A6821114801F026FB104B114A62
:102E10006F310E4801F020FB0F4B0E4A70210B481A
:102E200001F01AFB0D4B0B4A7121084801F014FB0D
:102E3000044B054A6821054801F00EFB41701A70E9
:102E4000DDE7C04688970010509A0010A497001044
:102E50000C9800102C9A001018980010249800105C
:102E600070B506000D001400002914D0002A14D0FB
:102E7000806873689847002806D022002900300037
:102E8000FFF79CFF280007E02A0021003000FFF731
:102E900095FF200000E0100070BD0800FCE7000076
:102EA000F0B583B00500009201930AAB1C780BAB20
:102EB0001F78002C26D003685A7B944207D1012347
:102EC000002B19D1002C3BD1200003B0F0BD002C09
:102ED0000CD01A7B944209D81A6863001B19033B73
:102EE000D3189B78002BEBD00123E9E73E4B3F4AF8
:102EF00068213F4801F0B0FA3E4B3F4A67213F4806
:102F000001F0AAFA03689C7B002CDBD012D01A7B5C
:102F100094420FD862001219033A19688C46624431
:102F200051789973002900D1D9730023937053709D
:102F30001370C7E72C4B2D4A68212D4801F08CFAFD
:102F4000002C3AD02B681B7B9C4236D82C4BE318C4
:102F50001B01AA6894466344009A1A60019A5A6059
:102F6000089A9A60099ADA602E68002C2BD030D02B
:102F7000337B9C422DD863001B19033B3268944677
:102F8000634400229A705A701A70717B22003000DC
:102F9000FFF766FF7073844200D095E7287D009AA2
:102FA000019B00F01BFD061E01D0002F17D00C9BCB
:102FB000002B00D188E71E7086E7124B124A3C2195
:102FC0000E4801F049FA114B114AA521084801F0B9
:102FD00043FA054B054A6821054801F03DFA286887
:102FE000210000F033FFE2E788970010509A0010AC
:102FF000A49700103C9800105C9A001010970010E5
:10300000FFFFFF0F64970010E49900100C97001069
:10301000409A0010F0B5DE4657464E464546E0B5AC
:103020008BB00990002308938200B54BD658370027
:1030300052E0B44BB44A3F21B44801F00DFAB44B0E
:10304000B44A3C21B44801F007FA002901D1002814
:1030500069D10021404600F0EFFEA04219D12A6854
:103060006B6806920793AB689846EB689A464346AE
:10307000002B14D0002C18D03B681B7B9C4214D82A
:10308000631EFA68D35C08931B0218433861002062
:1030900015E0A24BA24A8E219F4801F0DDF9A14B19
:1030A0009F4A92219C4801F0D7F9994B9E4A4121B1
:1030B000994801F0D1F900239A46984600207B6890
:1030C000BFF35F8F00221A6086F310884346002BFF
:1030D00032D1002800D10CE100F0F4FB02000B1EFD
:1030E000A7DB00200021069007917868EFF3108697
:1030F00072B601680029FCD0BFF35F8F396888463B
:103100004C7B002CD7D09AD0097B8C4297D887492A
:1031100065182D01B9688C46654428686968801A6D
:103120009941002991DD2A686B68099800F056FCE6
:1031300000239A469846C2E7089B1B022343994600
:1031400051461800C04705000E007A68EFF3108B57
:1031500072B6136859424B41D9B2002BF9D1BFF373
:103160005F8F002E1EDB002E46DD3B69002B47D013
:103170004B456DD100F0A6FB02000B1E6EDB521911
:103180007341002B70DB002B72DB002104910131B5
:103190000391029451460191414600913800FFF796
:1031A0007FFE4CE03B69002BDDD04B4514D1069AE5
:1031B000079B521BB341002B14DB002B16DB0021B5
:1031C00004910131039102945146019141460091CD
:1031D0003800FFF765FE32E0554B514AA1214E48B9
:1031E00001F03AF901225242524BE6E7454B464A7A
:1031F0003F21464801F030F9002E01D1002DB4D115
:103200003B68002C50D05A7B944237D101210029D1
:103210004AD1DA7B002A4DD19A7B002A03D1DA7B8E
:10322000002A5AD19C73DC73002C5CD03B681B7B5A
:103230009C4258D8FA68013C135D013313550023B2
:103240003B617A68BFF35F8F13608BF3108843E7AD
:10325000374B334AA421304801F0FEF8294B2A4A63
:103260003F212A4801F0F8F801225242314B8AE707
:10327000244B254A3F21254801F0EEF8002C0DD0C3
:103280001A7B94420AD862001219033A18688446DD
:1032900062449278002ABAD00121B8E7264B274A27
:1032A0006821274801F0D8F8264B274AF621244800
:1032B00001F0D2F8002A0AD0197B8A4207D85100BF
:1032C0008A18033A19688C4662445470A4E71A4B72
:1032D0001A4A68211A4801F0BFF81C4B1A4AFB2110
:1032E000174801F0B9F80A4B0F4A41210A4801F08A
:1032F000B3F80BB0F0BCBB46B246A946A046F0BD41
:1033000008150020A0910010B0990010BC91001089
:1033100064970010E4990010109700106498001052
:10332000C89900107C980010089A0010FFFFFF0F4A
:1033300088980010FFFFFF7F88970010509A0010B8
:10334000A4970010C49800101C9A0010E898001070
:1033500010B50C4B5B68002B04D00A210A48FFF71C
:103360007FFC10BD074C2300084A1021206800F0A4
:1033700073FC032000F09AFA03212000FFF7A8FC59
:10338000EBE7C046E00B002090170020412D001015
:1033900010B5064B5B68002B01D0044810BD044BF0
:1033A000044A5E21044801F057F8C046E00B0020B3
:1033B000FC980010F099001010970010F0B5DE4650
:1033C00057464E464546E0B58BB0804616001F0076
:1033D000149B9A46159B994616AB1B789B461F2358
:1033E00002AA9446634400221A702BE0002809D0F8
:1033F00042461268127B904204D8421E4146C96878
:103400008A5C41E0404B414A4121414801F024F8A7
:1034100007984CE0361BAF41002F07DB002F11DA75
:103420003C4B3D4A3F213D4801F016F801267642CB
:103430003B4FF3E7374B384A3F21384801F00CF84F
:10344000002F4FDB43465A68EFF3108472B61368BF
:1034500059424B41D9B20791002BF8D1BFF35F8F8E
:103460001F3302AA944663440493002303930293F8
:103470004B4601935346009332003B004046FFF712
:103480000FFD031EB2D1020041464968BFF35F8FB2
:1034900000250D6084F31088002B29D01F2302A97A
:1034A0008C4663441B78002BB2D112021043002BD0
:1034B00020D05B46002B1DD04946D04704000D00AC
:1034C00003000B431DD00029A4DB00F0FBF906002C
:1034D0000F1EAFDB36196F41002FB1DA012676429D
:1034E0000F4FADE70B4B0C4A3F210C4800F0B4FFE7
:1034F000012040420BB0F0BCBB46B246A946A046F4
:10350000F0BD0798F6E7C04664970010089A0010CF
:1035100010970010A0910010B0990010BC910010FD
:10352000FFFFFF7FF8B50400002900D162E0426888
:10353000EFF3108572B6136858424341D8B2002B9E
:10354000F9D1BFF35F8FCBB22268567BB3421BD158
:103550000120002848D0206988422BD0090AC9B22E
:10356000002B2ED02068007B83422AD8581EE668A4
:10357000305C88422BD000206368BFF35F8F00224D
:103580001A6085F31088F8BD002B0DD0167BB3426E
:103590000AD85E00F618033E1768BC466644B67843
:1035A000002ED6D00120D4E7134B144A68211448CA
:1035B00000F052FF2C21134B134AFF31134800F047
:1035C0004BFF134B134A4121104800F045FF1900EF
:1035D000100000F03BFC0028CED199210E4B0A4A86
:1035E00049000A4800F038FF23698B42C4D1002308
:1035F0002361C1E70020C6E788970010509A0010A9
:10360000A4970010209900109899001010970010AE
:1036100064970010089A001044990010F0B587B024
:1036200006000F00EFF30583002B1FD10624644230
:10363000E517A4197D418D4202D803D1844201D9F6
:1036400000240025002D14DB0494059500F03AF9C0
:1036500002000B1E13DBA41A9D41002D17DC14D0B1
:103660003000390000F03AF907B0F0BD234800F00F
:103670008DFF234B234A3F21234800F0EDFE204BD2
:10368000204A3F21204800F0E7FE002CE8D0FFF759
:103690007FFE0023029301931C4B0093049A059B29
:1036A000FFF78CFE002818DADAE7002300E0002399
:1036B000002BD5D1164B1A68EFF3108172B6136840
:1036C000002BFCD0BFF35F8F114B1B68BFF35F8FE4
:1036D00000221A6081F3108820BF0499059A0D4BCF
:1036E0005B6A9A42E3D80B48806A884203D29A42C6
:1036F000DBD00123DCE70123DAE7C046489900105C
:10370000A0910010B0990010BC910010112D001074
:10371000901700200040054070B504000D0000F037
:10372000D1F802000B1E0ADB200029008018594145
:1037300000290ADB00290CDBFFF770FF70BD084B86
:10374000084A3F21084800F087FE0120404207490F
:10375000F0E7034B034A3F21034800F07DFEC046DB
:10376000A0910010B0990010BC910010FFFFFF7FE6
:1037700070B584B005000C00EFF30583002B1ED15B
:10378000FFF706FE002302930193224B00932A00C9
:103790002300FFF713FE061E23DD20BFFFF7F8FD11
:1037A0003100FFF7BFFE1C4B5B6A9C422DD81A4AC2
:1037B000926AAA422CD29C4225D0012026E0164BC8
:1037C0005B6A994209D8144A926A824207D29942A6
:1037D00001D001201AE0002018E0002016E00120AE
:1037E00014E00D4B5B6A9C4209D80B4A926AAA42CC
:1037F00007D29C4201D0012008E0002006E0002012
:1038000004E0012002E0002000E0002004B070BDD0
:103810000120FBE7112D00100040054070B5EFF3CB
:1038200005801038EFF3108C72B61A4B1B68002B12
:10383000FBD0BFF35F8F01221300834016494B6317
:1038400016490B60164909780C00C440224214D076
:10385000114A546A8200134D5259944206D3820091
:10386000114C125999430E4B197007E00A4A031D77
:103870009B0099589950002200E00022BFF35F8F0F
:10388000044B002119608CF31088002A00D0904767
:1038900070BDC046280100D0004005403C70054086
:1038A0000F180020A4170020EC0F002010B5010015
:1038B000024A0348FEF740FE10BDC046749A00104D
:1038C000EC170020044B5B6A034A906A1900536AA4
:1038D0009942F9D17047C04600400540084B5B6AE9
:1038E00001E0074B5B6A8B42FBD301E0044B5B6A50
:1038F0008B4203D1024B9B6A8342F7D37047C04689
:103900000040054070B504000D00FFF7DBFF02002A
:103910000B0020002900801859418B4202D804D1A5
:10392000824202D901204042C117002902DBFFF781
:10393000D5FF70BD024B034A3F21034800F08CFDC8
:10394000A0910010389B0010BC91001070B50400CD
:103950000D00EFF3108672B61B4B1B68002BFBD0DB
:10396000BFF35F8F002D1CD02000FEF7D1FE174B58
:1039700083420BD019002000FEF7D2FE0121200067
:10398000FEF7BEFE0123A340114A1360A400114BB1
:10399000E550BFF35F8F0C4B00221A6086F310884E
:1039A00070BDA2000B4B0021D1500122A2400A4958
:1039B0000B7893430B7005492000FEF7F5FF0021BB
:1039C0002000FEF79DFEE4E7280100D01D3800101E
:1039D00038600540EC0F00200F180020F0B5DE46DF
:1039E00000B584B00400150001921E000293FFF799
:1039F00069FF03958E4202D84ED185424CD9EFF330
:103A0000108B72B6274B1B68002BFBD0BFF35F8F68
:103A1000254A17780125A540EBB23B431370234B91
:103A20005D63221D92000199D150A20020490298A5
:103A300050501B6A2B4212D11C4B1B6C2B4208D0DE
:103A40000020BFF35F8F174B00221A608BF31088A2
:103A500023E0184B184AC521184800F0FDFCFFF779
:103A600031FF8E4214D802D1039B834210D80E4BF3
:103A70001B78BB420ED00D4B1D625D631F200440BE
:103A80000123A3400E4A1360074B1F701E38D8E76E
:103A90000020D6E70120D4E7012004B080BCBB465B
:103AA000F0BDC046280100D00F180020004005409E
:103AB000A4170020989A00101C9B0010BC9A0010BC
:103AC00080E200E0EFF3108C72B60B4B1B68002B0A
:103AD000FBD0BFF35F8F01238340084A136208497C
:103AE0000A789A430A70BFF35F8F034B00221A6073
:103AF0008CF310887047C046280100D00040054074
:103B00000F18002010B500291ED0037B99421BD846
:103B10004B005B18033B0468A4466344002919D09A
:103B2000002A1DD0914221D0002A25D0047BA24238
:103B300022D8046850008018033820188170197842
:103B400000291FD11A7010BD104B114A682111486D
:103B500000F082FC104B114A6F310E4800F07CFCE3
:103B60000F4B0E4A70210B4800F076FC0D4B0B4AB0
:103B70007121084800F070FC044B054A6821054893
:103B800000F06AFC41701A70DDE7C04688970010AB
:103B9000589C0010A49700100C980010449C001032
:103BA000189800102498001070B506000D0014003D
:103BB000002914D0002A14D0806873689847002820
:103BC00006D0220029003000FFF79CFF280007E004
:103BD0002A0021003000FFF795FF200000E01000D0
:103BE00070BD0800FCE7000010B5002343730133EB
:103BF0008373037BC3730123027B9A4214D9002B86
:103C00000CD0027B934209D85A00D218033A0168BB
:103C10008C4662440133DBB25370EDE70B4B0C4A28
:103C200068210C4800F018FC002A09D0924207D8FD
:103C3000016853009A18033A8A180023537010BD84
:103C4000024B034A6821034800F006FC88970010E5
:103C5000589C0010A497001010B501734260836057
:103C6000FFF7C2FF10BD000070B50400081E00D1B0
:103C700070BD002934D0237B994231D84B005B18AA
:103C8000033B2268944663445A78002AF0D02DD032
:103C9000237B9A422AD853009B18033B21688C4609
:103CA00063445D7800215970002825D0237B984219
:103CB00022D843001B18033B21688C466344002133
:103CC000597001002000FFF76FFF06002900200057
:103CD000FFF7CAFF020031002000FFF765FFC7E7CA
:103CE000084B094A6821094800F0B6FB054B064A13
:103CF0006821064800F0B0FB024B034A68210348E4
:103D000000F0AAFB88970010589C0010A4970010A0
:103D100070B505000C00160000292FD034D0037BAD
:103D2000994231D84B005B18033B026894466344C8
:103D30005A78002A2ED19A78002A31D11978FFF7C3
:103D400093FF0300002E0AD0EA7B002A2ED1AA7B23
:103D5000002A03D1EA7B002A3BD1AC73EC73002B21
:103D60003DD1002C4FD02B7B9C424CD82B6861005E
:103D70000C19033C1C190023637070BD254B264AA7
:103D80003821264800F068FB254B264A6821264842
:103D900000F062FB254B204A3A21204800F05CFBF2
:103DA000234B1D4A3B211D4800F056FB002A0AD038
:103DB000297B8A4207D851008A18033A29688C4621
:103DC00062445470C3E7164B164A6821164800F047
:103DD00043FB184B104A4221104800F03DFB002BDA
:103DE0000BD02A7B934208D843001B18033B2A6858
:103DF0009446634400229A70B3E7094B094A68214C
:103E0000094800F029FB064B064A6821064800F0E5
:103E100023FBC046509B0010309C0010589B0010A4
:103E200088970010589C0010A4970010AC9B0010BD
:103E3000D49B0010E898001070B504000A00457B80
:103E40002900FFF765FF6073280070BD70B504009E
:103E5000002967D0437B8B420ED0002911D0037B11
:103E600099420ED84B005B18033B0268D018837848
:103E7000002B0CD1002056E00121FFF7DDFF0120CF
:103E800051E0294B294A6821294800F0E5FA002B26
:103E900020D0227B93421DD85A00D318033B2268BE
:103EA000D2182568EB5C8B421AD0002B1BD0227BEA
:103EB000934218D85A00D318033B2268D21853787B
:103EC0008B4216D0002BF0D11A4B1B4A6B211B489A
:103ED00000F0C2FA144B154A6821154800F0BCFAEC
:103EE0004378137007E0104B104A6821104800F027
:103EF000B3FA43785370002383704370012220008B
:103F0000FFF706FF0200617B814205D02000FFF72A
:103F10004BFE6073012006E0094B074A71210748F8
:103F200000F09AFA002070BD88970010589C00108D
:103F3000A497001078950010189C0010589B001052
:103F4000F89B001070B5046BE30701D4200070BD2E
:103F500002003032C0239B0113430A4A1A60456AAB
:103F6000826AAD01AD18AD02062000F0BDF9064928
:103F700001F020FC0100280001F01CFC0021FFF7EB
:103F8000C1FCE3E7010300004E0E000070B5040021
:103F90000E001500FFF7D6FF22002C32E16A4E40DA
:103FA000354080235B0113431D60206370BD00001A
:103FB00070B505000C00062000F096F9C000210045
:103FC00001F0F8FBC60908D00E4B9E4216D87F239D
:103FD000184001303400460800E001246C62AE62F3
:103FE000002200212800FFF7D1FF062000F07CF915
:103FF0008000A101891901F0DDFB70BD0026024C93
:10400000ECE7C046FEFF0000FFFF000010B50539D9
:104010004901013AD2001143002B09D002220A4380
:10402000012B07D0002111436E22FFF7AFFF10BD17
:104030000022F4E70421F6E7002909D00A22064B02
:104040009C466044434258414000044BC252704772
:1040500080225200F3E7C0460080FCBFD417002046
:1040600070B505000C00062000F03EF9061E27D0B2
:10407000164B9D4226D08022D203154B1A60154B59
:104080001A60154B9B6811009943FAD10021280052
:10409000FFF7D2FF21002800FFF78AFF0600002368
:1040A000012208212800FFF7B1FF2A002C328023CB
:1040B0009B01134310221A60084B2B630323AB644C
:1040C000300070BD80221204D7E7C0460080034054
:1040D00000E0004000F0004000C00040010300008C
:1040E000F8B5DE4657464E464546E0B505000F009A
:1040F00092460A9A934250D31A0E91461E020A9A89
:1041000000233000494601F093FB80466C0064199F
:10411000A400304B9C4664446368834200D26060D4
:104120002B1FDBB29B46012B3DD9C0239B012343B0
:10413000802212011A60AB00274A9958002907D043
:10414000506901F037FB431C5800C0180338FDD2FA
:1041500053465A0123685A40E0231A4080235B01EA
:1041600023431A605A46012A28D980239B012343FE
:10417000802212011A6043466360424600233000E9
:10418000494601F055FBAD00134B58510120F0BCDE
:10419000BB46B246A946A046F8BD104B104A332193
:1041A000104800F059F9012FBFD1C0239B012343D0
:1041B00003221A60A368DB07FCD5C9E721687940B0
:1041C00003220A401A60A2680123BB401342FAD0BE
:1041D000CBE7C046008000403C100020649C0010EB
:1041E000D89C0010789C001030B583B00C2000F0F3
:1041F00011F9FEF781F900280DD0002304E09900A1
:104200002D4A2E4888500133092BF8D92A4B2C4AC5
:104210005A6203B030BD2B4B00229A6700F002F9BE
:10422000294B01221A60274B5B6C012BFBD1274BDA
:1042300003221A60234B9B6B012BFBD101330093AC
:104240000433234A0121234800F054F80523009346
:10425000214A0121214800F04DF8214B0093002212
:1042600002210420FFF73CFF1E4D00952B00002289
:1042700001210520FFF734FF104C00942300002299
:1042800000210720FFF72CFF0094230000220021CB
:104290000820FFF725FF0A4B00932300002200218E
:1042A0000920FFF71DFF00952B00002200210620AA
:1042B000FFF716FFADE7C0463C100020006CDC02A3
:1042C0001BB70000008000403CB0004030B0004010
:1042D000002F685900800240008C864700C00240D1
:1042E000001BB700405973078000014BC05870474E
:1042F0003C100020F0B5C64600B504000E001700C3
:104300001D00374801F056FA8046364BFA18364BF6
:104310009A4239D80100380001F04CFA0200103AF4
:1043200098235B009A4235D86B1E062B38D8069B23
:10433000013B062B34D83F09474537D32D04069B54
:104340001A0315432368002B36DB284B9C4244D0CC
:1043500080225201264B1A60264B1A60264B9B681E
:1043600011009943FAD12660A060231DC02292015A
:104370001A43212313602368002BFCDAE56008232D
:10438000136080BCB846F0BD1C4B1D4A11211D486E
:1043900000F062F81C4B1A4A19211A4800F05CF828
:1043A0001A4B174A1C21174800F056F8184B144AAC
:1043B0002321144800F050F822683F231340B342F1
:1043C000C3D1A3681B051B0D8342BED1E368EE2257
:1043D000D2021340AB42B8D1D3E780229201B9E7B1
:1043E000001BB70080E84BD380F8A93200C0024020
:1043F00000E0004000F0004000C00040E89C0010D9
:10440000289E0010489D0010A49D0010C09D001023
:104410000C9E001080239B000343014AD362704727
:1044200000800540064BAA2212011A602F22DA6092
:10443000044B054A1A60024B5B68002BFBDA70479D
:10444000004002400060024000B0FA0000BEFDE7FC
:1044500010B5FFF7FBFF000010B582B00C0019008B
:10446000002A0CD0084B002A0BD0019200932300A5
:104470000200064802F084FC0120FFF7E7FF044B2E
:10448000F1E7034AF1E7C046349E0010449E001055
:104490009C8F001070B52B4B2B4A1A602B4B2C4A6B
:1044A0001A602C4B9A682A4B9343FAD12A4C01E0AC
:1044B00008CC9847294B9C42FAD3FFF795FE234B33
:1044C000274A1A60234B9B68DB43DB01FAD1254B5B
:1044D00040229A675A671A67DA66234C09E0234B31
:1044E000234A87212348FFF7B7FF2000FEF7C0FBD0
:1044F0000834214B9C4209D22368002BF5D0012BB4
:10450000EDD12000FEF7C1FB0834F2E71B4CA16897
:104510001B4DC022280002F0DBFAA560EFF30583F3
:10452000002B00D000BEFEF749F8FEF78BFBFEF72C
:104530000FFF144C01E008CC9847134B9C42FAD370
:1045400070BDC04600E00040BFCDFBFE00F0004063
:10455000FE7F3C0000C00040880C0020980C00202A
:10456000FFFFFF0100F00140800C0020749E00104E
:10457000089F0010949E0010880C002000ED00E0C1
:1045800000000020980C0020A00C00200FB400B503
:1045900083B0084802F0C4FB049B002B07D005A998
:1045A0000191180002F0CCFB034802F0B9FB012096
:1045B000FFF74CFFF49E0010049F0010704710B5E9
:1045C000002802D00B684968984710BD0100002000
:1045D00007E083001B185B00501C08601078C018AF
:1045E00030380A681378303BDBB2092BF1D97047B9
:1045F000F0B5DE4657464E464546E0B583B0934695
:104600001F000C9B9A460D9C0E9B99460F9B9B0787
:1046100003D0B8460F00060022E00192A346884668
:104620004E46B9460700B44207D2551C4B46414698
:104630002020B84701342A00F5E73D004F465C468C
:10464000019B9B46B1464646B84637002E0007E020
:10465000013C551C5346185D43463900B0472A00BB
:10466000002CF5D135003E0047460F9B9B0707D431
:10467000100003B0F0BCBB46B246A946A046F0BD50
:10468000B0464E46B9462F005D46531BB342EFD2AB
:10469000541C4B4641462020B8472200F5E7F0B5B0
:1046A000CE46474680B585B0944698460C9D0D9CF5
:1046B0000EAB1B789946109A119B129EB7071CD41B
:1046C000002B0CD0F7070AD54F46002F02D10C372C
:1046D000374204D0013B02E030272F550134944289
:1046E00001D21F2CF8D9F70707D59C4205D21F2C01
:1046F00003D830272F550134F5E7F70615D5770590
:1047000005D4002C03D0944224D09C4222D00F9A8E
:10471000102A2BD00F9A102A30D00F9A022A35D0A7
:104720001F2C02D830222A5501341F2C05D84A46A6
:10473000002A31D02D222A55013403960293019488
:10474000009543466246FFF753FF05B0C0BCB9462B
:10475000B046F0BD621E012C06D00F9F102F01D075
:104760001400D4E7023CD2E71400D0E7B206D1D45B
:104770001F2CCFD878222A550134D1E7B206CCD5E8
:104780001F2CCAD858222A550134C9E71F2CC7D874
:1047900060322A550134C3E7720703D52B222A550C
:1047A0000134CAE73207C8D520222A550134C4E7AC
:1047B000F0B5DE4657464E464546E0B593B08146D5
:1047C0008A46089209931CAB10CB1B789B461E9D12
:1047D000219B9846002C03D1102342469A439046D1
:1047E0008023DB0046461E4042461A4212D0002C6F
:1047F00022D000260EE03033D9B2771C0AAB99558F
:104800002900200000F0D6FFAC4216D31F2F14D889
:104810003E0004002900200000F0CCFFCBB2092BA1
:10482000E9D94246920605D54121C918C9B20A39CB
:10483000C9B2E2E76121F8E7270043460693209BCF
:1048400005931F9B049303955B46029301970AAB64
:104850000093099B089A51464846FFF720FF13B082
:10486000F0BCBB46B246A946A046F0BDF0B5DE4658
:1048700057464E464546E0B595B0089009910A92D4
:104880000B931E9E1F9C20AB1B789B46229B994638
:10489000239D269B9A463300234303D1103352466F
:1048A0009A4392468023DB0057461F4052461A42E5
:1048B00019D0330023432DD0002714E03033DAB26F
:1048C0007B1C98460CABDA554A462B003000210081
:1048D00000F0AEFFA5421FD819D043461F2B1BD8AE
:1048E000474606000C004A462B003000210000F02D
:1048F0009FFFD3B2092BE1D95246920605D541223A
:10490000D218D2B20A3AD2B2DAE76122F8E7B14558
:10491000E3D901E00023984653460693259B05936F
:10492000249B04934B4603935B46029343460193B7
:104930000CAB00930B9B0A9A09990898FFF7AFFEFE
:1049400015B0F0BCBB46B246A946A046F0BD00007B
:10495000F0B5DE4657464E464546E0B591B0834633
:104960008A460C9298461A9C08941B9D0995220031
:104970002B002000290001F0F2F9002800D0E5E02A
:1049800001225242D74B2000290001F0E3F9002810
:1049900000D0DBE001225242D34B2000290001F07D
:1049A000C3F9002800D0D1E000220023089E300087
:1049B000099D290001F0B8F9002800D0DDE0089831
:1049C0000999069007918023DB001E9A1A400D92E8
:1049D0001E9A1A4201D106231C93069807990400D7
:1049E0000D000A000600024300D1D1E0080D400589
:1049F000400DBE4CA44660440A03120BBC4B13434B
:104A00001F0001F0BFF9BB4ABB4B01F04AF9BB4A9A
:104A1000BB4B01F01FF904000D000022B94B300020
:104A2000390001F00EF9B84AB84B01F03AF902002A
:104A30000B002000290001F00DF901F0BBF98146BF
:104A400001F0A0F904000D00B14AB24B01F029F9C0
:104A50000022B14B01F0FEF801F0ACF90600AF4ABC
:104A6000AF4B2000290001F01CF904000D003000BC
:104A700001F088F9AB4AAC4B01F013F902000B00CE
:104A80002000290001F0DDF804000D0002000B00F9
:104A900001F007F90A900B91A44BF31800261F05AB
:104AA00022002B002000290001F0D4F80E900F9175
:104AB00022002B0000208021C90501F0C2F804006B
:104AC0000D0000229A4B0A980B9901F0CCF80022B5
:104AD000984B01F0BFF802000B000A980B9901F007
:104AE000C2F80022944B01F0B5F802000B000A98BE
:104AF0000B9901F0B8F802000B002000290001F02A
:104B0000A9F802000B000E980F9901F0ACF80022F2
:104B1000774B01F09FF832003B0001F0C2F806002D
:104B20000F0004000D00069A079B01F013F90028FE
:104B300030D001235B429C46E14400227D4B300093
:104B4000390001F090F804000D0023E01E9B04934F
:104B50001D9B03931C9B0293089A099B009201934F
:104B600043460C9A5146584600F0FCF811B0F0BC90
:104B7000BB46B246A946A046F0BD002300240693DA
:104B80000794069680231B069C46654407951AE702
:104B9000002399464B466333C62B1ED804261E9B22
:104BA0001B0526D52B0023430FD0644A644B06987F
:104BB000079901F0C7F8002879D00022614B0698C8
:104BC000079901F0B1F8002871D01C9B4B4506DD18
:104BD0004A46981A431E1C9303E00526DFE700238C
:104BE0001C938023DB001E9A1A431E92002600238A
:104BF00099461D9B9E4264D29F1B02231E9A1A4017
:104C00000A921E9A134202D0002E00D000274B4673
:104C1000002B07D022002B000698079901F023F8FB
:104C200006900791002200230898099901F07CF86A
:104C3000002848D1444B1E9A1340049303971C9BB1
:104C40000293069B079C0093019443460C9A51469D
:104C5000584600F087F8002E00D187E71E9B9B0680
:104C60003DD54525441C4346020051462800D847FF
:104C70004B46DA179B18534005220592013E0496D5
:104C8000002203920A3202924A46D00F019000930A
:104C90004346220051465846FFF78AFD0A9B002BE7
:104CA00000D163E702005F460C9E1D9D54E01C9BF3
:104CB000002B9ED00D9B002B9BD01C9B013B1C937B
:104CC00097E7002799E7069C079D2200290080208E
:104CD0000006844661440B0006920793AAE7652507
:104CE000C0E7C046FFFFEF7FFFFFEFFF01FCFFFFC4
:104CF0000000F03FFB799F501344D33FB3C8608B53
:104D0000288AC63F0000F83F61436F63A787D23F00
:104D100071A379094F930A400000E03F1655B5BBD7
:104D2000B16B0240EF39FAFE422EE63FFF0300006E
:104D300000002C4000002440000018402D431CEBD4
:104D4000E2361A3F80842E41FFF7FFFF541C434692
:104D500051462020B8472200931BAB42F6D31000E7
:104D600004E7C046F0B5DE4657464E464546E0B538
:104D700095B00690079193469946209F1E9A1F9BD7
:104D80001000190000F0EBFF002831D1012252423F
:104D9000BF4B1E981F9900F0C7FF002837D1012292
:104DA0005242BC4B1E981F9900F0D4FF00283DD101
:104DB0000022B94B1E981F9900F0CCFF002850D15B
:104DC0000022B64B1E981F9900F0AEFF002848D174
:104DD000002200231E981F9900F0A6FF002850D142
:104DE00000239846229B5B0500D4B6E0002458E0DF
:104DF000229B0393219B029303230193A84B0093CF
:104E00004B465A4607990698FFF7F2FB0EE1229BA4
:104E10000393219B029304230193A24B00934B46DF
:104E20005A4607990698FFF7E3FBFFE00423229A0E
:104E30001A4022990B4210D09B4B002A0FD004221B
:104E40002299039121990291019200934B465A466F
:104E500007990698FFF7CCFBE8E0944BEDE70322B7
:104E6000EEE7229B0493219B039302971E9B1F9CBA
:104E7000009301944B465A4607990698FFF768FD40
:104E8000D4E01E9A1F9B0020002100F0DAFE1E9045
:104E90001F9101239846A5E70CAB30221A55013F1C
:104EA00001341F2C01D8092FF6D81E981F9900F045
:104EB00081FF050000F066FF02000B001E981F999D
:104EC00000F0BFFEFA007A4B9B181A685B680A92E2
:104ED0000B9300F0E6FE0890099100F08FFF0600AA
:104EE00000F04CFF02000B000898099900F0A9FEA1
:104EF0000890099100226F4B00F02CFF00282ED063
:104F00000136300000F03AFF02000B000A980B99BE
:104F100000F010FF002801D001350026002F2CD111
:104F2000280000F02FFF02000B001E981F9900F0D0
:104F300088FE06000F0000225E4B00F0F5FE002800
:104F400046D100225B4B3000390000F003FF0028FF
:104F50003ED1EB073CD501353AE0062746E7002273
:104F6000544B0898099900F0DFFE0028D6D1002E96
:104F700001D0F307D2D50136D0E7AA461F2C11D8AD
:104F8000013F0A21300000F015FC651C30310CABEC
:104F900019550A21300000F00DFC092E0ED906002B
:104FA0002C00EBE755461F2C0CD87B1E002F09D098
:104FB0000CAA302111551F000134F4E72B0055468F
:104FC0001C00F0E71F2C03D80CAB2E221A5501341D
:104FD0001F2C10D80A21280000F0C4FB661C3031B9
:104FE0000CAB19550A21280000F0BCFB051E01D0AE
:104FF0003400EDE734000323229A1340012B1CD028
:105000001F2C06D84346002B32D00CAB2D221A554C
:105010000134229B0393219B029301940CAB0093D8
:105020004B465A4607990698FFF7E2FA15B0F0BCCE
:10503000BB46B246A946A046F0BD219B002B13D02B
:105040004346002B02D10C3313420FD0219B013B6E
:105050002193190003E00CAB30221A5501348C4225
:10506000CED21F2CF7D9CBE72199F8E72199F6E7A3
:10507000229B5B0704D50CAB2B221A550134C8E7E1
:10508000229B1B07C5D50CAB20221A550134C0E763
:10509000FFFFEFFFFFFFEF7F65CDCD4165CDCDC1B8
:1050A000249F0010289F00101C9F0010189F0010C4
:1050B00010A100100000E03FF0B5DE4657464E4616
:1050C0004546E0B593B082468B4690461193002941
:1050D00000D1EBE200275546119B1878002800D13B
:1050E000E7E2252809D07C1C43463A005946A847E8
:1050F000119B013311932700EEE701331193002434
:10510000119A11780B00203BD8B2102803D88300E5
:10511000D048C3589F460B00303BDBB2092B2CD93B
:105120002A292FD000230A93119B1A782E2A39D0CE
:1051300000239A46119A1378683BD9B2122976D87F
:105140008B00C549CB589F4601231C430132119265
:10515000D6E702231C4301321192D1E704231C43FA
:1051600001321192CCE708231C4301321192C7E7A8
:1051700010231C4301321192C2E711A8FFF726FA4F
:105180000A90D1E71C9B1A1D1C921868002804DBAA
:105190000A90119B01331193C6E702231C4343423B
:1051A0000A93F6E78022D20014435A1C11925A78CF
:1051B0001300303BDBB2092B04D92A2A07D0002385
:1051C0009A46B7E711A8FFF701FA8246B2E71C9B9F
:1051D0001A1D1C921868002804DB8246119B0133BB
:1051E0001193A7E70020F8E780235B002343511CBD
:1051F000119152786C2A01D01C0018E0C0239B004A
:105200001C430131119112E080232343511C119161
:105210005278682A01D01C0009E0C0231C430131E8
:10522000119104E080235B001C4301321192119B19
:1052300018780300253BDAB2532A00D92CE29300F8
:10524000864AD3589F4680239B001C43013211920B
:10525000EDE780235B001C4301321192E7E77828D9
:1052600009D0582838D06F2838D0622838D0102379
:105270009C430A2600E01026582833D0692803D022
:10528000642801D00C229443630501D50122944384
:1052900069282AD0642828D0A30500D59FE0E3051B
:1052A00000D5B8E0630600D4CAE01C9A111D1C9119
:1052B0001168FF220A4005940A9B04935346039306
:1052C000029600230193009243463A005946280073
:1052D000FFF76EFA070027E01026CDE70826CBE798
:1052E0000226C9E720221443C8E7A30520D4E3051A
:1052F00050D4630666D51C9A111D1C911168FF22BB
:105300000A40D317D118594005940A9B0493534679
:1053100003930296D20F0192009143463A005946F8
:105320002800FFF745FA0700119B01331193D3E6DC
:105330001C9BDA1D07218A43110008311C9111685A
:1053400053689C46DB170C930D930C9A0D9B100031
:1053500048400E90624653400F930E980F990C9A56
:105360000D9B801A99410E900F9108940A9B079308
:10537000534606930496002305936346DA0F029280
:105380000090019143463A0059462800FFF76EFA13
:105390000700C9E71C9A111D1C911268D317D11878
:1053A000594005940A9B0493534603930296D20FE7
:1053B0000192009143463A0059462800FFF7F8F958
:1053C0000700B1E7230605D51C9A111D1C91002387
:1053D000D25E96E71C9A111D1C91126891E71C9BE6
:1053E000DA1D07218A43110008311C9108940A9B99
:1053F000079353460693049600230593029313687C
:1054000054680093019443463A0059462800FFF738
:105410002DFA070088E71C9A111D1C9105940A9B20
:105420000493534603930296002301931368009359
:1054300043463A0059462800FFF7BAF9070073E7D8
:1054400023060DD51C9A111D1C9112681204120C12
:1054500031E7C046309F0010749F0010C09F0010BD
:105460001C9A111D1C91126825E746281AD01C9B16
:105470000733072293431A0008321C9204940A9AB5
:105480000392524602925C681B6800930194434663
:105490003A0059462800FFF765FC0700119B0133CD
:1054A000119319E620231C43E1E7672801D0472820
:1054B00002D180231B011C43452801D0472801D17C
:1054C00020231C431C9B0733072293431A000832F6
:1054D0001C9204940A9A0392524602925C681B68DA
:1054E0000093019443463A0059462800FFF730FAEA
:1054F0000700119B01331193EEE502231A002240AD
:10550000924623421FD001241C9B1A1D1C927A1C18
:105510009146187843463A005946A8475346002B0F
:1055200016D1119B013311934F46D5E5561C4346C6
:1055300059462020B847230032005C1C9D42F5D814
:105540003D001700E0E701233A002F000A9DF4E731
:105550004A46A9460A9D06E0571C43465946202064
:10556000C84734003A00661CA542F5D84D4691461E
:10557000D7E71C9B1A1D1C921B6899465346002BAB
:1055800000D1013B4E4601E0013613003278002A7B
:1055900002D05A1E002BF7D14B46F21A10928023EC
:1055A000DB0026001E401C4203D0524501D9534661
:1055B000109302231A0022400B92234205D03A0096
:1055C00037004C46A946554620E03A00109B5F46FE
:1055D000B3462E0006E0551C434639002020B04754
:1055E00023002A005C1C0A999942F4D835005E46D3
:1055F000BB46109437004C46A946554606E01D00B0
:105600000134561C43465946C847320020780028CA
:1056100004D0002FF4D06B1E002DF0D117004D46A2
:105620000B9B002B03D1119B0133119354E50A9F6F
:10563000109B06E0561C434659462020A8472300ED
:1056400032005C1C9F42F5D81700ECE721231C4375
:105650001C9B1A1D1C921B6800930594082304933D
:1056600053460393102302930023019343463A00C9
:1056700059462800FFF79CF80700119B013311934E
:105680002AE57C1C43463A0059462520A847119B31
:105690000133119327001FE57C1C43463A0059460D
:1056A000A847119B01331193270015E50A4B9A4631
:1056B00010E5AA46474502D343465A1E00E03A0089
:1056C000434659460020D047380013B0F0BCBB46D3
:1056D000B246A946A046F0BDBD45001000B585B054
:1056E000029003910121009313004A4202A902484B
:1056F000FFF7E2FC05B000BDBF45001001480421E2
:10570000014B1847100C00202D57001010B5010058
:1057100018231B8814221088984710BD10B501006B
:1057200018231B8816221088984710BDF0B5C6466E
:1057300000B507000E0000250123984600E0013562
:10574000B5420AD2AC003C192068FFF7DFFF2060A9
:105750000028F4D100239846F1E7404680BCB846C3
:10576000F0BD0000124A936F9B0815D29066D16677
:10577000002905D0FFE7FFE7FFE7516F106F704783
:1057800004B580210906C2175140002800D0C84343
:1057900003F006FB002104BDF0B5146E556E576F83
:1057A000166FFFF7E3FF1466556657671667F0BD7F
:1057B000000000D0114A936F9B0813D21066516607
:1057C000002905D0FFE7FFE7FFE7516F106F704733
:1057D00004B5002801D00020C04303F0E1FA002105
:1057E00004BDC046F0B5146E556E576F166FFFF7C7
:1057F000E5FF1466556657671667F0BD000000D0D8
:1058000094464A4A926F9208624601D228E0C04606
:10581000F0B5464E346E756E776F366F00F020F837
:105820009446424A14665566576716676246F0BD4D
:1058300094463E4A926F9208624601D254E0C046B6
:10584000F0B53A4E346E756E776F366F00F04CF8E7
:105850009446364A14665566576716676246F0BD29
:10586000002B24DB11D000293EDA00B5C9434042A9
:1058700000D1013100F038F8C943404200D1013174
:10588000DB43524200D1013300BD002AEBD1002896
:1058900001D1002905D00020C90FC90701D1C0439B
:1058A000410800B503F074FA0022002300BD00B5E2
:1058B00000290ADBDB43524200D1013300F014F827
:1058C000C943404200D1013100BDC943404200D12B
:1058D0000131DB43524200D1013300F005F8DB43D4
:1058E000524200D1013300BD002923D1002B18D131
:1058F000002A0CD0BC460D4F38667A660021002382
:10590000FFE7FFE7FFE77A6F386F674670470028C9
:1059100001D00748010000B503F03AFA0022002345
:1059200000BD02000B00002000217047000000D0E5
:10593000FFFFFFFF002B00D0BFE0130C28D1002A8F
:10594000E7D080B4114F39667A66FFE7FFE730B4DD
:10595000040C7B6F396F1B0423433B667A66FFE7B9
:10596000FFE7FFE7C04684B27B6F3D6F1B04234314
:105970003B667A66FFE7FFE7C04600232C042D0C48
:105980007A6F386F00196941B0BC7047000000D0D1
:10599000F0B594460025140E01D112020835140FFB
:1059A00001D112010435940F01D192000235D40FB8
:1059B00001D152000135D40B0134254F7C66254CB2
:1059C0003C660E0C93B2FFE7FFE7FFE73C6F6643D0
:1059D000360C7703BE467343DF0B5B04C01AB94134
:1059E000130C7343DB18C91ACE086643360CB64451
:1059F00093B273431F0F1B01C01AB941130C7343B9
:105A00001F0B1B05C01AB941860D8F023E4366432A
:105A1000360C092D24DB520A7243801A7703460A9A
:105A20006643360C16235B1BDE40DF40BF1964461D
:105A30006643821B7046043506330100D940A840F6
:105A4000C01900D30131A24206D20023F0BD0000EC
:105A5000000000D0FFFFFFFF121B0130F3D3F1E77E
:105A600009277F1BFE406446A2B27243801A00D20F
:105A70000139220C7243130C1204821A99410B0053
:105A80007046043513370100F940A840801900D34F
:105A90000131002B02D1A2420AD2F0BD013000D365
:105AA0000131121BFAD2013BF8D1A24200D2F0BD63
:105AB000013000D30131121BF7E7F0B51C0C00D008
:105AC00080E00CB400251C0A04D11B02160E3343DF
:105AD000120208351C0B04D11B01160F33431201AF
